{"contracts/WhitelistVotersACLv1.sol":{"WhitelistVotersACLv1":{"abi":[{"inputs":[],"stateMutability":"nonpayable","type":"constructor"},{"inputs":[],"name":"ACLManagementNotAllowed","type":"error"},{"inputs":[],"name":"PollCreationNotAllowed","type":"error"},{"inputs":[],"name":"PollManagementNotAllowed","type":"error"},{"inputs":[],"name":"VoteNotAllowed","type":"error"},{"inputs":[{"internalType":"address","name":"","type":"address"},{"internalType":"address","name":"","type":"address"}],"name":"canCreatePoll","outputs":[{"internalType":"bool","name":"","type":"bool"}],"stateMutability":"pure","type":"function"},{"inputs":[{"internalType":"address","name":"dao","type":"address"},{"internalType":"ProposalId","name":"proposalId","type":"bytes32"},{"internalType":"address","name":"user","type":"address"}],"name":"canManagePoll","outputs":[{"internalType":"bool","name":"","type":"bool"}],"stateMutability":"view","type":"function"},{"inputs":[{"internalType":"address","name":"dao","type":"address"},{"internalType":"ProposalId","name":"proposalId","type":"bytes32"},{"internalType":"address","name":"user","type":"address"}],"name":"canVoteOnPoll","outputs":[{"internalType":"bool","name":"","type":"bool"}],"stateMutability":"view","type":"function"},{"inputs":[{"internalType":"ProposalId","name":"proposalId","type":"bytes32"}],"name":"listEligibleVoters","outputs":[{"internalType":"address[]","name":"","type":"address[]"}],"stateMutability":"view","type":"function"},{"inputs":[{"internalType":"address","name":"dao","type":"address"},{"internalType":"ProposalId","name":"proposalId","type":"bytes32"},{"internalType":"address","name":"creator","type":"address"}],"name":"onPollCreated","outputs":[],"stateMutability":"nonpayable","type":"function"},{"inputs":[{"internalType":"address","name":"dao","type":"address"},{"internalType":"ProposalId","name":"proposalId","type":"bytes32"},{"internalType":"address[]","name":"voters","type":"address[]"}],"name":"setEligibleVoters","outputs":[],"stateMutability":"nonpayable","type":"function"},{"inputs":[{"internalType":"address","name":"dao","type":"address"},{"internalType":"ProposalId","name":"proposalId","type":"bytes32"},{"internalType":"address[]","name":"admins","type":"address[]"}],"name":"setPollManagers","outputs":[],"stateMutability":"nonpayable","type":"function"}],"evm":{"bytecode":{"linkReferences":{},"object":"6080806040523461002857600480546001600160a01b031916331790556105bb908161002e8239f35b600080fdfe6080604081815260048036101561001557600080fd5b600092833560e01c90816336e256d114610327575080634923d5181461028557806356d15dc81461026057806385e3f919146101df578063bf1c847814610128578063e5362667146100af5763ff6fef7d1461007057600080fd5b346100ab57816003193601126100ab576001600160a01b039035818116036100ab57602435908116036100a7576020905160018152f35b5080fd5b8280fd5b5050346100a757600160ff826020946100f56101036100cd36610460565b86516001600160a01b039093168b840190815260208101929092529390929082906040850190565b03601f198101835282610494565b51902082526002875282822090858060a01b0316825286522054161515149051908152f35b509190346100a757610139366103f6565b956101489391933384846104cc565b156101d1575083516001600160a01b03909116602080830191825260408301939093529061017981606081016100f5565b51902084526002815282842090845b86811061019457858551f35b6101cc906001600160a01b036101b36101ae838b8961054b565b610571565b168752838352858720805460ff19166001179055610526565b610188565b8451637f3fbb5f60e11b8152fd5b50346100ab576101ee36610460565b926001600160a01b039291908383163303610252575084516001600160a01b039092166020830190815260408301919091529061022e81606081016100f5565b51902084528360205282842091168352602052808220600160ff1982541617905551f35b8551630e23de2960e21b8152fd5b5050346100a75760209061027c61027636610460565b916104cc565b90519015158152f35b509190346100a757610296366103f6565b8654909691936001600160a01b039392909184163303610252575084516001600160a01b0390911660208083019182526040830193909352906102dc81606081016100f5565b519020855284815283852091855b8781106102f657868651f35b80826103096101ae610322948c8a61054b565b168852848452868820805460ff19166001179055610526565b6102ea565b91849150346100a757602092836003193601126100ab57308482019081529135602083015292939261035c81604084016100f5565b519020815260038352818120908251808584549182815201908194845286842090845b8181106103d95750505081610395910382610494565b83519485948186019282875251809352850193925b8281106103b957505050500390f35b83516001600160a01b0316855286955093810193928101926001016103aa565b82546001600160a01b03168452928801926001928301920161037f565b90606060031983011261045b576004356001600160a01b038116810361045b57916024359160443567ffffffffffffffff9283821161045b578060238301121561045b57816004013593841161045b5760248460051b8301011161045b576024019190565b600080fd5b606090600319011261045b576001600160a01b03600435818116810361045b579160243591604435908116810361045b5790565b90601f8019910116810190811067ffffffffffffffff8211176104b657604052565b634e487b7160e01b600052604160045260246000fd5b604080516001600160a01b0390921660208301908152908201929092526104f681606081016100f5565b519020600052600060205260406000209060018060a01b0316600052602052600160ff6040600020541615151490565b60001981146105355760010190565b634e487b7160e01b600052601160045260246000fd5b919081101561055b5760051b0190565b634e487b7160e01b600052603260045260246000fd5b356001600160a01b038116810361045b579056fea2646970667358221220159e359618a14a245f01fc4179d7825e2b80a5bf22d0b50d7c115a36804a063f64736f6c63430008100033","opcodes":"PUSH1 0x80 DUP1 PUSH1 0x40 MSTORE CALLVALUE PUSH2 0x28 JUMPI PUSH1 0x4 DUP1 SLOAD PUSH1 0x1 PUSH1 0x1 PUSH1 0xA0 SHL SUB NOT AND CALLER OR SWAP1 SSTORE PUSH2 0x5BB SWAP1 DUP2 PUSH2 0x2E DUP3 CODECOPY RETURN JUMPDEST PUSH1 0x0 DUP1 REVERT INVALID PUSH1 0x80 PUSH1 0x40 DUP2 DUP2 MSTORE PUSH1 0x4 DUP1 CALLDATASIZE LT ISZERO PUSH2 0x15 JUMPI PUSH1 0x0 DUP1 REVERT JUMPDEST PUSH1 0x0 SWAP3 DUP4 CALLDATALOAD PUSH1 0xE0 SHR SWAP1 DUP2 PUSH4 0x36E256D1 EQ PUSH2 0x327 JUMPI POP DUP1 PUSH4 0x4923D518 EQ PUSH2 0x285 JUMPI DUP1 PUSH4 0x56D15DC8 EQ PUSH2 0x260 JUMPI DUP1 PUSH4 0x85E3F919 EQ PUSH2 0x1DF JUMPI DUP1 PUSH4 0xBF1C8478 EQ PUSH2 0x128 JUMPI DUP1 PUSH4 0xE5362667 EQ PUSH2 0xAF JUMPI PUSH4 0xFF6FEF7D EQ PUSH2 0x70 JUMPI PUSH1 0x0 DUP1 REVERT JUMPDEST CALLVALUE PUSH2 0xAB JUMPI DUP2 PUSH1 0x3 NOT CALLDATASIZE ADD SLT PUSH2 0xAB JUMPI PUSH1 0x1 PUSH1 0x1 PUSH1 0xA0 SHL SUB SWAP1 CALLDATALOAD DUP2 DUP2 AND SUB PUSH2 0xAB JUMPI PUSH1 0x24 CALLDATALOAD SWAP1 DUP2 AND SUB PUSH2 0xA7 JUMPI PUSH1 0x20 SWAP1 MLOAD PUSH1 0x1 DUP2 MSTORE RETURN JUMPDEST POP DUP1 REVERT JUMPDEST DUP3 DUP1 REVERT JUMPDEST POP POP CALLVALUE PUSH2 0xA7 JUMPI PUSH1 0x1 PUSH1 0xFF DUP3 PUSH1 0x20 SWAP5 PUSH2 0xF5 PUSH2 0x103 PUSH2 0xCD CALLDATASIZE PUSH2 0x460 JUMP JUMPDEST DUP7 MLOAD PUSH1 0x1 PUSH1 0x1 PUSH1 0xA0 SHL SUB SWAP1 SWAP4 AND DUP12 DUP5 ADD SWAP1 DUP2 MSTORE PUSH1 0x20 DUP2 ADD SWAP3 SWAP1 SWAP3 MSTORE SWAP4 SWAP1 SWAP3 SWAP1 DUP3 SWAP1 PUSH1 0x40 DUP6 ADD SWAP1 JUMP JUMPDEST SUB PUSH1 0x1F NOT DUP2 ADD DUP4 MSTORE DUP3 PUSH2 0x494 JUMP JUMPDEST MLOAD SWAP1 KECCAK256 DUP3 MSTORE PUSH1 0x2 DUP8 MSTORE DUP3 DUP3 KECCAK256 SWAP1 DUP6 DUP1 PUSH1 0xA0 SHL SUB AND DUP3 MSTORE DUP7 MSTORE KECCAK256 SLOAD AND ISZERO ISZERO EQ SWAP1 MLOAD SWAP1 DUP2 MSTORE RETURN JUMPDEST POP SWAP2 SWAP1 CALLVALUE PUSH2 0xA7 JUMPI PUSH2 0x139 CALLDATASIZE PUSH2 0x3F6 JUMP JUMPDEST SWAP6 PUSH2 0x148 SWAP4 SWAP2 SWAP4 CALLER DUP5 DUP5 PUSH2 0x4CC JUMP JUMPDEST ISZERO PUSH2 0x1D1 JUMPI POP DUP4 MLOAD PUSH1 0x1 PUSH1 0x1 PUSH1 0xA0 SHL SUB SWAP1 SWAP2 AND PUSH1 0x20 DUP1 DUP4 ADD SWAP2 DUP3 MSTORE PUSH1 0x40 DUP4 ADD SWAP4 SWAP1 SWAP4 MSTORE SWAP1 PUSH2 0x179 DUP2 PUSH1 0x60 DUP2 ADD PUSH2 0xF5 JUMP JUMPDEST MLOAD SWAP1 KECCAK256 DUP5 MSTORE PUSH1 0x2 DUP2 MSTORE DUP3 DUP5 KECCAK256 SWAP1 DUP5 JUMPDEST DUP7 DUP2 LT PUSH2 0x194 JUMPI DUP6 DUP6 MLOAD RETURN JUMPDEST PUSH2 0x1CC SWAP1 PUSH1 0x1 PUSH1 0x1 PUSH1 0xA0 SHL SUB PUSH2 0x1B3 PUSH2 0x1AE DUP4 DUP12 DUP10 PUSH2 0x54B JUMP JUMPDEST PUSH2 0x571 JUMP JUMPDEST AND DUP8 MSTORE DUP4 DUP4 MSTORE DUP6 DUP8 KECCAK256 DUP1 SLOAD PUSH1 0xFF NOT AND PUSH1 0x1 OR SWAP1 SSTORE PUSH2 0x526 JUMP JUMPDEST PUSH2 0x188 JUMP JUMPDEST DUP5 MLOAD PUSH4 0x7F3FBB5F PUSH1 0xE1 SHL DUP2 MSTORE REVERT JUMPDEST POP CALLVALUE PUSH2 0xAB JUMPI PUSH2 0x1EE CALLDATASIZE PUSH2 0x460 JUMP JUMPDEST SWAP3 PUSH1 0x1 PUSH1 0x1 PUSH1 0xA0 SHL SUB SWAP3 SWAP2 SWAP1 DUP4 DUP4 AND CALLER SUB PUSH2 0x252 JUMPI POP DUP5 MLOAD PUSH1 0x1 PUSH1 0x1 PUSH1 0xA0 SHL SUB SWAP1 SWAP3 AND PUSH1 0x20 DUP4 ADD SWAP1 DUP2 MSTORE PUSH1 0x40 DUP4 ADD SWAP2 SWAP1 SWAP2 MSTORE SWAP1 PUSH2 0x22E DUP2 PUSH1 0x60 DUP2 ADD PUSH2 0xF5 JUMP JUMPDEST MLOAD SWAP1 KECCAK256 DUP5 MSTORE DUP4 PUSH1 0x20 MSTORE DUP3 DUP5 KECCAK256 SWAP2 AND DUP4 MSTORE PUSH1 0x20 MSTORE DUP1 DUP3 KECCAK256 PUSH1 0x1 PUSH1 0xFF NOT DUP3 SLOAD AND OR SWAP1 SSTORE MLOAD RETURN JUMPDEST DUP6 MLOAD PUSH4 0xE23DE29 PUSH1 0xE2 SHL DUP2 MSTORE REVERT JUMPDEST POP POP CALLVALUE PUSH2 0xA7 JUMPI PUSH1 0x20 SWAP1 PUSH2 0x27C PUSH2 0x276 CALLDATASIZE PUSH2 0x460 JUMP JUMPDEST SWAP2 PUSH2 0x4CC JUMP JUMPDEST SWAP1 MLOAD SWAP1 ISZERO ISZERO DUP2 MSTORE RETURN JUMPDEST POP SWAP2 SWAP1 CALLVALUE PUSH2 0xA7 JUMPI PUSH2 0x296 CALLDATASIZE PUSH2 0x3F6 JUMP JUMPDEST DUP7 SLOAD SWAP1 SWAP7 SWAP2 SWAP4 PUSH1 0x1 PUSH1 0x1 PUSH1 0xA0 SHL SUB SWAP4 SWAP3 SWAP1 SWAP2 DUP5 AND CALLER SUB PUSH2 0x252 JUMPI POP DUP5 MLOAD PUSH1 0x1 PUSH1 0x1 PUSH1 0xA0 SHL SUB SWAP1 SWAP2 AND PUSH1 0x20 DUP1 DUP4 ADD SWAP2 DUP3 MSTORE PUSH1 0x40 DUP4 ADD SWAP4 SWAP1 SWAP4 MSTORE SWAP1 PUSH2 0x2DC DUP2 PUSH1 0x60 DUP2 ADD PUSH2 0xF5 JUMP JUMPDEST MLOAD SWAP1 KECCAK256 DUP6 MSTORE DUP5 DUP2 MSTORE DUP4 DUP6 KECCAK256 SWAP2 DUP6 JUMPDEST DUP8 DUP2 LT PUSH2 0x2F6 JUMPI DUP7 DUP7 MLOAD RETURN JUMPDEST DUP1 DUP3 PUSH2 0x309 PUSH2 0x1AE PUSH2 0x322 SWAP5 DUP13 DUP11 PUSH2 0x54B JUMP JUMPDEST AND DUP9 MSTORE DUP5 DUP5 MSTORE DUP7 DUP9 KECCAK256 DUP1 SLOAD PUSH1 0xFF NOT AND PUSH1 0x1 OR SWAP1 SSTORE PUSH2 0x526 JUMP JUMPDEST PUSH2 0x2EA JUMP JUMPDEST SWAP2 DUP5 SWAP2 POP CALLVALUE PUSH2 0xA7 JUMPI PUSH1 0x20 SWAP3 DUP4 PUSH1 0x3 NOT CALLDATASIZE ADD SLT PUSH2 0xAB JUMPI ADDRESS DUP5 DUP3 ADD SWAP1 DUP2 MSTORE SWAP2 CALLDATALOAD PUSH1 0x20 DUP4 ADD MSTORE SWAP3 SWAP4 SWAP3 PUSH2 0x35C DUP2 PUSH1 0x40 DUP5 ADD PUSH2 0xF5 JUMP JUMPDEST MLOAD SWAP1 KECCAK256 DUP2 MSTORE PUSH1 0x3 DUP4 MSTORE DUP2 DUP2 KECCAK256 SWAP1 DUP3 MLOAD DUP1 DUP6 DUP5 SLOAD SWAP2 DUP3 DUP2 MSTORE ADD SWAP1 DUP2 SWAP5 DUP5 MSTORE DUP7 DUP5 KECCAK256 SWAP1 DUP5 JUMPDEST DUP2 DUP2 LT PUSH2 0x3D9 JUMPI POP POP POP DUP2 PUSH2 0x395 SWAP2 SUB DUP3 PUSH2 0x494 JUMP JUMPDEST DUP4 MLOAD SWAP5 DUP6 SWAP5 DUP2 DUP7 ADD SWAP3 DUP3 DUP8 MSTORE MLOAD DUP1 SWAP4 MSTORE DUP6 ADD SWAP4 SWAP3 JUMPDEST DUP3 DUP2 LT PUSH2 0x3B9 JUMPI POP POP POP POP SUB SWAP1 RETURN JUMPDEST DUP4 MLOAD PUSH1 0x1 PUSH1 0x1 PUSH1 0xA0 SHL SUB AND DUP6 MSTORE DUP7 SWAP6 POP SWAP4 DUP2 ADD SWAP4 SWAP3 DUP2 ADD SWAP3 PUSH1 0x1 ADD PUSH2 0x3AA JUMP JUMPDEST DUP3 SLOAD PUSH1 0x1 PUSH1 0x1 PUSH1 0xA0 SHL SUB AND DUP5 MSTORE SWAP3 DUP9 ADD SWAP3 PUSH1 0x1 SWAP3 DUP4 ADD SWAP3 ADD PUSH2 0x37F JUMP JUMPDEST SWAP1 PUSH1 0x60 PUSH1 0x3 NOT DUP4 ADD SLT PUSH2 0x45B JUMPI PUSH1 0x4 CALLDATALOAD PUSH1 0x1 PUSH1 0x1 PUSH1 0xA0 SHL SUB DUP2 AND DUP2 SUB PUSH2 0x45B JUMPI SWAP2 PUSH1 0x24 CALLDATALOAD SWAP2 PUSH1 0x44 CALLDATALOAD PUSH8 0xFFFFFFFFFFFFFFFF SWAP3 DUP4 DUP3 GT PUSH2 0x45B JUMPI DUP1 PUSH1 0x23 DUP4 ADD SLT ISZERO PUSH2 0x45B JUMPI DUP2 PUSH1 0x4 ADD CALLDATALOAD SWAP4 DUP5 GT PUSH2 0x45B JUMPI PUSH1 0x24 DUP5 PUSH1 0x5 SHL DUP4 ADD ADD GT PUSH2 0x45B JUMPI PUSH1 0x24 ADD SWAP2 SWAP1 JUMP JUMPDEST PUSH1 0x0 DUP1 REVERT JUMPDEST PUSH1 0x60 SWAP1 PUSH1 0x3 NOT ADD SLT PUSH2 0x45B JUMPI PUSH1 0x1 PUSH1 0x1 PUSH1 0xA0 SHL SUB PUSH1 0x4 CALLDATALOAD DUP2 DUP2 AND DUP2 SUB PUSH2 0x45B JUMPI SWAP2 PUSH1 0x24 CALLDATALOAD SWAP2 PUSH1 0x44 CALLDATALOAD SWAP1 DUP2 AND DUP2 SUB PUSH2 0x45B JUMPI SWAP1 JUMP JUMPDEST SWAP1 PUSH1 0x1F DUP1 NOT SWAP2 ADD AND DUP2 ADD SWAP1 DUP2 LT PUSH8 0xFFFFFFFFFFFFFFFF DUP3 GT OR PUSH2 0x4B6 JUMPI PUSH1 0x40 MSTORE JUMP JUMPDEST PUSH4 0x4E487B71 PUSH1 0xE0 SHL PUSH1 0x0 MSTORE PUSH1 0x41 PUSH1 0x4 MSTORE PUSH1 0x24 PUSH1 0x0 REVERT JUMPDEST PUSH1 0x40 DUP1 MLOAD PUSH1 0x1 PUSH1 0x1 PUSH1 0xA0 SHL SUB SWAP1 SWAP3 AND PUSH1 0x20 DUP4 ADD SWAP1 DUP2 MSTORE SWAP1 DUP3 ADD SWAP3 SWAP1 SWAP3 MSTORE PUSH2 0x4F6 DUP2 PUSH1 0x60 DUP2 ADD PUSH2 0xF5 JUMP JUMPDEST MLOAD SWAP1 KECCAK256 PUSH1 0x0 MSTORE PUSH1 0x0 PUSH1 0x20 MSTORE PUSH1 0x40 PUSH1 0x0 KECCAK256 SWAP1 PUSH1 0x1 DUP1 PUSH1 0xA0 SHL SUB AND PUSH1 0x0 MSTORE PUSH1 0x20 MSTORE PUSH1 0x1 PUSH1 0xFF PUSH1 0x40 PUSH1 0x0 KECCAK256 SLOAD AND ISZERO ISZERO EQ SWAP1 JUMP JUMPDEST PUSH1 0x0 NOT DUP2 EQ PUSH2 0x535 JUMPI PUSH1 0x1 ADD SWAP1 JUMP JUMPDEST PUSH4 0x4E487B71 PUSH1 0xE0 SHL PUSH1 0x0 MSTORE PUSH1 0x11 PUSH1 0x4 MSTORE PUSH1 0x24 PUSH1 0x0 REVERT JUMPDEST SWAP2 SWAP1 DUP2 LT ISZERO PUSH2 0x55B JUMPI PUSH1 0x5 SHL ADD SWAP1 JUMP JUMPDEST PUSH4 0x4E487B71 PUSH1 0xE0 SHL PUSH1 0x0 MSTORE PUSH1 0x32 PUSH1 0x4 MSTORE PUSH1 0x24 PUSH1 0x0 REVERT JUMPDEST CALLDATALOAD PUSH1 0x1 PUSH1 0x1 PUSH1 0xA0 SHL SUB DUP2 AND DUP2 SUB PUSH2 0x45B JUMPI SWAP1 JUMP INVALID LOG2 PUSH5 0x6970667358 0x22 SLT KECCAK256 ISZERO SWAP15 CALLDATALOAD SWAP7 XOR LOG1 0x4A 0x24 0x5F ADD 0xFC COINBASE PUSH26 0xD7825E2B80A5BF22D0B50D7C115A36804A063F64736F6C634300 ADDMOD LT STOP CALLER "},"methodIdentifiers":{"canCreatePoll(address,address)":"ff6fef7d","canManagePoll(address,bytes32,address)":"56d15dc8","canVoteOnPoll(address,bytes32,address)":"e5362667","listEligibleVoters(bytes32)":"36e256d1","onPollCreated(address,bytes32,address)":"85e3f919","setEligibleVoters(address,bytes32,address[])":"bf1c8478","setPollManagers(address,bytes32,address[])":"4923d518"}}}}}