{"contracts/AllowVotersACLv1.sol":{"AllowVotersACLv1":{"abi":[{"inputs":[],"stateMutability":"nonpayable","type":"constructor"},{"inputs":[],"name":"ACLManagementNotAllowed","type":"error"},{"inputs":[],"name":"PollCreationNotAllowed","type":"error"},{"inputs":[],"name":"PollManagementNotAllowed","type":"error"},{"inputs":[],"name":"VoteNotAllowed","type":"error"},{"inputs":[{"internalType":"address","name":"","type":"address"},{"internalType":"address","name":"","type":"address"}],"name":"canCreatePoll","outputs":[{"internalType":"bool","name":"","type":"bool"}],"stateMutability":"pure","type":"function"},{"inputs":[{"internalType":"address","name":"dao","type":"address"},{"internalType":"ProposalId","name":"proposalId","type":"bytes32"},{"internalType":"address","name":"user","type":"address"}],"name":"canManagePoll","outputs":[{"internalType":"bool","name":"","type":"bool"}],"stateMutability":"view","type":"function"},{"inputs":[{"internalType":"address","name":"","type":"address"},{"internalType":"ProposalId","name":"","type":"bytes32"},{"internalType":"address","name":"","type":"address"}],"name":"canVoteOnPoll","outputs":[{"internalType":"bool","name":"","type":"bool"}],"stateMutability":"pure","type":"function"},{"inputs":[{"internalType":"address","name":"dao","type":"address"},{"internalType":"ProposalId","name":"proposalId","type":"bytes32"},{"internalType":"address","name":"creator","type":"address"}],"name":"onPollCreated","outputs":[],"stateMutability":"nonpayable","type":"function"},{"inputs":[{"internalType":"address","name":"dao","type":"address"},{"internalType":"ProposalId","name":"proposalId","type":"bytes32"},{"internalType":"address[]","name":"admins","type":"address[]"}],"name":"setPollManagers","outputs":[],"stateMutability":"nonpayable","type":"function"}],"evm":{"bytecode":{"linkReferences":{},"object":"6080806040523461002857600480546001600160a01b03191633179055610380908161002e8239f35b600080fdfe608060408181526004918236101561001657600080fd5b600092833560e01c9182634923d518146101ab5750816356d15dc81461014157816385e3f919146100b157508063e5362667146100955763ff6fef7d1461005c57600080fd5b346100915780600319360112610091576100746102c3565b506024356001600160a01b03811603610091576020905160018152f35b5080fd5b5034610091576020906100a7366102de565b5050505160018152f35b90503461013d576100c1366102de565b926001600160a01b03929190838316330361012f575084516001600160a01b039092166020830190815260408301919091529061010b81606081015b03601f198101835282610312565b51902084528360205282842091168352602052808220600160ff1982541617905551f35b8551630e23de2960e21b8152fd5b8280fd5b50503461009157600160ff826020946100fd61018761015f366102de565b86516001600160a01b039093168b840190815260208101929092529390929082906040850190565b519020825281875282822090858060a01b0316825286522054161515149051908152f35b9150346102bf5760603660031901126102bf576101c66102c3565b9060443567ffffffffffffffff928382116102bb57366023830112156102bb57818301359384116102bb57602494600592368787861b830101116102b75784546001600160a01b039290831633036102a9575087516001600160a01b039093166020808501918252883560408601529361024381606081016100fd565b519020895288835287892093895b87811061025d578a8a51f35b8881831b840101358481168091036102a5578b52858552898b20805460ff19166001179055600019811461029357600101610251565b634e487b7160e01b8b5260118752888bfd5b8b80fd5b630e23de2960e21b81528590fd5b8880fd5b8680fd5b8380fd5b600435906001600160a01b03821682036102d957565b600080fd5b60609060031901126102d9576001600160a01b0360043581811681036102d957916024359160443590811681036102d95790565b90601f8019910116810190811067ffffffffffffffff82111761033457604052565b634e487b7160e01b600052604160045260246000fdfea2646970667358221220dabfbc11e67d5fb47664b48cef28c4eb7f0cc62be026cdeae6c3312cd50979ce64736f6c63430008100033","opcodes":"PUSH1 0x80 DUP1 PUSH1 0x40 MSTORE CALLVALUE PUSH2 0x28 JUMPI PUSH1 0x4 DUP1 SLOAD PUSH1 0x1 PUSH1 0x1 PUSH1 0xA0 SHL SUB NOT AND CALLER OR SWAP1 SSTORE PUSH2 0x380 SWAP1 DUP2 PUSH2 0x2E DUP3 CODECOPY RETURN JUMPDEST PUSH1 0x0 DUP1 REVERT INVALID PUSH1 0x80 PUSH1 0x40 DUP2 DUP2 MSTORE PUSH1 0x4 SWAP2 DUP3 CALLDATASIZE LT ISZERO PUSH2 0x16 JUMPI PUSH1 0x0 DUP1 REVERT JUMPDEST PUSH1 0x0 SWAP3 DUP4 CALLDATALOAD PUSH1 0xE0 SHR SWAP2 DUP3 PUSH4 0x4923D518 EQ PUSH2 0x1AB JUMPI POP DUP2 PUSH4 0x56D15DC8 EQ PUSH2 0x141 JUMPI DUP2 PUSH4 0x85E3F919 EQ PUSH2 0xB1 JUMPI POP DUP1 PUSH4 0xE5362667 EQ PUSH2 0x95 JUMPI PUSH4 0xFF6FEF7D EQ PUSH2 0x5C JUMPI PUSH1 0x0 DUP1 REVERT JUMPDEST CALLVALUE PUSH2 0x91 JUMPI DUP1 PUSH1 0x3 NOT CALLDATASIZE ADD SLT PUSH2 0x91 JUMPI PUSH2 0x74 PUSH2 0x2C3 JUMP JUMPDEST POP PUSH1 0x24 CALLDATALOAD PUSH1 0x1 PUSH1 0x1 PUSH1 0xA0 SHL SUB DUP2 AND SUB PUSH2 0x91 JUMPI PUSH1 0x20 SWAP1 MLOAD PUSH1 0x1 DUP2 MSTORE RETURN JUMPDEST POP DUP1 REVERT JUMPDEST POP CALLVALUE PUSH2 0x91 JUMPI PUSH1 0x20 SWAP1 PUSH2 0xA7 CALLDATASIZE PUSH2 0x2DE JUMP JUMPDEST POP POP POP MLOAD PUSH1 0x1 DUP2 MSTORE RETURN JUMPDEST SWAP1 POP CALLVALUE PUSH2 0x13D JUMPI PUSH2 0xC1 CALLDATASIZE PUSH2 0x2DE JUMP JUMPDEST SWAP3 PUSH1 0x1 PUSH1 0x1 PUSH1 0xA0 SHL SUB SWAP3 SWAP2 SWAP1 DUP4 DUP4 AND CALLER SUB PUSH2 0x12F JUMPI POP DUP5 MLOAD PUSH1 0x1 PUSH1 0x1 PUSH1 0xA0 SHL SUB SWAP1 SWAP3 AND PUSH1 0x20 DUP4 ADD SWAP1 DUP2 MSTORE PUSH1 0x40 DUP4 ADD SWAP2 SWAP1 SWAP2 MSTORE SWAP1 PUSH2 0x10B DUP2 PUSH1 0x60 DUP2 ADD JUMPDEST SUB PUSH1 0x1F NOT DUP2 ADD DUP4 MSTORE DUP3 PUSH2 0x312 JUMP JUMPDEST MLOAD SWAP1 KECCAK256 DUP5 MSTORE DUP4 PUSH1 0x20 MSTORE DUP3 DUP5 KECCAK256 SWAP2 AND DUP4 MSTORE PUSH1 0x20 MSTORE DUP1 DUP3 KECCAK256 PUSH1 0x1 PUSH1 0xFF NOT DUP3 SLOAD AND OR SWAP1 SSTORE MLOAD RETURN JUMPDEST DUP6 MLOAD PUSH4 0xE23DE29 PUSH1 0xE2 SHL DUP2 MSTORE REVERT JUMPDEST DUP3 DUP1 REVERT JUMPDEST POP POP CALLVALUE PUSH2 0x91 JUMPI PUSH1 0x1 PUSH1 0xFF DUP3 PUSH1 0x20 SWAP5 PUSH2 0xFD PUSH2 0x187 PUSH2 0x15F CALLDATASIZE PUSH2 0x2DE JUMP JUMPDEST DUP7 MLOAD PUSH1 0x1 PUSH1 0x1 PUSH1 0xA0 SHL SUB SWAP1 SWAP4 AND DUP12 DUP5 ADD SWAP1 DUP2 MSTORE PUSH1 0x20 DUP2 ADD SWAP3 SWAP1 SWAP3 MSTORE SWAP4 SWAP1 SWAP3 SWAP1 DUP3 SWAP1 PUSH1 0x40 DUP6 ADD SWAP1 JUMP JUMPDEST MLOAD SWAP1 KECCAK256 DUP3 MSTORE DUP2 DUP8 MSTORE DUP3 DUP3 KECCAK256 SWAP1 DUP6 DUP1 PUSH1 0xA0 SHL SUB AND DUP3 MSTORE DUP7 MSTORE KECCAK256 SLOAD AND ISZERO ISZERO EQ SWAP1 MLOAD SWAP1 DUP2 MSTORE RETURN JUMPDEST SWAP2 POP CALLVALUE PUSH2 0x2BF JUMPI PUSH1 0x60 CALLDATASIZE PUSH1 0x3 NOT ADD SLT PUSH2 0x2BF JUMPI PUSH2 0x1C6 PUSH2 0x2C3 JUMP JUMPDEST SWAP1 PUSH1 0x44 CALLDATALOAD PUSH8 0xFFFFFFFFFFFFFFFF SWAP3 DUP4 DUP3 GT PUSH2 0x2BB JUMPI CALLDATASIZE PUSH1 0x23 DUP4 ADD SLT ISZERO PUSH2 0x2BB JUMPI DUP2 DUP4 ADD CALLDATALOAD SWAP4 DUP5 GT PUSH2 0x2BB JUMPI PUSH1 0x24 SWAP5 PUSH1 0x5 SWAP3 CALLDATASIZE DUP8 DUP8 DUP7 SHL DUP4 ADD ADD GT PUSH2 0x2B7 JUMPI DUP5 SLOAD PUSH1 0x1 PUSH1 0x1 PUSH1 0xA0 SHL SUB SWAP3 SWAP1 DUP4 AND CALLER SUB PUSH2 0x2A9 JUMPI POP DUP8 MLOAD PUSH1 0x1 PUSH1 0x1 PUSH1 0xA0 SHL SUB SWAP1 SWAP4 AND PUSH1 0x20 DUP1 DUP6 ADD SWAP2 DUP3 MSTORE DUP9 CALLDATALOAD PUSH1 0x40 DUP7 ADD MSTORE SWAP4 PUSH2 0x243 DUP2 PUSH1 0x60 DUP2 ADD PUSH2 0xFD JUMP JUMPDEST MLOAD SWAP1 KECCAK256 DUP10 MSTORE DUP9 DUP4 MSTORE DUP8 DUP10 KECCAK256 SWAP4 DUP10 JUMPDEST DUP8 DUP2 LT PUSH2 0x25D JUMPI DUP11 DUP11 MLOAD RETURN JUMPDEST DUP9 DUP2 DUP4 SHL DUP5 ADD ADD CALLDATALOAD DUP5 DUP2 AND DUP1 SWAP2 SUB PUSH2 0x2A5 JUMPI DUP12 MSTORE DUP6 DUP6 MSTORE DUP10 DUP12 KECCAK256 DUP1 SLOAD PUSH1 0xFF NOT AND PUSH1 0x1 OR SWAP1 SSTORE PUSH1 0x0 NOT DUP2 EQ PUSH2 0x293 JUMPI PUSH1 0x1 ADD PUSH2 0x251 JUMP JUMPDEST PUSH4 0x4E487B71 PUSH1 0xE0 SHL DUP12 MSTORE PUSH1 0x11 DUP8 MSTORE DUP9 DUP12 REVERT JUMPDEST DUP12 DUP1 REVERT JUMPDEST PUSH4 0xE23DE29 PUSH1 0xE2 SHL DUP2 MSTORE DUP6 SWAP1 REVERT JUMPDEST DUP9 DUP1 REVERT JUMPDEST DUP7 DUP1 REVERT JUMPDEST DUP4 DUP1 REVERT JUMPDEST PUSH1 0x4 CALLDATALOAD SWAP1 PUSH1 0x1 PUSH1 0x1 PUSH1 0xA0 SHL SUB DUP3 AND DUP3 SUB PUSH2 0x2D9 JUMPI JUMP JUMPDEST PUSH1 0x0 DUP1 REVERT JUMPDEST PUSH1 0x60 SWAP1 PUSH1 0x3 NOT ADD SLT PUSH2 0x2D9 JUMPI PUSH1 0x1 PUSH1 0x1 PUSH1 0xA0 SHL SUB PUSH1 0x4 CALLDATALOAD DUP2 DUP2 AND DUP2 SUB PUSH2 0x2D9 JUMPI SWAP2 PUSH1 0x24 CALLDATALOAD SWAP2 PUSH1 0x44 CALLDATALOAD SWAP1 DUP2 AND DUP2 SUB PUSH2 0x2D9 JUMPI SWAP1 JUMP JUMPDEST SWAP1 PUSH1 0x1F DUP1 NOT SWAP2 ADD AND DUP2 ADD SWAP1 DUP2 LT PUSH8 0xFFFFFFFFFFFFFFFF DUP3 GT OR PUSH2 0x334 JUMPI PUSH1 0x40 MSTORE JUMP JUMPDEST PUSH4 0x4E487B71 PUSH1 0xE0 SHL PUSH1 0x0 MSTORE PUSH1 0x41 PUSH1 0x4 MSTORE PUSH1 0x24 PUSH1 0x0 REVERT INVALID LOG2 PUSH5 0x6970667358 0x22 SLT KECCAK256 0xDA 0xBF 0xBC GT 0xE6 PUSH30 0x5FB47664B48CEF28C4EB7F0CC62BE026CDEAE6C3312CD50979CE64736F6C PUSH4 0x43000810 STOP CALLER "},"methodIdentifiers":{"canCreatePoll(address,address)":"ff6fef7d","canManagePoll(address,bytes32,address)":"56d15dc8","canVoteOnPoll(address,bytes32,address)":"e5362667","onPollCreated(address,bytes32,address)":"85e3f919","setPollManagers(address,bytes32,address[])":"4923d518"}}}}}