{"contracts/AllowAllACLv1.sol":{"AllowAllACLv1":{"abi":[{"inputs":[],"name":"ACLManagementNotAllowed","type":"error"},{"inputs":[],"name":"PollCreationNotAllowed","type":"error"},{"inputs":[],"name":"PollManagementNotAllowed","type":"error"},{"inputs":[],"name":"VoteNotAllowed","type":"error"},{"inputs":[{"internalType":"address","name":"","type":"address"},{"internalType":"address","name":"","type":"address"}],"name":"canCreatePoll","outputs":[{"internalType":"bool","name":"","type":"bool"}],"stateMutability":"pure","type":"function"},{"inputs":[{"internalType":"address","name":"","type":"address"},{"internalType":"ProposalId","name":"","type":"bytes32"},{"internalType":"address","name":"","type":"address"}],"name":"canManagePoll","outputs":[{"internalType":"bool","name":"","type":"bool"}],"stateMutability":"pure","type":"function"},{"inputs":[{"internalType":"address","name":"","type":"address"},{"internalType":"ProposalId","name":"","type":"bytes32"},{"internalType":"address","name":"","type":"address"}],"name":"canVoteOnPoll","outputs":[{"internalType":"bool","name":"","type":"bool"}],"stateMutability":"pure","type":"function"},{"inputs":[{"internalType":"address","name":"dao","type":"address"},{"internalType":"ProposalId","name":"proposalId","type":"bytes32"},{"internalType":"address","name":"creator","type":"address"}],"name":"onPollCreated","outputs":[],"stateMutability":"nonpayable","type":"function"}],"evm":{"bytecode":{"linkReferences":{},"object":"608080604052346100165761011f908161001c8239f35b600080fdfe60806040526004361015601157600080fd5b6000803560e01c806356d15dc814608257806385e3f91914608a578063e53626671460825763ff6fef7d146045575b600080fd5b34607b576040366003190112607b576001600160a01b0360043581811603607e5760243590811603607b57602060405160018152f35b80fd5b5080fd5b5050604060cf565b5034607b57609636609e565b505050604051f35b60609060031901126040576001600160a01b0360043581811681036040579160243591604435908116810360405790565b503460405760db36609e565b505050602060405160018152f3fea2646970667358221220cf7e93e78aa4bc92124a192929c12c65bcf966963fa9955e19c9feea1a942ff064736f6c63430008100033","opcodes":"PUSH1 0x80 DUP1 PUSH1 0x40 MSTORE CALLVALUE PUSH2 0x16 JUMPI PUSH2 0x11F SWAP1 DUP2 PUSH2 0x1C DUP3 CODECOPY RETURN JUMPDEST PUSH1 0x0 DUP1 REVERT INVALID PUSH1 0x80 PUSH1 0x40 MSTORE PUSH1 0x4 CALLDATASIZE LT ISZERO PUSH1 0x11 JUMPI PUSH1 0x0 DUP1 REVERT JUMPDEST PUSH1 0x0 DUP1 CALLDATALOAD PUSH1 0xE0 SHR DUP1 PUSH4 0x56D15DC8 EQ PUSH1 0x82 JUMPI DUP1 PUSH4 0x85E3F919 EQ PUSH1 0x8A JUMPI DUP1 PUSH4 0xE5362667 EQ PUSH1 0x82 JUMPI PUSH4 0xFF6FEF7D EQ PUSH1 0x45 JUMPI JUMPDEST PUSH1 0x0 DUP1 REVERT JUMPDEST CALLVALUE PUSH1 0x7B JUMPI PUSH1 0x40 CALLDATASIZE PUSH1 0x3 NOT ADD SLT PUSH1 0x7B JUMPI PUSH1 0x1 PUSH1 0x1 PUSH1 0xA0 SHL SUB PUSH1 0x4 CALLDATALOAD DUP2 DUP2 AND SUB PUSH1 0x7E JUMPI PUSH1 0x24 CALLDATALOAD SWAP1 DUP2 AND SUB PUSH1 0x7B JUMPI PUSH1 0x20 PUSH1 0x40 MLOAD PUSH1 0x1 DUP2 MSTORE RETURN JUMPDEST DUP1 REVERT JUMPDEST POP DUP1 REVERT JUMPDEST POP POP PUSH1 0x40 PUSH1 0xCF JUMP JUMPDEST POP CALLVALUE PUSH1 0x7B JUMPI PUSH1 0x96 CALLDATASIZE PUSH1 0x9E JUMP JUMPDEST POP POP POP PUSH1 0x40 MLOAD RETURN JUMPDEST PUSH1 0x60 SWAP1 PUSH1 0x3 NOT ADD SLT PUSH1 0x40 JUMPI PUSH1 0x1 PUSH1 0x1 PUSH1 0xA0 SHL SUB PUSH1 0x4 CALLDATALOAD DUP2 DUP2 AND DUP2 SUB PUSH1 0x40 JUMPI SWAP2 PUSH1 0x24 CALLDATALOAD SWAP2 PUSH1 0x44 CALLDATALOAD SWAP1 DUP2 AND DUP2 SUB PUSH1 0x40 JUMPI SWAP1 JUMP JUMPDEST POP CALLVALUE PUSH1 0x40 JUMPI PUSH1 0xDB CALLDATASIZE PUSH1 0x9E JUMP JUMPDEST POP POP POP PUSH1 0x20 PUSH1 0x40 MLOAD PUSH1 0x1 DUP2 MSTORE RETURN INVALID LOG2 PUSH5 0x6970667358 0x22 SLT KECCAK256 0xCF PUSH31 0x93E78AA4BC92124A192929C12C65BCF966963FA9955E19C9FEEA1A942FF064 PUSH20 0x6F6C634300081000330000000000000000000000 "},"methodIdentifiers":{"canCreatePoll(address,address)":"ff6fef7d","canManagePoll(address,bytes32,address)":"56d15dc8","canVoteOnPoll(address,bytes32,address)":"e5362667","onPollCreated(address,bytes32,address)":"85e3f919"}}}}}