{"contracts/DAOv1.sol":{"DAOv1":{"abi":[{"inputs":[{"internalType":"contract PollACLv1","name":"in_acl","type":"address"},{"internalType":"address","name":"in_proxyVoter","type":"address"}],"stateMutability":"nonpayable","type":"constructor"},{"inputs":[],"name":"AlreadyExists","type":"error"},{"inputs":[],"name":"AlreadyVoted","type":"error"},{"inputs":[],"name":"NoChoices","type":"error"},{"inputs":[],"name":"NotActive","type":"error"},{"inputs":[],"name":"NotPublishingVotes","type":"error"},{"inputs":[],"name":"PollCreationNotAllowed","type":"error"},{"inputs":[],"name":"PollManagementNotAllowed","type":"error"},{"inputs":[],"name":"StillActive","type":"error"},{"inputs":[],"name":"TooManyChoices","type":"error"},{"inputs":[],"name":"UnknownChoice","type":"error"},{"inputs":[],"name":"VoteNotAllowed","type":"error"},{"anonymous":false,"inputs":[{"indexed":true,"internalType":"ProposalId","name":"id","type":"bytes32"},{"indexed":false,"internalType":"uint256","name":"topChoice","type":"uint256"}],"name":"ProposalClosed","type":"event"},{"anonymous":false,"inputs":[{"indexed":false,"internalType":"ProposalId","name":"id","type":"bytes32"}],"name":"ProposalCreated","type":"event"},{"inputs":[{"internalType":"ProposalId","name":"id","type":"bytes32"}],"name":"ballotIsActive","outputs":[{"internalType":"bool","name":"","type":"bool"}],"stateMutability":"view","type":"function"},{"inputs":[{"internalType":"ProposalId","name":"proposalId","type":"bytes32"},{"internalType":"uint256","name":"choiceIdBig","type":"uint256"}],"name":"castVote","outputs":[],"stateMutability":"nonpayable","type":"function"},{"inputs":[{"internalType":"ProposalId","name":"proposalId","type":"bytes32"}],"name":"closeProposal","outputs":[],"stateMutability":"nonpayable","type":"function"},{"inputs":[{"components":[{"internalType":"string","name":"ipfsHash","type":"string"},{"internalType":"uint16","name":"numChoices","type":"uint16"},{"internalType":"bool","name":"publishVotes","type":"bool"}],"internalType":"struct ProposalParams","name":"_params","type":"tuple"}],"name":"createProposal","outputs":[{"internalType":"ProposalId","name":"","type":"bytes32"}],"stateMutability":"nonpayable","type":"function"},{"inputs":[],"name":"getACL","outputs":[{"internalType":"contract PollACLv1","name":"","type":"address"}],"stateMutability":"view","type":"function"},{"inputs":[{"internalType":"uint256","name":"_offset","type":"uint256"},{"internalType":"uint256","name":"_count","type":"uint256"}],"name":"getActiveProposals","outputs":[{"components":[{"internalType":"ProposalId","name":"id","type":"bytes32"},{"components":[{"internalType":"bool","name":"active","type":"bool"},{"components":[{"internalType":"string","name":"ipfsHash","type":"string"},{"internalType":"uint16","name":"numChoices","type":"uint16"},{"internalType":"bool","name":"publishVotes","type":"bool"}],"internalType":"struct ProposalParams","name":"params","type":"tuple"},{"internalType":"uint8","name":"topChoice","type":"uint8"}],"internalType":"struct DAOv1.Proposal","name":"proposal","type":"tuple"}],"internalType":"struct DAOv1.ProposalWithId[]","name":"_proposals","type":"tuple[]"}],"stateMutability":"view","type":"function"},{"inputs":[{"internalType":"uint256","name":"_offset","type":"uint256"},{"internalType":"uint256","name":"_count","type":"uint256"}],"name":"getPastProposals","outputs":[{"components":[{"internalType":"ProposalId","name":"id","type":"bytes32"},{"components":[{"internalType":"bool","name":"active","type":"bool"},{"components":[{"internalType":"string","name":"ipfsHash","type":"string"},{"internalType":"uint16","name":"numChoices","type":"uint16"},{"internalType":"bool","name":"publishVotes","type":"bool"}],"internalType":"struct ProposalParams","name":"params","type":"tuple"},{"internalType":"uint8","name":"topChoice","type":"uint8"}],"internalType":"struct DAOv1.Proposal","name":"proposal","type":"tuple"}],"internalType":"struct DAOv1.ProposalWithId[]","name":"_proposals","type":"tuple[]"}],"stateMutability":"view","type":"function"},{"inputs":[{"internalType":"ProposalId","name":"proposalId","type":"bytes32"}],"name":"getVoteCounts","outputs":[{"internalType":"uint256[]","name":"","type":"uint256[]"}],"stateMutability":"view","type":"function"},{"inputs":[{"internalType":"ProposalId","name":"proposalId","type":"bytes32"},{"internalType":"address","name":"voter","type":"address"}],"name":"getVoteOf","outputs":[{"components":[{"internalType":"bool","name":"exists","type":"bool"},{"internalType":"uint8","name":"choice","type":"uint8"}],"internalType":"struct DAOv1.Choice","name":"","type":"tuple"}],"stateMutability":"view","type":"function"},{"inputs":[{"internalType":"ProposalId","name":"proposalId","type":"bytes32"}],"name":"getVotes","outputs":[{"internalType":"address[]","name":"","type":"address[]"},{"internalType":"uint8[]","name":"","type":"uint8[]"}],"stateMutability":"view","type":"function"},{"inputs":[{"internalType":"uint256","name":"","type":"uint256"}],"name":"pastProposals","outputs":[{"internalType":"ProposalId","name":"","type":"bytes32"}],"stateMutability":"view","type":"function"},{"inputs":[{"internalType":"ProposalId","name":"","type":"bytes32"}],"name":"proposals","outputs":[{"internalType":"bool","name":"active","type":"bool"},{"components":[{"internalType":"string","name":"ipfsHash","type":"string"},{"internalType":"uint16","name":"numChoices","type":"uint16"},{"internalType":"bool","name":"publishVotes","type":"bool"}],"internalType":"struct ProposalParams","name":"params","type":"tuple"},{"internalType":"uint8","name":"topChoice","type":"uint8"}],"stateMutability":"view","type":"function"},{"inputs":[{"internalType":"address","name":"voter","type":"address"},{"internalType":"ProposalId","name":"proposalId","type":"bytes32"},{"internalType":"uint256","name":"choiceIdBig","type":"uint256"}],"name":"proxyVote","outputs":[],"stateMutability":"nonpayable","type":"function"},{"inputs":[],"name":"proxyVoter","outputs":[{"internalType":"address","name":"","type":"address"}],"stateMutability":"view","type":"function"},{"inputs":[{"internalType":"bytes4","name":"interfaceID","type":"bytes4"}],"name":"supportsInterface","outputs":[{"internalType":"bool","name":"","type":"bool"}],"stateMutability":"pure","type":"function"}],"evm":{"bytecode":{"linkReferences":{},"object":"60a0346200011d576001600160401b03601f62001c2638819003918201601f191684019183831185841017620000fe5780859260409485528339810103126200011d5781516001600160a01b0380821693909291908482036200011d5760200151938385168095036200011d576200011457506040519061013b9081830190811183821017620000fe57829162001aeb833903906000f08015620000f257165b608052600180546001600160a01b0319169190911790556040516119c8908162000123823960805181818161075201528181610a5e01528181610abe01528181610db301528181610e2901526115570152f35b6040513d6000823e3d90fd5b634e487b7160e01b600052604160045260246000fd5b9150506200009f565b600080fdfe608080604052600436101561001357600080fd5b60003560e01c90816301ffc9a714610ffa57508063078f872c14610de25780630873769514610d9d5780630879a53414610d545780630c24af8014610c895780632610c0f0146106d057806332ed5b121461066e5780634c051100146104315780635f98ac781461040057806375a12d72146103e0578063782fb5d4146102cd578063cb16128b1461027c578063d58f7399146101b6578063eb22efee1461018d5763f429273b146100c457600080fd5b34610188576100d236611065565b816100dd828261140e565b600554809111610177575b50506100f381611440565b9160005b828110610110576040518061010c86826110e1565b0390f35b80610126610121610172938561140e565b6112cb565b90549060031b1c8060005260206002815261015360406000206040519361014c856111b0565b84526114d4565b90820152610161828761150a565b5261016c818661150a565b50611389565b6100f7565b610181925061141b565b81386100e8565b600080fd5b34610188576000366003190112610188576001546040516001600160a01b039091168152602090f35b34610188576060366003190112610188576004356001600160a01b038082168203610188573315610243576001541633036101fe576101fc90604435906024359061151e565b005b60405162461bcd60e51b815260206004820152601e60248201527f43616e6e6f742063616c6c2070726f7879566f7465206469726563746c7900006044820152606490fd5b60405162461bcd60e51b81526020600482015260116024820152701516081b5d5cdd081899481cda59db9959607a1b6044820152606490fd5b34610188576020366003190112610188576004356005548110156101885760209060056000527f036b6384b5eca791c62761152d0c79bb0604c104a5fb6f4eb0703f3154bb3db00154604051908152f35b3461018857602080600319360112610188576004356000526002815260406000206000825260ff60406000209154166103ce57604051610420810181811067ffffffffffffffff8211176103b85760409392935281815281810191610400368437600260009401935b8251811015610374578061034d61036f9287611398565b905460039190911b1c6001600160ff1b0316610369828661150a565b52611389565b610336565b50925090604051928392818401908285525180915260408401929160005b8281106103a157505050500390f35b835185528695509381019392810192600101610392565b634e487b7160e01b600052604160045260246000fd5b60405163785bbc6d60e11b8152600490fd5b34610188576040366003190112610188576101fc6024356004353361151e565b34610188576020366003190112610188576004356000526002602052602060ff604060002054166040519015158152f35b34610188576020806003193601126101885760043580600052600282526040600020906000835260406000209260ff9283600282015460101c161561065c575483166103ce578383600180920180549361048a85611428565b61049760405191826111e8565b8581526104a386611428565b8183019790601f190136893760005b87811061057d57505060405195828782815201908194600052836000209060005b81811061056157505050866104e99103876111e8565b604051956040870190604088525180915260608701939060005b81811061054557505050858303868301525180835291810195926000905b83821061052e5786880387f35b845181168852968201969382019390850190610521565b82516001600160a01b0316865294840194918401918701610503565b82546001600160a01b03168452928501929188019188016104d3565b61058d81869795969a989a611339565b919054916040519263021e694d60e21b845284600485015260018060a01b039160031b1c166024830152604082604481305afa8015610650578686916000906105ef575b6105e39450015116610369828661150a565b979597949392946104b2565b5050506040823d604011610648575b8161060b604093836111e8565b81010312610188578560405192610621846111b0565b61062a81611360565b845201519185831683036101885786816105e39482899401526105d1565b3d91506105fe565b6040513d6000823e3d90fd5b6040516388310bad60e01b8152600490fd5b34610188576020366003190112610188576004356000526002602052604060002060ff81541660ff60036106a46001850161120a565b930154166106c66040519384931515845260606020850152606084019061107b565b9060408301520390f35b3461018857600319602036820112610188576004359067ffffffffffffffff8211610188576060823603918201126101885761ffff61071160248401611351565b1615610c7757602061ffff61072860248501611351565b1611610c655760405160016290108360e01b031981523060048201523360248201526020816044817f00000000000000000000000000000000000000000000000000000000000000006001600160a01b03165afa90811561065057600091610c2b575b5015610c1957604051602081019033825260408082015283600401359260221901831215610188578383016024600482013591019067ffffffffffffffff811161018857803603821361018857828160e092610838946060808501528160c085015284840137600083828401015261ffff61080860248a0161136d565b16608083015261081a6044890161137c565b151560a0830152601f801991011681010360c08101845201826111e8565b5190209081600052600260205260ff60406000205416610c075760405161085e816111cc565b600181526040519161086f836111cc565b67ffffffffffffffff8111610188573660238287010112156101885767ffffffffffffffff60048287010135116103b857604051906108be86820160040135601f01601f1916602001836111e8565b858101600481013580845236910160240111610188576020600482816000948a0101356024828b010184870137880101358301015282526109016024850161136d565b60208301526109126044850161137c565b604083015260208101918252600060408201528260005260026020526040600020918151151560ff8019855416911617835551805180519067ffffffffffffffff82116103b85781906109686001870154611176565b601f8111610bb4575b50602090601f8311600114610b4457600092610b39575b50508160011b916000199060031b1c19161760018401559392935b600283019061ffff60208201511662ff000060408454930151151560101b169162ffffff19161717905560ff604060038094019201511660ff198254161790556109ec836113a8565b50826000526000602052604060002092600260009401935b61ffff610a1360248601611351565b16811015610a5b57610a136024610a5283610a3161ffff958a611398565b8154600019918a1b91821b8019909116600160ff1b90921b16179055611389565b92505050610a04565b507f00000000000000000000000000000000000000000000000000000000000000006001600160a01b03163b15610188576040516385e3f91960e01b81523060048201526024810182905233604482015290600082606481836001600160a01b037f0000000000000000000000000000000000000000000000000000000000000000165af1801561065057610b1f575b6020907f288a29bca04edb18fcdb2c76d6e3b03b8a137c85c70d1a4cb8aacfa868d6051082604051838152a1604051908152f35b67ffffffffffffffff82116103b857602091604052610aeb565b015190508780610988565b600187016000908152602081209350601f198516905b818110610b9c5750908460019594939210610b83575b505050811b0160018401559392936109a3565b015160001960f88460031b161c19169055878080610b70565b92936020600181928786015181550195019301610b5a565b909150600186016000526020600020601f840160051c810160208510610c00575b90849392915b601f830160051c82018110610bf1575050610971565b60008155859450600101610bdb565b5080610bd5565b60405163119b4fd360e11b8152600490fd5b60405163732550d560e01b8152600490fd5b90506020813d602011610c5d575b81610c46602093836111e8565b8101031261018857610c5790611360565b8361078b565b3d9150610c39565b604051635efec3bf60e01b8152600490fd5b604051630db2f02f60e01b8152600490fd5b3461018857610c9736611065565b90610ca2828261140e565b91600354809311610d44575b610cb781611440565b9160005b828110610cd0576040518061010c86826110e1565b610cda818361140e565b9085821015610d2e57610d29917fc2575a0e9e593c00f959f8c92f12db2869c3395a3b0502d05e2516446f71f85b01548060005260206002815261015360406000206040519361014c856111b0565b610cbb565b634e487b7160e01b600052603260045260246000fd5b50610d4f818361141b565b610cae565b34610188576040366003190112610188576024356001600160a01b038116810361018857610d866040916004356118ef565b60ff60208351928051151584520151166020820152f35b34610188576000366003190112610188576040517f00000000000000000000000000000000000000000000000000000000000000006001600160a01b03168152602090f35b346101885760208060031936011261018857604051630ada2bb960e31b81523060048083019190915235602482018190523360448301529082816064816001600160a01b037f0000000000000000000000000000000000000000000000000000000000000000165afa90811561065057600091610fc5575b5015610fb3578060005260028252604060002060ff918282541615610fa15780600094929452600082526040600020600091600092600261ffff816000990154169301965b86811684811015610f0657908791610eb7828b611398565b905460039190911b1c6001600160ff1b031690878211610efa575b505016868114610ee457600101610e9f565b634e487b7160e01b600052601160045260246000fd5b90965092508980610ed2565b50506000828152600286526040902060038101805460ff19908116848a1617909155815416905584610f3783611806565b5060055491600160401b8310156103b85783610f96610f7d8560017f32c34fd89f87a7cc9f257c5f4c2ed207f4776f12b94e6aec10d90ce489d6c52897016005556112cb565b819391549060031b600019811b9283911b169119161790565b9055604051908152a2005b604051634065aaf160e11b8152600490fd5b604051637f3fbb5f60e11b8152600490fd5b90508281813d8311610ff3575b610fdc81836111e8565b8101031261018857610fed90611360565b83610e5a565b503d610fd2565b34610188576020366003190112610188576004359063ffffffff60e01b8216809203610188576020916301ffc9a760e01b8114908115611054575b8115611043575b5015158152f35b63d58f739960e01b1490508361103c565b633ad096b960e11b81149150611035565b6040906003190112610188576004359060243590565b91908251926060825283519081606084015260005b8281106110cb57506080939450604090600085848601015261ffff6020820151166020850152015115156040830152601f8019910116010190565b8060208092880101516080828701015201611090565b602080820190808352835180925260409283810182858560051b8401019601946000925b858410611116575050505050505090565b909192939495968580600192603f19858203018752818b518051835201519086838201528151151587820152608060ff8861115e8686015160608087015260a086019061107b565b94015116910152990194019401929594939190611105565b90600182811c921680156111a6575b602083101461119057565b634e487b7160e01b600052602260045260246000fd5b91607f1691611185565b6040810190811067ffffffffffffffff8211176103b857604052565b6060810190811067ffffffffffffffff8211176103b857604052565b90601f8019910116810190811067ffffffffffffffff8211176103b857604052565b90604051611217816111cc565b80926040519060009181549261122c84611176565b8083526001948086169081156112a95750600114611272575b5091816112596040959360ff9503826111e8565b8552015461ffff8116602085015260101c161515910152565b90508260005260209081600020906000915b81831061129657505082010181611245565b8054858401850152918301918601611284565b60ff191660208086019190915291151560051b84019091019150829050611245565b600554811015610d2e5760056000527f036b6384b5eca791c62761152d0c79bb0604c104a5fb6f4eb0703f3154bb3db00190600090565b600354811015610d2e5760036000527fc2575a0e9e593c00f959f8c92f12db2869c3395a3b0502d05e2516446f71f85b0190600090565b8054821015610d2e5760005260206000200190600090565b3561ffff811681036101885790565b5190811515820361018857565b359061ffff8216820361018857565b3590811515820361018857565b6000198114610ee45760010190565b6020821015610d2e570190600090565b60008181526004602052604081205461140957600354600160401b8110156113f55790826113e1610f7d84600160409601600355611302565b905560035492815260046020522055600190565b634e487b7160e01b82526041600452602482fd5b905090565b91908201809211610ee457565b91908203918211610ee457565b67ffffffffffffffff81116103b85760051b60200190565b9061144a82611428565b604090611459825191826111e8565b838152809361146a601f1991611428565b019160005b83811061147c5750505050565b602090825161148a816111b0565b600081528351611499816111cc565b600081528451906114a9826111cc565b606082528491600083820152600087820152828201526000868201528183015282860101520161146f565b906040516114e1816111cc565b604060ff6003839582815416151585526114fd6001820161120a565b6020860152015416910152565b8051821015610d2e5760209160051b010190565b60405163e536266760e01b8152306004820152602481018390526001600160a01b038216604482015292939092602081806064810103817f00000000000000000000000000000000000000000000000000000000000000006001600160a01b03165afa908115610650576000916117c9575b50156117b757816000526002602052604060002060ff928382541615610fa15760005260006020526040600020918386169561ffff95866002850154168810156117a55760018060a01b0381166000528460205260406000209386604051956115f8876111b0565b548181161515875260081c16602086015260005b88600283015416811015611701578061165561162e6116e39360028b01611398565b8192915490600160ff1b828260031b1c18919060031b600019811b9283911b169119161790565b90556000818c036116fc575060015b61169f6116748360028c01611398565b6116898d839593549316838360031b1c61140e565b919060031b600019811b9283911b169119161790565b905586511515806116ed575b600090156116e8575060015b6116dc6116c78360028c01611398565b6116898d839593549316838360031b1c61141b565b9055611389565b61160c565b6116b7565b508089602089015116146116ab565b611664565b509094959297506002919650015460101c16908161179b575b50611754575b6001600160a01b0316600090815260209190915260409020805461ffff191660089290921b61ff0016919091176001179055565b600182018054600160401b8110156103b85761177591600182018155611339565b81546001600160a01b0360039290921b82811b8019909216928516901b16179055611720565b905051153861171a565b6040516355f00bbb60e11b8152600490fd5b60405163bbb2b45560e01b8152600490fd5b906020823d6020116117fe575b816117e3602093836111e8565b810103126117fb57506117f590611360565b38611590565b80fd5b3d91506117d6565b6000908082526004908160205260408320548015156000146118e957600019908082018181116118d657600354908382019182116118c357808203611890575b505050600354801561187d5781019061185e82611302565b909182549160031b1b1916905560035582526020526040812055600190565b634e487b7160e01b855260318452602485fd5b6118ae61189f610f7d93611302565b90549060031b1c928392611302565b90558552836020526040852055388080611846565b634e487b7160e01b875260118652602487fd5b634e487b7160e01b865260118552602486fd5b50505090565b906040918251916118ff836111b0565b6000808452602093840181905291825260028352838220828452848320916001600160a01b0316908533831461197957506002015460101c60ff1615611968578252825282902091519160ff90611955846111b0565b548181161515845260081c169082015290565b84516388310bad60e01b8152600490fd5b3385529285525050902091519160ff90611955846111b056fea2646970667358221220bec1f45c77fc945e5bbcf8ac2468477de6663a6dc1a646d58cc88b05a457ad4d64736f6c63430008100033608080604052346100165761011f908161001c8239f35b600080fdfe60806040526004361015601157600080fd5b6000803560e01c806356d15dc814608257806385e3f91914608a578063e53626671460825763ff6fef7d146045575b600080fd5b34607b576040366003190112607b576001600160a01b0360043581811603607e5760243590811603607b57602060405160018152f35b80fd5b5080fd5b5050604060cf565b5034607b57609636609e565b505050604051f35b60609060031901126040576001600160a01b0360043581811681036040579160243591604435908116810360405790565b503460405760db36609e565b505050602060405160018152f3fea2646970667358221220cf7e93e78aa4bc92124a192929c12c65bcf966963fa9955e19c9feea1a942ff064736f6c63430008100033","opcodes":"PUSH1 0xA0 CALLVALUE PUSH3 0x11D JUMPI PUSH1 0x1 PUSH1 0x1 PUSH1 0x40 SHL SUB PUSH1 0x1F PUSH3 0x1C26 CODESIZE DUP2 SWAP1 SUB SWAP2 DUP3 ADD PUSH1 0x1F NOT AND DUP5 ADD SWAP2 DUP4 DUP4 GT DUP6 DUP5 LT OR PUSH3 0xFE JUMPI DUP1 DUP6 SWAP3 PUSH1 0x40 SWAP5 DUP6 MSTORE DUP4 CODECOPY DUP2 ADD SUB SLT PUSH3 0x11D JUMPI DUP2 MLOAD PUSH1 0x1 PUSH1 0x1 PUSH1 0xA0 SHL SUB DUP1 DUP3 AND SWAP4 SWAP1 SWAP3 SWAP2 SWAP1 DUP5 DUP3 SUB PUSH3 0x11D JUMPI PUSH1 0x20 ADD MLOAD SWAP4 DUP4 DUP6 AND DUP1 SWAP6 SUB PUSH3 0x11D JUMPI PUSH3 0x114 JUMPI POP PUSH1 0x40 MLOAD SWAP1 PUSH2 0x13B SWAP1 DUP2 DUP4 ADD SWAP1 DUP2 GT DUP4 DUP3 LT OR PUSH3 0xFE JUMPI DUP3 SWAP2 PUSH3 0x1AEB DUP4 CODECOPY SUB SWAP1 PUSH1 0x0 CREATE DUP1 ISZERO PUSH3 0xF2 JUMPI AND JUMPDEST PUSH1 0x80 MSTORE PUSH1 0x1 DUP1 SLOAD PUSH1 0x1 PUSH1 0x1 PUSH1 0xA0 SHL SUB NOT AND SWAP2 SWAP1 SWAP2 OR SWAP1 SSTORE PUSH1 0x40 MLOAD PUSH2 0x19C8 SWAP1 DUP2 PUSH3 0x123 DUP3 CODECOPY PUSH1 0x80 MLOAD DUP2 DUP2 DUP2 PUSH2 0x752 ADD MSTORE DUP2 DUP2 PUSH2 0xA5E ADD MSTORE DUP2 DUP2 PUSH2 0xABE ADD MSTORE DUP2 DUP2 PUSH2 0xDB3 ADD MSTORE DUP2 DUP2 PUSH2 0xE29 ADD MSTORE PUSH2 0x1557 ADD MSTORE RETURN JUMPDEST PUSH1 0x40 MLOAD RETURNDATASIZE PUSH1 0x0 DUP3 RETURNDATACOPY RETURNDATASIZE SWAP1 REVERT JUMPDEST PUSH4 0x4E487B71 PUSH1 0xE0 SHL PUSH1 0x0 MSTORE PUSH1 0x41 PUSH1 0x4 MSTORE PUSH1 0x24 PUSH1 0x0 REVERT JUMPDEST SWAP2 POP POP PUSH3 0x9F JUMP JUMPDEST PUSH1 0x0 DUP1 REVERT INVALID PUSH1 0x80 DUP1 PUSH1 0x40 MSTORE PUSH1 0x4 CALLDATASIZE LT ISZERO PUSH2 0x13 JUMPI PUSH1 0x0 DUP1 REVERT JUMPDEST PUSH1 0x0 CALLDATALOAD PUSH1 0xE0 SHR SWAP1 DUP2 PUSH4 0x1FFC9A7 EQ PUSH2 0xFFA JUMPI POP DUP1 PUSH4 0x78F872C EQ PUSH2 0xDE2 JUMPI DUP1 PUSH4 0x8737695 EQ PUSH2 0xD9D JUMPI DUP1 PUSH4 0x879A534 EQ PUSH2 0xD54 JUMPI DUP1 PUSH4 0xC24AF80 EQ PUSH2 0xC89 JUMPI DUP1 PUSH4 0x2610C0F0 EQ PUSH2 0x6D0 JUMPI DUP1 PUSH4 0x32ED5B12 EQ PUSH2 0x66E JUMPI DUP1 PUSH4 0x4C051100 EQ PUSH2 0x431 JUMPI DUP1 PUSH4 0x5F98AC78 EQ PUSH2 0x400 JUMPI DUP1 PUSH4 0x75A12D72 EQ PUSH2 0x3E0 JUMPI DUP1 PUSH4 0x782FB5D4 EQ PUSH2 0x2CD JUMPI DUP1 PUSH4 0xCB16128B EQ PUSH2 0x27C JUMPI DUP1 PUSH4 0xD58F7399 EQ PUSH2 0x1B6 JUMPI DUP1 PUSH4 0xEB22EFEE EQ PUSH2 0x18D JUMPI PUSH4 0xF429273B EQ PUSH2 0xC4 JUMPI PUSH1 0x0 DUP1 REVERT JUMPDEST CALLVALUE PUSH2 0x188 JUMPI PUSH2 0xD2 CALLDATASIZE PUSH2 0x1065 JUMP JUMPDEST DUP2 PUSH2 0xDD DUP3 DUP3 PUSH2 0x140E JUMP JUMPDEST PUSH1 0x5 SLOAD DUP1 SWAP2 GT PUSH2 0x177 JUMPI JUMPDEST POP POP PUSH2 0xF3 DUP2 PUSH2 0x1440 JUMP JUMPDEST SWAP2 PUSH1 0x0 JUMPDEST DUP3 DUP2 LT PUSH2 0x110 JUMPI PUSH1 0x40 MLOAD DUP1 PUSH2 0x10C DUP7 DUP3 PUSH2 0x10E1 JUMP JUMPDEST SUB SWAP1 RETURN JUMPDEST DUP1 PUSH2 0x126 PUSH2 0x121 PUSH2 0x172 SWAP4 DUP6 PUSH2 0x140E JUMP JUMPDEST PUSH2 0x12CB JUMP JUMPDEST SWAP1 SLOAD SWAP1 PUSH1 0x3 SHL SHR DUP1 PUSH1 0x0 MSTORE PUSH1 0x20 PUSH1 0x2 DUP2 MSTORE PUSH2 0x153 PUSH1 0x40 PUSH1 0x0 KECCAK256 PUSH1 0x40 MLOAD SWAP4 PUSH2 0x14C DUP6 PUSH2 0x11B0 JUMP JUMPDEST DUP5 MSTORE PUSH2 0x14D4 JUMP JUMPDEST SWAP1 DUP3 ADD MSTORE PUSH2 0x161 DUP3 DUP8 PUSH2 0x150A JUMP JUMPDEST MSTORE PUSH2 0x16C DUP2 DUP7 PUSH2 0x150A JUMP JUMPDEST POP PUSH2 0x1389 JUMP JUMPDEST PUSH2 0xF7 JUMP JUMPDEST PUSH2 0x181 SWAP3 POP PUSH2 0x141B JUMP JUMPDEST DUP2 CODESIZE PUSH2 0xE8 JUMP JUMPDEST PUSH1 0x0 DUP1 REVERT JUMPDEST CALLVALUE PUSH2 0x188 JUMPI PUSH1 0x0 CALLDATASIZE PUSH1 0x3 NOT ADD SLT PUSH2 0x188 JUMPI PUSH1 0x1 SLOAD PUSH1 0x40 MLOAD PUSH1 0x1 PUSH1 0x1 PUSH1 0xA0 SHL SUB SWAP1 SWAP2 AND DUP2 MSTORE PUSH1 0x20 SWAP1 RETURN JUMPDEST CALLVALUE PUSH2 0x188 JUMPI PUSH1 0x60 CALLDATASIZE PUSH1 0x3 NOT ADD SLT PUSH2 0x188 JUMPI PUSH1 0x4 CALLDATALOAD PUSH1 0x1 PUSH1 0x1 PUSH1 0xA0 SHL SUB DUP1 DUP3 AND DUP3 SUB PUSH2 0x188 JUMPI CALLER ISZERO PUSH2 0x243 JUMPI PUSH1 0x1 SLOAD AND CALLER SUB PUSH2 0x1FE JUMPI PUSH2 0x1FC SWAP1 PUSH1 0x44 CALLDATALOAD SWAP1 PUSH1 0x24 CALLDATALOAD SWAP1 PUSH2 0x151E JUMP JUMPDEST STOP JUMPDEST PUSH1 0x40 MLOAD PUSH3 0x461BCD PUSH1 0xE5 SHL DUP2 MSTORE PUSH1 0x20 PUSH1 0x4 DUP3 ADD MSTORE PUSH1 0x1E PUSH1 0x24 DUP3 ADD MSTORE PUSH32 0x43616E6E6F742063616C6C2070726F7879566F7465206469726563746C790000 PUSH1 0x44 DUP3 ADD MSTORE PUSH1 0x64 SWAP1 REVERT JUMPDEST PUSH1 0x40 MLOAD PUSH3 0x461BCD PUSH1 0xE5 SHL DUP2 MSTORE PUSH1 0x20 PUSH1 0x4 DUP3 ADD MSTORE PUSH1 0x11 PUSH1 0x24 DUP3 ADD MSTORE PUSH17 0x1516081B5D5CDD081899481CDA59DB9959 PUSH1 0x7A SHL PUSH1 0x44 DUP3 ADD MSTORE PUSH1 0x64 SWAP1 REVERT JUMPDEST CALLVALUE PUSH2 0x188 JUMPI PUSH1 0x20 CALLDATASIZE PUSH1 0x3 NOT ADD SLT PUSH2 0x188 JUMPI PUSH1 0x4 CALLDATALOAD PUSH1 0x5 SLOAD DUP2 LT ISZERO PUSH2 0x188 JUMPI PUSH1 0x20 SWAP1 PUSH1 0x5 PUSH1 0x0 MSTORE PUSH32 0x36B6384B5ECA791C62761152D0C79BB0604C104A5FB6F4EB0703F3154BB3DB0 ADD SLOAD PUSH1 0x40 MLOAD SWAP1 DUP2 MSTORE RETURN JUMPDEST CALLVALUE PUSH2 0x188 JUMPI PUSH1 0x20 DUP1 PUSH1 0x3 NOT CALLDATASIZE ADD SLT PUSH2 0x188 JUMPI PUSH1 0x4 CALLDATALOAD PUSH1 0x0 MSTORE PUSH1 0x2 DUP2 MSTORE PUSH1 0x40 PUSH1 0x0 KECCAK256 PUSH1 0x0 DUP3 MSTORE PUSH1 0xFF PUSH1 0x40 PUSH1 0x0 KECCAK256 SWAP2 SLOAD AND PUSH2 0x3CE JUMPI PUSH1 0x40 MLOAD PUSH2 0x420 DUP2 ADD DUP2 DUP2 LT PUSH8 0xFFFFFFFFFFFFFFFF DUP3 GT OR PUSH2 0x3B8 JUMPI PUSH1 0x40 SWAP4 SWAP3 SWAP4 MSTORE DUP2 DUP2 MSTORE DUP2 DUP2 ADD SWAP2 PUSH2 0x400 CALLDATASIZE DUP5 CALLDATACOPY PUSH1 0x2 PUSH1 0x0 SWAP5 ADD SWAP4 JUMPDEST DUP3 MLOAD DUP2 LT ISZERO PUSH2 0x374 JUMPI DUP1 PUSH2 0x34D PUSH2 0x36F SWAP3 DUP8 PUSH2 0x1398 JUMP JUMPDEST SWAP1 SLOAD PUSH1 0x3 SWAP2 SWAP1 SWAP2 SHL SHR PUSH1 0x1 PUSH1 0x1 PUSH1 0xFF SHL SUB AND PUSH2 0x369 DUP3 DUP7 PUSH2 0x150A JUMP JUMPDEST MSTORE PUSH2 0x1389 JUMP JUMPDEST PUSH2 0x336 JUMP JUMPDEST POP SWAP3 POP SWAP1 PUSH1 0x40 MLOAD SWAP3 DUP4 SWAP3 DUP2 DUP5 ADD SWAP1 DUP3 DUP6 MSTORE MLOAD DUP1 SWAP2 MSTORE PUSH1 0x40 DUP5 ADD SWAP3 SWAP2 PUSH1 0x0 JUMPDEST DUP3 DUP2 LT PUSH2 0x3A1 JUMPI POP POP POP POP SUB SWAP1 RETURN JUMPDEST DUP4 MLOAD DUP6 MSTORE DUP7 SWAP6 POP SWAP4 DUP2 ADD SWAP4 SWAP3 DUP2 ADD SWAP3 PUSH1 0x1 ADD PUSH2 0x392 JUMP JUMPDEST PUSH4 0x4E487B71 PUSH1 0xE0 SHL PUSH1 0x0 MSTORE PUSH1 0x41 PUSH1 0x4 MSTORE PUSH1 0x24 PUSH1 0x0 REVERT JUMPDEST PUSH1 0x40 MLOAD PUSH4 0x785BBC6D PUSH1 0xE1 SHL DUP2 MSTORE PUSH1 0x4 SWAP1 REVERT JUMPDEST CALLVALUE PUSH2 0x188 JUMPI PUSH1 0x40 CALLDATASIZE PUSH1 0x3 NOT ADD SLT PUSH2 0x188 JUMPI PUSH2 0x1FC PUSH1 0x24 CALLDATALOAD PUSH1 0x4 CALLDATALOAD CALLER PUSH2 0x151E JUMP JUMPDEST CALLVALUE PUSH2 0x188 JUMPI PUSH1 0x20 CALLDATASIZE PUSH1 0x3 NOT ADD SLT PUSH2 0x188 JUMPI PUSH1 0x4 CALLDATALOAD PUSH1 0x0 MSTORE PUSH1 0x2 PUSH1 0x20 MSTORE PUSH1 0x20 PUSH1 0xFF PUSH1 0x40 PUSH1 0x0 KECCAK256 SLOAD AND PUSH1 0x40 MLOAD SWAP1 ISZERO ISZERO DUP2 MSTORE RETURN JUMPDEST CALLVALUE PUSH2 0x188 JUMPI PUSH1 0x20 DUP1 PUSH1 0x3 NOT CALLDATASIZE ADD SLT PUSH2 0x188 JUMPI PUSH1 0x4 CALLDATALOAD DUP1 PUSH1 0x0 MSTORE PUSH1 0x2 DUP3 MSTORE PUSH1 0x40 PUSH1 0x0 KECCAK256 SWAP1 PUSH1 0x0 DUP4 MSTORE PUSH1 0x40 PUSH1 0x0 KECCAK256 SWAP3 PUSH1 0xFF SWAP3 DUP4 PUSH1 0x2 DUP3 ADD SLOAD PUSH1 0x10 SHR AND ISZERO PUSH2 0x65C JUMPI SLOAD DUP4 AND PUSH2 0x3CE JUMPI DUP4 DUP4 PUSH1 0x1 DUP1 SWAP3 ADD DUP1 SLOAD SWAP4 PUSH2 0x48A DUP6 PUSH2 0x1428 JUMP JUMPDEST PUSH2 0x497 PUSH1 0x40 MLOAD SWAP2 DUP3 PUSH2 0x11E8 JUMP JUMPDEST DUP6 DUP2 MSTORE PUSH2 0x4A3 DUP7 PUSH2 0x1428 JUMP JUMPDEST DUP2 DUP4 ADD SWAP8 SWAP1 PUSH1 0x1F NOT ADD CALLDATASIZE DUP10 CALLDATACOPY PUSH1 0x0 JUMPDEST DUP8 DUP2 LT PUSH2 0x57D JUMPI POP POP PUSH1 0x40 MLOAD SWAP6 DUP3 DUP8 DUP3 DUP2 MSTORE ADD SWAP1 DUP2 SWAP5 PUSH1 0x0 MSTORE DUP4 PUSH1 0x0 KECCAK256 SWAP1 PUSH1 0x0 JUMPDEST DUP2 DUP2 LT PUSH2 0x561 JUMPI POP POP POP DUP7 PUSH2 0x4E9 SWAP2 SUB DUP8 PUSH2 0x11E8 JUMP JUMPDEST PUSH1 0x40 MLOAD SWAP6 PUSH1 0x40 DUP8 ADD SWAP1 PUSH1 0x40 DUP9 MSTORE MLOAD DUP1 SWAP2 MSTORE PUSH1 0x60 DUP8 ADD SWAP4 SWAP1 PUSH1 0x0 JUMPDEST DUP2 DUP2 LT PUSH2 0x545 JUMPI POP POP POP DUP6 DUP4 SUB DUP7 DUP4 ADD MSTORE MLOAD DUP1 DUP4 MSTORE SWAP2 DUP2 ADD SWAP6 SWAP3 PUSH1 0x0 SWAP1 JUMPDEST DUP4 DUP3 LT PUSH2 0x52E JUMPI DUP7 DUP9 SUB DUP8 RETURN JUMPDEST DUP5 MLOAD DUP2 AND DUP9 MSTORE SWAP7 DUP3 ADD SWAP7 SWAP4 DUP3 ADD SWAP4 SWAP1 DUP6 ADD SWAP1 PUSH2 0x521 JUMP JUMPDEST DUP3 MLOAD PUSH1 0x1 PUSH1 0x1 PUSH1 0xA0 SHL SUB AND DUP7 MSTORE SWAP5 DUP5 ADD SWAP5 SWAP2 DUP5 ADD SWAP2 DUP8 ADD PUSH2 0x503 JUMP JUMPDEST DUP3 SLOAD PUSH1 0x1 PUSH1 0x1 PUSH1 0xA0 SHL SUB AND DUP5 MSTORE SWAP3 DUP6 ADD SWAP3 SWAP2 DUP9 ADD SWAP2 DUP9 ADD PUSH2 0x4D3 JUMP JUMPDEST PUSH2 0x58D DUP2 DUP7 SWAP8 SWAP6 SWAP7 SWAP11 SWAP9 SWAP11 PUSH2 0x1339 JUMP JUMPDEST SWAP2 SWAP1 SLOAD SWAP2 PUSH1 0x40 MLOAD SWAP3 PUSH4 0x21E694D PUSH1 0xE2 SHL DUP5 MSTORE DUP5 PUSH1 0x4 DUP6 ADD MSTORE PUSH1 0x1 DUP1 PUSH1 0xA0 SHL SUB SWAP2 PUSH1 0x3 SHL SHR AND PUSH1 0x24 DUP4 ADD MSTORE PUSH1 0x40 DUP3 PUSH1 0x44 DUP2 ADDRESS GAS STATICCALL DUP1 ISZERO PUSH2 0x650 JUMPI DUP7 DUP7 SWAP2 PUSH1 0x0 SWAP1 PUSH2 0x5EF JUMPI JUMPDEST PUSH2 0x5E3 SWAP5 POP ADD MLOAD AND PUSH2 0x369 DUP3 DUP7 PUSH2 0x150A JUMP JUMPDEST SWAP8 SWAP6 SWAP8 SWAP5 SWAP4 SWAP3 SWAP5 PUSH2 0x4B2 JUMP JUMPDEST POP POP POP PUSH1 0x40 DUP3 RETURNDATASIZE PUSH1 0x40 GT PUSH2 0x648 JUMPI JUMPDEST DUP2 PUSH2 0x60B PUSH1 0x40 SWAP4 DUP4 PUSH2 0x11E8 JUMP JUMPDEST DUP2 ADD SUB SLT PUSH2 0x188 JUMPI DUP6 PUSH1 0x40 MLOAD SWAP3 PUSH2 0x621 DUP5 PUSH2 0x11B0 JUMP JUMPDEST PUSH2 0x62A DUP2 PUSH2 0x1360 JUMP JUMPDEST DUP5 MSTORE ADD MLOAD SWAP2 DUP6 DUP4 AND DUP4 SUB PUSH2 0x188 JUMPI DUP7 DUP2 PUSH2 0x5E3 SWAP5 DUP3 DUP10 SWAP5 ADD MSTORE PUSH2 0x5D1 JUMP JUMPDEST RETURNDATASIZE SWAP2 POP PUSH2 0x5FE JUMP JUMPDEST PUSH1 0x40 MLOAD RETURNDATASIZE PUSH1 0x0 DUP3 RETURNDATACOPY RETURNDATASIZE SWAP1 REVERT JUMPDEST PUSH1 0x40 MLOAD PUSH4 0x88310BAD PUSH1 0xE0 SHL DUP2 MSTORE PUSH1 0x4 SWAP1 REVERT JUMPDEST CALLVALUE PUSH2 0x188 JUMPI PUSH1 0x20 CALLDATASIZE PUSH1 0x3 NOT ADD SLT PUSH2 0x188 JUMPI PUSH1 0x4 CALLDATALOAD PUSH1 0x0 MSTORE PUSH1 0x2 PUSH1 0x20 MSTORE PUSH1 0x40 PUSH1 0x0 KECCAK256 PUSH1 0xFF DUP2 SLOAD AND PUSH1 0xFF PUSH1 0x3 PUSH2 0x6A4 PUSH1 0x1 DUP6 ADD PUSH2 0x120A JUMP JUMPDEST SWAP4 ADD SLOAD AND PUSH2 0x6C6 PUSH1 0x40 MLOAD SWAP4 DUP5 SWAP4 ISZERO ISZERO DUP5 MSTORE PUSH1 0x60 PUSH1 0x20 DUP6 ADD MSTORE PUSH1 0x60 DUP5 ADD SWAP1 PUSH2 0x107B JUMP JUMPDEST SWAP1 PUSH1 0x40 DUP4 ADD MSTORE SUB SWAP1 RETURN JUMPDEST CALLVALUE PUSH2 0x188 JUMPI PUSH1 0x3 NOT PUSH1 0x20 CALLDATASIZE DUP3 ADD SLT PUSH2 0x188 JUMPI PUSH1 0x4 CALLDATALOAD SWAP1 PUSH8 0xFFFFFFFFFFFFFFFF DUP3 GT PUSH2 0x188 JUMPI PUSH1 0x60 DUP3 CALLDATASIZE SUB SWAP2 DUP3 ADD SLT PUSH2 0x188 JUMPI PUSH2 0xFFFF PUSH2 0x711 PUSH1 0x24 DUP5 ADD PUSH2 0x1351 JUMP JUMPDEST AND ISZERO PUSH2 0xC77 JUMPI PUSH1 0x20 PUSH2 0xFFFF PUSH2 0x728 PUSH1 0x24 DUP6 ADD PUSH2 0x1351 JUMP JUMPDEST AND GT PUSH2 0xC65 JUMPI PUSH1 0x40 MLOAD PUSH1 0x1 PUSH3 0x901083 PUSH1 0xE0 SHL SUB NOT DUP2 MSTORE ADDRESS PUSH1 0x4 DUP3 ADD MSTORE CALLER PUSH1 0x24 DUP3 ADD MSTORE PUSH1 0x20 DUP2 PUSH1 0x44 DUP2 PUSH32 0x0 PUSH1 0x1 PUSH1 0x1 PUSH1 0xA0 SHL SUB AND GAS STATICCALL SWAP1 DUP2 ISZERO PUSH2 0x650 JUMPI PUSH1 0x0 SWAP2 PUSH2 0xC2B JUMPI JUMPDEST POP ISZERO PUSH2 0xC19 JUMPI PUSH1 0x40 MLOAD PUSH1 0x20 DUP2 ADD SWAP1 CALLER DUP3 MSTORE PUSH1 0x40 DUP1 DUP3 ADD MSTORE DUP4 PUSH1 0x4 ADD CALLDATALOAD SWAP3 PUSH1 0x22 NOT ADD DUP4 SLT ISZERO PUSH2 0x188 JUMPI DUP4 DUP4 ADD PUSH1 0x24 PUSH1 0x4 DUP3 ADD CALLDATALOAD SWAP2 ADD SWAP1 PUSH8 0xFFFFFFFFFFFFFFFF DUP2 GT PUSH2 0x188 JUMPI DUP1 CALLDATASIZE SUB DUP3 SGT PUSH2 0x188 JUMPI DUP3 DUP2 PUSH1 0xE0 SWAP3 PUSH2 0x838 SWAP5 PUSH1 0x60 DUP1 DUP6 ADD MSTORE DUP2 PUSH1 0xC0 DUP6 ADD MSTORE DUP5 DUP5 ADD CALLDATACOPY PUSH1 0x0 DUP4 DUP3 DUP5 ADD ADD MSTORE PUSH2 0xFFFF PUSH2 0x808 PUSH1 0x24 DUP11 ADD PUSH2 0x136D JUMP JUMPDEST AND PUSH1 0x80 DUP4 ADD MSTORE PUSH2 0x81A PUSH1 0x44 DUP10 ADD PUSH2 0x137C JUMP JUMPDEST ISZERO ISZERO PUSH1 0xA0 DUP4 ADD MSTORE PUSH1 0x1F DUP1 NOT SWAP2 ADD AND DUP2 ADD SUB PUSH1 0xC0 DUP2 ADD DUP5 MSTORE ADD DUP3 PUSH2 0x11E8 JUMP JUMPDEST MLOAD SWAP1 KECCAK256 SWAP1 DUP2 PUSH1 0x0 MSTORE PUSH1 0x2 PUSH1 0x20 MSTORE PUSH1 0xFF PUSH1 0x40 PUSH1 0x0 KECCAK256 SLOAD AND PUSH2 0xC07 JUMPI PUSH1 0x40 MLOAD PUSH2 0x85E DUP2 PUSH2 0x11CC JUMP JUMPDEST PUSH1 0x1 DUP2 MSTORE PUSH1 0x40 MLOAD SWAP2 PUSH2 0x86F DUP4 PUSH2 0x11CC JUMP JUMPDEST PUSH8 0xFFFFFFFFFFFFFFFF DUP2 GT PUSH2 0x188 JUMPI CALLDATASIZE PUSH1 0x23 DUP3 DUP8 ADD ADD SLT ISZERO PUSH2 0x188 JUMPI PUSH8 0xFFFFFFFFFFFFFFFF PUSH1 0x4 DUP3 DUP8 ADD ADD CALLDATALOAD GT PUSH2 0x3B8 JUMPI PUSH1 0x40 MLOAD SWAP1 PUSH2 0x8BE DUP7 DUP3 ADD PUSH1 0x4 ADD CALLDATALOAD PUSH1 0x1F ADD PUSH1 0x1F NOT AND PUSH1 0x20 ADD DUP4 PUSH2 0x11E8 JUMP JUMPDEST DUP6 DUP2 ADD PUSH1 0x4 DUP2 ADD CALLDATALOAD DUP1 DUP5 MSTORE CALLDATASIZE SWAP2 ADD PUSH1 0x24 ADD GT PUSH2 0x188 JUMPI PUSH1 0x20 PUSH1 0x4 DUP3 DUP2 PUSH1 0x0 SWAP5 DUP11 ADD ADD CALLDATALOAD PUSH1 0x24 DUP3 DUP12 ADD ADD DUP5 DUP8 ADD CALLDATACOPY DUP9 ADD ADD CALLDATALOAD DUP4 ADD ADD MSTORE DUP3 MSTORE PUSH2 0x901 PUSH1 0x24 DUP6 ADD PUSH2 0x136D JUMP JUMPDEST PUSH1 0x20 DUP4 ADD MSTORE PUSH2 0x912 PUSH1 0x44 DUP6 ADD PUSH2 0x137C JUMP JUMPDEST PUSH1 0x40 DUP4 ADD MSTORE PUSH1 0x20 DUP2 ADD SWAP2 DUP3 MSTORE PUSH1 0x0 PUSH1 0x40 DUP3 ADD MSTORE DUP3 PUSH1 0x0 MSTORE PUSH1 0x2 PUSH1 0x20 MSTORE PUSH1 0x40 PUSH1 0x0 KECCAK256 SWAP2 DUP2 MLOAD ISZERO ISZERO PUSH1 0xFF DUP1 NOT DUP6 SLOAD AND SWAP2 AND OR DUP4 SSTORE MLOAD DUP1 MLOAD DUP1 MLOAD SWAP1 PUSH8 0xFFFFFFFFFFFFFFFF DUP3 GT PUSH2 0x3B8 JUMPI DUP2 SWAP1 PUSH2 0x968 PUSH1 0x1 DUP8 ADD SLOAD PUSH2 0x1176 JUMP JUMPDEST PUSH1 0x1F DUP2 GT PUSH2 0xBB4 JUMPI JUMPDEST POP PUSH1 0x20 SWAP1 PUSH1 0x1F DUP4 GT PUSH1 0x1 EQ PUSH2 0xB44 JUMPI PUSH1 0x0 SWAP3 PUSH2 0xB39 JUMPI JUMPDEST POP POP DUP2 PUSH1 0x1 SHL SWAP2 PUSH1 0x0 NOT SWAP1 PUSH1 0x3 SHL SHR NOT AND OR PUSH1 0x1 DUP5 ADD SSTORE SWAP4 SWAP3 SWAP4 JUMPDEST PUSH1 0x2 DUP4 ADD SWAP1 PUSH2 0xFFFF PUSH1 0x20 DUP3 ADD MLOAD AND PUSH3 0xFF0000 PUSH1 0x40 DUP5 SLOAD SWAP4 ADD MLOAD ISZERO ISZERO PUSH1 0x10 SHL AND SWAP2 PUSH3 0xFFFFFF NOT AND OR OR SWAP1 SSTORE PUSH1 0xFF PUSH1 0x40 PUSH1 0x3 DUP1 SWAP5 ADD SWAP3 ADD MLOAD AND PUSH1 0xFF NOT DUP3 SLOAD AND OR SWAP1 SSTORE PUSH2 0x9EC DUP4 PUSH2 0x13A8 JUMP JUMPDEST POP DUP3 PUSH1 0x0 MSTORE PUSH1 0x0 PUSH1 0x20 MSTORE PUSH1 0x40 PUSH1 0x0 KECCAK256 SWAP3 PUSH1 0x2 PUSH1 0x0 SWAP5 ADD SWAP4 JUMPDEST PUSH2 0xFFFF PUSH2 0xA13 PUSH1 0x24 DUP7 ADD PUSH2 0x1351 JUMP JUMPDEST AND DUP2 LT ISZERO PUSH2 0xA5B JUMPI PUSH2 0xA13 PUSH1 0x24 PUSH2 0xA52 DUP4 PUSH2 0xA31 PUSH2 0xFFFF SWAP6 DUP11 PUSH2 0x1398 JUMP JUMPDEST DUP2 SLOAD PUSH1 0x0 NOT SWAP2 DUP11 SHL SWAP2 DUP3 SHL DUP1 NOT SWAP1 SWAP2 AND PUSH1 0x1 PUSH1 0xFF SHL SWAP1 SWAP3 SHL AND OR SWAP1 SSTORE PUSH2 0x1389 JUMP JUMPDEST SWAP3 POP POP POP PUSH2 0xA04 JUMP JUMPDEST POP PUSH32 0x0 PUSH1 0x1 PUSH1 0x1 PUSH1 0xA0 SHL SUB AND EXTCODESIZE ISZERO PUSH2 0x188 JUMPI PUSH1 0x40 MLOAD PUSH4 0x85E3F919 PUSH1 0xE0 SHL DUP2 MSTORE ADDRESS PUSH1 0x4 DUP3 ADD MSTORE PUSH1 0x24 DUP2 ADD DUP3 SWAP1 MSTORE CALLER PUSH1 0x44 DUP3 ADD MSTORE SWAP1 PUSH1 0x0 DUP3 PUSH1 0x64 DUP2 DUP4 PUSH1 0x1 PUSH1 0x1 PUSH1 0xA0 SHL SUB PUSH32 0x0 AND GAS CALL DUP1 ISZERO PUSH2 0x650 JUMPI PUSH2 0xB1F JUMPI JUMPDEST PUSH1 0x20 SWAP1 PUSH32 0x288A29BCA04EDB18FCDB2C76D6E3B03B8A137C85C70D1A4CB8AACFA868D60510 DUP3 PUSH1 0x40 MLOAD DUP4 DUP2 MSTORE LOG1 PUSH1 0x40 MLOAD SWAP1 DUP2 MSTORE RETURN JUMPDEST PUSH8 0xFFFFFFFFFFFFFFFF DUP3 GT PUSH2 0x3B8 JUMPI PUSH1 0x20 SWAP2 PUSH1 0x40 MSTORE PUSH2 0xAEB JUMP JUMPDEST ADD MLOAD SWAP1 POP DUP8 DUP1 PUSH2 0x988 JUMP JUMPDEST PUSH1 0x1 DUP8 ADD PUSH1 0x0 SWAP1 DUP2 MSTORE PUSH1 0x20 DUP2 KECCAK256 SWAP4 POP PUSH1 0x1F NOT DUP6 AND SWAP1 JUMPDEST DUP2 DUP2 LT PUSH2 0xB9C JUMPI POP SWAP1 DUP5 PUSH1 0x1 SWAP6 SWAP5 SWAP4 SWAP3 LT PUSH2 0xB83 JUMPI JUMPDEST POP POP POP DUP2 SHL ADD PUSH1 0x1 DUP5 ADD SSTORE SWAP4 SWAP3 SWAP4 PUSH2 0x9A3 JUMP JUMPDEST ADD MLOAD PUSH1 0x0 NOT PUSH1 0xF8 DUP5 PUSH1 0x3 SHL AND SHR NOT AND SWAP1 SSTORE DUP8 DUP1 DUP1 PUSH2 0xB70 JUMP JUMPDEST SWAP3 SWAP4 PUSH1 0x20 PUSH1 0x1 DUP2 SWAP3 DUP8 DUP7 ADD MLOAD DUP2 SSTORE ADD SWAP6 ADD SWAP4 ADD PUSH2 0xB5A JUMP JUMPDEST SWAP1 SWAP2 POP PUSH1 0x1 DUP7 ADD PUSH1 0x0 MSTORE PUSH1 0x20 PUSH1 0x0 KECCAK256 PUSH1 0x1F DUP5 ADD PUSH1 0x5 SHR DUP2 ADD PUSH1 0x20 DUP6 LT PUSH2 0xC00 JUMPI JUMPDEST SWAP1 DUP5 SWAP4 SWAP3 SWAP2 JUMPDEST PUSH1 0x1F DUP4 ADD PUSH1 0x5 SHR DUP3 ADD DUP2 LT PUSH2 0xBF1 JUMPI POP POP PUSH2 0x971 JUMP JUMPDEST PUSH1 0x0 DUP2 SSTORE DUP6 SWAP5 POP PUSH1 0x1 ADD PUSH2 0xBDB JUMP JUMPDEST POP DUP1 PUSH2 0xBD5 JUMP JUMPDEST PUSH1 0x40 MLOAD PUSH4 0x119B4FD3 PUSH1 0xE1 SHL DUP2 MSTORE PUSH1 0x4 SWAP1 REVERT JUMPDEST PUSH1 0x40 MLOAD PUSH4 0x732550D5 PUSH1 0xE0 SHL DUP2 MSTORE PUSH1 0x4 SWAP1 REVERT JUMPDEST SWAP1 POP PUSH1 0x20 DUP2 RETURNDATASIZE PUSH1 0x20 GT PUSH2 0xC5D JUMPI JUMPDEST DUP2 PUSH2 0xC46 PUSH1 0x20 SWAP4 DUP4 PUSH2 0x11E8 JUMP JUMPDEST DUP2 ADD SUB SLT PUSH2 0x188 JUMPI PUSH2 0xC57 SWAP1 PUSH2 0x1360 JUMP JUMPDEST DUP4 PUSH2 0x78B JUMP JUMPDEST RETURNDATASIZE SWAP2 POP PUSH2 0xC39 JUMP JUMPDEST PUSH1 0x40 MLOAD PUSH4 0x5EFEC3BF PUSH1 0xE0 SHL DUP2 MSTORE PUSH1 0x4 SWAP1 REVERT JUMPDEST PUSH1 0x40 MLOAD PUSH4 0xDB2F02F PUSH1 0xE0 SHL DUP2 MSTORE PUSH1 0x4 SWAP1 REVERT JUMPDEST CALLVALUE PUSH2 0x188 JUMPI PUSH2 0xC97 CALLDATASIZE PUSH2 0x1065 JUMP JUMPDEST SWAP1 PUSH2 0xCA2 DUP3 DUP3 PUSH2 0x140E JUMP JUMPDEST SWAP2 PUSH1 0x3 SLOAD DUP1 SWAP4 GT PUSH2 0xD44 JUMPI JUMPDEST PUSH2 0xCB7 DUP2 PUSH2 0x1440 JUMP JUMPDEST SWAP2 PUSH1 0x0 JUMPDEST DUP3 DUP2 LT PUSH2 0xCD0 JUMPI PUSH1 0x40 MLOAD DUP1 PUSH2 0x10C DUP7 DUP3 PUSH2 0x10E1 JUMP JUMPDEST PUSH2 0xCDA DUP2 DUP4 PUSH2 0x140E JUMP JUMPDEST SWAP1 DUP6 DUP3 LT ISZERO PUSH2 0xD2E JUMPI PUSH2 0xD29 SWAP2 PUSH32 0xC2575A0E9E593C00F959F8C92F12DB2869C3395A3B0502D05E2516446F71F85B ADD SLOAD DUP1 PUSH1 0x0 MSTORE PUSH1 0x20 PUSH1 0x2 DUP2 MSTORE PUSH2 0x153 PUSH1 0x40 PUSH1 0x0 KECCAK256 PUSH1 0x40 MLOAD SWAP4 PUSH2 0x14C DUP6 PUSH2 0x11B0 JUMP JUMPDEST PUSH2 0xCBB JUMP JUMPDEST PUSH4 0x4E487B71 PUSH1 0xE0 SHL PUSH1 0x0 MSTORE PUSH1 0x32 PUSH1 0x4 MSTORE PUSH1 0x24 PUSH1 0x0 REVERT JUMPDEST POP PUSH2 0xD4F DUP2 DUP4 PUSH2 0x141B JUMP JUMPDEST PUSH2 0xCAE JUMP JUMPDEST CALLVALUE PUSH2 0x188 JUMPI PUSH1 0x40 CALLDATASIZE PUSH1 0x3 NOT ADD SLT PUSH2 0x188 JUMPI PUSH1 0x24 CALLDATALOAD PUSH1 0x1 PUSH1 0x1 PUSH1 0xA0 SHL SUB DUP2 AND DUP2 SUB PUSH2 0x188 JUMPI PUSH2 0xD86 PUSH1 0x40 SWAP2 PUSH1 0x4 CALLDATALOAD PUSH2 0x18EF JUMP JUMPDEST PUSH1 0xFF PUSH1 0x20 DUP4 MLOAD SWAP3 DUP1 MLOAD ISZERO ISZERO DUP5 MSTORE ADD MLOAD AND PUSH1 0x20 DUP3 ADD MSTORE RETURN JUMPDEST CALLVALUE PUSH2 0x188 JUMPI PUSH1 0x0 CALLDATASIZE PUSH1 0x3 NOT ADD SLT PUSH2 0x188 JUMPI PUSH1 0x40 MLOAD PUSH32 0x0 PUSH1 0x1 PUSH1 0x1 PUSH1 0xA0 SHL SUB AND DUP2 MSTORE PUSH1 0x20 SWAP1 RETURN JUMPDEST CALLVALUE PUSH2 0x188 JUMPI PUSH1 0x20 DUP1 PUSH1 0x3 NOT CALLDATASIZE ADD SLT PUSH2 0x188 JUMPI PUSH1 0x40 MLOAD PUSH4 0xADA2BB9 PUSH1 0xE3 SHL DUP2 MSTORE ADDRESS PUSH1 0x4 DUP1 DUP4 ADD SWAP2 SWAP1 SWAP2 MSTORE CALLDATALOAD PUSH1 0x24 DUP3 ADD DUP2 SWAP1 MSTORE CALLER PUSH1 0x44 DUP4 ADD MSTORE SWAP1 DUP3 DUP2 PUSH1 0x64 DUP2 PUSH1 0x1 PUSH1 0x1 PUSH1 0xA0 SHL SUB PUSH32 0x0 AND GAS STATICCALL SWAP1 DUP2 ISZERO PUSH2 0x650 JUMPI PUSH1 0x0 SWAP2 PUSH2 0xFC5 JUMPI JUMPDEST POP ISZERO PUSH2 0xFB3 JUMPI DUP1 PUSH1 0x0 MSTORE PUSH1 0x2 DUP3 MSTORE PUSH1 0x40 PUSH1 0x0 KECCAK256 PUSH1 0xFF SWAP2 DUP3 DUP3 SLOAD AND ISZERO PUSH2 0xFA1 JUMPI DUP1 PUSH1 0x0 SWAP5 SWAP3 SWAP5 MSTORE PUSH1 0x0 DUP3 MSTORE PUSH1 0x40 PUSH1 0x0 KECCAK256 PUSH1 0x0 SWAP2 PUSH1 0x0 SWAP3 PUSH1 0x2 PUSH2 0xFFFF DUP2 PUSH1 0x0 SWAP10 ADD SLOAD AND SWAP4 ADD SWAP7 JUMPDEST DUP7 DUP2 AND DUP5 DUP2 LT ISZERO PUSH2 0xF06 JUMPI SWAP1 DUP8 SWAP2 PUSH2 0xEB7 DUP3 DUP12 PUSH2 0x1398 JUMP JUMPDEST SWAP1 SLOAD PUSH1 0x3 SWAP2 SWAP1 SWAP2 SHL SHR PUSH1 0x1 PUSH1 0x1 PUSH1 0xFF SHL SUB AND SWAP1 DUP8 DUP3 GT PUSH2 0xEFA JUMPI JUMPDEST POP POP AND DUP7 DUP2 EQ PUSH2 0xEE4 JUMPI PUSH1 0x1 ADD PUSH2 0xE9F JUMP JUMPDEST PUSH4 0x4E487B71 PUSH1 0xE0 SHL PUSH1 0x0 MSTORE PUSH1 0x11 PUSH1 0x4 MSTORE PUSH1 0x24 PUSH1 0x0 REVERT JUMPDEST SWAP1 SWAP7 POP SWAP3 POP DUP10 DUP1 PUSH2 0xED2 JUMP JUMPDEST POP POP PUSH1 0x0 DUP3 DUP2 MSTORE PUSH1 0x2 DUP7 MSTORE PUSH1 0x40 SWAP1 KECCAK256 PUSH1 0x3 DUP2 ADD DUP1 SLOAD PUSH1 0xFF NOT SWAP1 DUP2 AND DUP5 DUP11 AND OR SWAP1 SWAP2 SSTORE DUP2 SLOAD AND SWAP1 SSTORE DUP5 PUSH2 0xF37 DUP4 PUSH2 0x1806 JUMP JUMPDEST POP PUSH1 0x5 SLOAD SWAP2 PUSH1 0x1 PUSH1 0x40 SHL DUP4 LT ISZERO PUSH2 0x3B8 JUMPI DUP4 PUSH2 0xF96 PUSH2 0xF7D DUP6 PUSH1 0x1 PUSH32 0x32C34FD89F87A7CC9F257C5F4C2ED207F4776F12B94E6AEC10D90CE489D6C528 SWAP8 ADD PUSH1 0x5 SSTORE PUSH2 0x12CB JUMP JUMPDEST DUP2 SWAP4 SWAP2 SLOAD SWAP1 PUSH1 0x3 SHL PUSH1 0x0 NOT DUP2 SHL SWAP3 DUP4 SWAP2 SHL AND SWAP2 NOT AND OR SWAP1 JUMP JUMPDEST SWAP1 SSTORE PUSH1 0x40 MLOAD SWAP1 DUP2 MSTORE LOG2 STOP JUMPDEST PUSH1 0x40 MLOAD PUSH4 0x4065AAF1 PUSH1 0xE1 SHL DUP2 MSTORE PUSH1 0x4 SWAP1 REVERT JUMPDEST PUSH1 0x40 MLOAD PUSH4 0x7F3FBB5F PUSH1 0xE1 SHL DUP2 MSTORE PUSH1 0x4 SWAP1 REVERT JUMPDEST SWAP1 POP DUP3 DUP2 DUP2 RETURNDATASIZE DUP4 GT PUSH2 0xFF3 JUMPI JUMPDEST PUSH2 0xFDC DUP2 DUP4 PUSH2 0x11E8 JUMP JUMPDEST DUP2 ADD SUB SLT PUSH2 0x188 JUMPI PUSH2 0xFED SWAP1 PUSH2 0x1360 JUMP JUMPDEST DUP4 PUSH2 0xE5A JUMP JUMPDEST POP RETURNDATASIZE PUSH2 0xFD2 JUMP JUMPDEST CALLVALUE PUSH2 0x188 JUMPI PUSH1 0x20 CALLDATASIZE PUSH1 0x3 NOT ADD SLT PUSH2 0x188 JUMPI PUSH1 0x4 CALLDATALOAD SWAP1 PUSH4 0xFFFFFFFF PUSH1 0xE0 SHL DUP3 AND DUP1 SWAP3 SUB PUSH2 0x188 JUMPI PUSH1 0x20 SWAP2 PUSH4 0x1FFC9A7 PUSH1 0xE0 SHL DUP2 EQ SWAP1 DUP2 ISZERO PUSH2 0x1054 JUMPI JUMPDEST DUP2 ISZERO PUSH2 0x1043 JUMPI JUMPDEST POP ISZERO ISZERO DUP2 MSTORE RETURN JUMPDEST PUSH4 0xD58F7399 PUSH1 0xE0 SHL EQ SWAP1 POP DUP4 PUSH2 0x103C JUMP JUMPDEST PUSH4 0x3AD096B9 PUSH1 0xE1 SHL DUP2 EQ SWAP2 POP PUSH2 0x1035 JUMP JUMPDEST PUSH1 0x40 SWAP1 PUSH1 0x3 NOT ADD SLT PUSH2 0x188 JUMPI PUSH1 0x4 CALLDATALOAD SWAP1 PUSH1 0x24 CALLDATALOAD SWAP1 JUMP JUMPDEST SWAP2 SWAP1 DUP3 MLOAD SWAP3 PUSH1 0x60 DUP3 MSTORE DUP4 MLOAD SWAP1 DUP2 PUSH1 0x60 DUP5 ADD MSTORE PUSH1 0x0 JUMPDEST DUP3 DUP2 LT PUSH2 0x10CB JUMPI POP PUSH1 0x80 SWAP4 SWAP5 POP PUSH1 0x40 SWAP1 PUSH1 0x0 DUP6 DUP5 DUP7 ADD ADD MSTORE PUSH2 0xFFFF PUSH1 0x20 DUP3 ADD MLOAD AND PUSH1 0x20 DUP6 ADD MSTORE ADD MLOAD ISZERO ISZERO PUSH1 0x40 DUP4 ADD MSTORE PUSH1 0x1F DUP1 NOT SWAP2 ADD AND ADD ADD SWAP1 JUMP JUMPDEST DUP1 PUSH1 0x20 DUP1 SWAP3 DUP9 ADD ADD MLOAD PUSH1 0x80 DUP3 DUP8 ADD ADD MSTORE ADD PUSH2 0x1090 JUMP JUMPDEST PUSH1 0x20 DUP1 DUP3 ADD SWAP1 DUP1 DUP4 MSTORE DUP4 MLOAD DUP1 SWAP3 MSTORE PUSH1 0x40 SWAP3 DUP4 DUP2 ADD DUP3 DUP6 DUP6 PUSH1 0x5 SHL DUP5 ADD ADD SWAP7 ADD SWAP5 PUSH1 0x0 SWAP3 JUMPDEST DUP6 DUP5 LT PUSH2 0x1116 JUMPI POP POP POP POP POP POP POP SWAP1 JUMP JUMPDEST SWAP1 SWAP2 SWAP3 SWAP4 SWAP5 SWAP6 SWAP7 DUP6 DUP1 PUSH1 0x1 SWAP3 PUSH1 0x3F NOT DUP6 DUP3 SUB ADD DUP8 MSTORE DUP2 DUP12 MLOAD DUP1 MLOAD DUP4 MSTORE ADD MLOAD SWAP1 DUP7 DUP4 DUP3 ADD MSTORE DUP2 MLOAD ISZERO ISZERO DUP8 DUP3 ADD MSTORE PUSH1 0x80 PUSH1 0xFF DUP9 PUSH2 0x115E DUP7 DUP7 ADD MLOAD PUSH1 0x60 DUP1 DUP8 ADD MSTORE PUSH1 0xA0 DUP7 ADD SWAP1 PUSH2 0x107B JUMP JUMPDEST SWAP5 ADD MLOAD AND SWAP2 ADD MSTORE SWAP10 ADD SWAP5 ADD SWAP5 ADD SWAP3 SWAP6 SWAP5 SWAP4 SWAP2 SWAP1 PUSH2 0x1105 JUMP JUMPDEST SWAP1 PUSH1 0x1 DUP3 DUP2 SHR SWAP3 AND DUP1 ISZERO PUSH2 0x11A6 JUMPI JUMPDEST PUSH1 0x20 DUP4 LT EQ PUSH2 0x1190 JUMPI JUMP JUMPDEST PUSH4 0x4E487B71 PUSH1 0xE0 SHL PUSH1 0x0 MSTORE PUSH1 0x22 PUSH1 0x4 MSTORE PUSH1 0x24 PUSH1 0x0 REVERT JUMPDEST SWAP2 PUSH1 0x7F AND SWAP2 PUSH2 0x1185 JUMP JUMPDEST PUSH1 0x40 DUP2 ADD SWAP1 DUP2 LT PUSH8 0xFFFFFFFFFFFFFFFF DUP3 GT OR PUSH2 0x3B8 JUMPI PUSH1 0x40 MSTORE JUMP JUMPDEST PUSH1 0x60 DUP2 ADD SWAP1 DUP2 LT PUSH8 0xFFFFFFFFFFFFFFFF DUP3 GT OR PUSH2 0x3B8 JUMPI PUSH1 0x40 MSTORE JUMP JUMPDEST SWAP1 PUSH1 0x1F DUP1 NOT SWAP2 ADD AND DUP2 ADD SWAP1 DUP2 LT PUSH8 0xFFFFFFFFFFFFFFFF DUP3 GT OR PUSH2 0x3B8 JUMPI PUSH1 0x40 MSTORE JUMP JUMPDEST SWAP1 PUSH1 0x40 MLOAD PUSH2 0x1217 DUP2 PUSH2 0x11CC JUMP JUMPDEST DUP1 SWAP3 PUSH1 0x40 MLOAD SWAP1 PUSH1 0x0 SWAP2 DUP2 SLOAD SWAP3 PUSH2 0x122C DUP5 PUSH2 0x1176 JUMP JUMPDEST DUP1 DUP4 MSTORE PUSH1 0x1 SWAP5 DUP1 DUP7 AND SWAP1 DUP2 ISZERO PUSH2 0x12A9 JUMPI POP PUSH1 0x1 EQ PUSH2 0x1272 JUMPI JUMPDEST POP SWAP2 DUP2 PUSH2 0x1259 PUSH1 0x40 SWAP6 SWAP4 PUSH1 0xFF SWAP6 SUB DUP3 PUSH2 0x11E8 JUMP JUMPDEST DUP6 MSTORE ADD SLOAD PUSH2 0xFFFF DUP2 AND PUSH1 0x20 DUP6 ADD MSTORE PUSH1 0x10 SHR AND ISZERO ISZERO SWAP2 ADD MSTORE JUMP JUMPDEST SWAP1 POP DUP3 PUSH1 0x0 MSTORE PUSH1 0x20 SWAP1 DUP2 PUSH1 0x0 KECCAK256 SWAP1 PUSH1 0x0 SWAP2 JUMPDEST DUP2 DUP4 LT PUSH2 0x1296 JUMPI POP POP DUP3 ADD ADD DUP2 PUSH2 0x1245 JUMP JUMPDEST DUP1 SLOAD DUP6 DUP5 ADD DUP6 ADD MSTORE SWAP2 DUP4 ADD SWAP2 DUP7 ADD PUSH2 0x1284 JUMP JUMPDEST PUSH1 0xFF NOT AND PUSH1 0x20 DUP1 DUP7 ADD SWAP2 SWAP1 SWAP2 MSTORE SWAP2 ISZERO ISZERO PUSH1 0x5 SHL DUP5 ADD SWAP1 SWAP2 ADD SWAP2 POP DUP3 SWAP1 POP PUSH2 0x1245 JUMP JUMPDEST PUSH1 0x5 SLOAD DUP2 LT ISZERO PUSH2 0xD2E JUMPI PUSH1 0x5 PUSH1 0x0 MSTORE PUSH32 0x36B6384B5ECA791C62761152D0C79BB0604C104A5FB6F4EB0703F3154BB3DB0 ADD SWAP1 PUSH1 0x0 SWAP1 JUMP JUMPDEST PUSH1 0x3 SLOAD DUP2 LT ISZERO PUSH2 0xD2E JUMPI PUSH1 0x3 PUSH1 0x0 MSTORE PUSH32 0xC2575A0E9E593C00F959F8C92F12DB2869C3395A3B0502D05E2516446F71F85B ADD SWAP1 PUSH1 0x0 SWAP1 JUMP JUMPDEST DUP1 SLOAD DUP3 LT ISZERO PUSH2 0xD2E JUMPI PUSH1 0x0 MSTORE PUSH1 0x20 PUSH1 0x0 KECCAK256 ADD SWAP1 PUSH1 0x0 SWAP1 JUMP JUMPDEST CALLDATALOAD PUSH2 0xFFFF DUP2 AND DUP2 SUB PUSH2 0x188 JUMPI SWAP1 JUMP JUMPDEST MLOAD SWAP1 DUP2 ISZERO ISZERO DUP3 SUB PUSH2 0x188 JUMPI JUMP JUMPDEST CALLDATALOAD SWAP1 PUSH2 0xFFFF DUP3 AND DUP3 SUB PUSH2 0x188 JUMPI JUMP JUMPDEST CALLDATALOAD SWAP1 DUP2 ISZERO ISZERO DUP3 SUB PUSH2 0x188 JUMPI JUMP JUMPDEST PUSH1 0x0 NOT DUP2 EQ PUSH2 0xEE4 JUMPI PUSH1 0x1 ADD SWAP1 JUMP JUMPDEST PUSH1 0x20 DUP3 LT ISZERO PUSH2 0xD2E JUMPI ADD SWAP1 PUSH1 0x0 SWAP1 JUMP JUMPDEST PUSH1 0x0 DUP2 DUP2 MSTORE PUSH1 0x4 PUSH1 0x20 MSTORE PUSH1 0x40 DUP2 KECCAK256 SLOAD PUSH2 0x1409 JUMPI PUSH1 0x3 SLOAD PUSH1 0x1 PUSH1 0x40 SHL DUP2 LT ISZERO PUSH2 0x13F5 JUMPI SWAP1 DUP3 PUSH2 0x13E1 PUSH2 0xF7D DUP5 PUSH1 0x1 PUSH1 0x40 SWAP7 ADD PUSH1 0x3 SSTORE PUSH2 0x1302 JUMP JUMPDEST SWAP1 SSTORE PUSH1 0x3 SLOAD SWAP3 DUP2 MSTORE PUSH1 0x4 PUSH1 0x20 MSTORE KECCAK256 SSTORE PUSH1 0x1 SWAP1 JUMP JUMPDEST PUSH4 0x4E487B71 PUSH1 0xE0 SHL DUP3 MSTORE PUSH1 0x41 PUSH1 0x4 MSTORE PUSH1 0x24 DUP3 REVERT JUMPDEST SWAP1 POP SWAP1 JUMP JUMPDEST SWAP2 SWAP1 DUP3 ADD DUP1 SWAP3 GT PUSH2 0xEE4 JUMPI JUMP JUMPDEST SWAP2 SWAP1 DUP3 SUB SWAP2 DUP3 GT PUSH2 0xEE4 JUMPI JUMP JUMPDEST PUSH8 0xFFFFFFFFFFFFFFFF DUP2 GT PUSH2 0x3B8 JUMPI PUSH1 0x5 SHL PUSH1 0x20 ADD SWAP1 JUMP JUMPDEST SWAP1 PUSH2 0x144A DUP3 PUSH2 0x1428 JUMP JUMPDEST PUSH1 0x40 SWAP1 PUSH2 0x1459 DUP3 MLOAD SWAP2 DUP3 PUSH2 0x11E8 JUMP JUMPDEST DUP4 DUP2 MSTORE DUP1 SWAP4 PUSH2 0x146A PUSH1 0x1F NOT SWAP2 PUSH2 0x1428 JUMP JUMPDEST ADD SWAP2 PUSH1 0x0 JUMPDEST DUP4 DUP2 LT PUSH2 0x147C JUMPI POP POP POP POP JUMP JUMPDEST PUSH1 0x20 SWAP1 DUP3 MLOAD PUSH2 0x148A DUP2 PUSH2 0x11B0 JUMP JUMPDEST PUSH1 0x0 DUP2 MSTORE DUP4 MLOAD PUSH2 0x1499 DUP2 PUSH2 0x11CC JUMP JUMPDEST PUSH1 0x0 DUP2 MSTORE DUP5 MLOAD SWAP1 PUSH2 0x14A9 DUP3 PUSH2 0x11CC JUMP JUMPDEST PUSH1 0x60 DUP3 MSTORE DUP5 SWAP2 PUSH1 0x0 DUP4 DUP3 ADD MSTORE PUSH1 0x0 DUP8 DUP3 ADD MSTORE DUP3 DUP3 ADD MSTORE PUSH1 0x0 DUP7 DUP3 ADD MSTORE DUP2 DUP4 ADD MSTORE DUP3 DUP7 ADD ADD MSTORE ADD PUSH2 0x146F JUMP JUMPDEST SWAP1 PUSH1 0x40 MLOAD PUSH2 0x14E1 DUP2 PUSH2 0x11CC JUMP JUMPDEST PUSH1 0x40 PUSH1 0xFF PUSH1 0x3 DUP4 SWAP6 DUP3 DUP2 SLOAD AND ISZERO ISZERO DUP6 MSTORE PUSH2 0x14FD PUSH1 0x1 DUP3 ADD PUSH2 0x120A JUMP JUMPDEST PUSH1 0x20 DUP7 ADD MSTORE ADD SLOAD AND SWAP2 ADD MSTORE JUMP JUMPDEST DUP1 MLOAD DUP3 LT ISZERO PUSH2 0xD2E JUMPI PUSH1 0x20 SWAP2 PUSH1 0x5 SHL ADD ADD SWAP1 JUMP JUMPDEST PUSH1 0x40 MLOAD PUSH4 0xE5362667 PUSH1 0xE0 SHL DUP2 MSTORE ADDRESS PUSH1 0x4 DUP3 ADD MSTORE PUSH1 0x24 DUP2 ADD DUP4 SWAP1 MSTORE PUSH1 0x1 PUSH1 0x1 PUSH1 0xA0 SHL SUB DUP3 AND PUSH1 0x44 DUP3 ADD MSTORE SWAP3 SWAP4 SWAP1 SWAP3 PUSH1 0x20 DUP2 DUP1 PUSH1 0x64 DUP2 ADD SUB DUP2 PUSH32 0x0 PUSH1 0x1 PUSH1 0x1 PUSH1 0xA0 SHL SUB AND GAS STATICCALL SWAP1 DUP2 ISZERO PUSH2 0x650 JUMPI PUSH1 0x0 SWAP2 PUSH2 0x17C9 JUMPI JUMPDEST POP ISZERO PUSH2 0x17B7 JUMPI DUP2 PUSH1 0x0 MSTORE PUSH1 0x2 PUSH1 0x20 MSTORE PUSH1 0x40 PUSH1 0x0 KECCAK256 PUSH1 0xFF SWAP3 DUP4 DUP3 SLOAD AND ISZERO PUSH2 0xFA1 JUMPI PUSH1 0x0 MSTORE PUSH1 0x0 PUSH1 0x20 MSTORE PUSH1 0x40 PUSH1 0x0 KECCAK256 SWAP2 DUP4 DUP7 AND SWAP6 PUSH2 0xFFFF SWAP6 DUP7 PUSH1 0x2 DUP6 ADD SLOAD AND DUP9 LT ISZERO PUSH2 0x17A5 JUMPI PUSH1 0x1 DUP1 PUSH1 0xA0 SHL SUB DUP2 AND PUSH1 0x0 MSTORE DUP5 PUSH1 0x20 MSTORE PUSH1 0x40 PUSH1 0x0 KECCAK256 SWAP4 DUP7 PUSH1 0x40 MLOAD SWAP6 PUSH2 0x15F8 DUP8 PUSH2 0x11B0 JUMP JUMPDEST SLOAD DUP2 DUP2 AND ISZERO ISZERO DUP8 MSTORE PUSH1 0x8 SHR AND PUSH1 0x20 DUP7 ADD MSTORE PUSH1 0x0 JUMPDEST DUP9 PUSH1 0x2 DUP4 ADD SLOAD AND DUP2 LT ISZERO PUSH2 0x1701 JUMPI DUP1 PUSH2 0x1655 PUSH2 0x162E PUSH2 0x16E3 SWAP4 PUSH1 0x2 DUP12 ADD PUSH2 0x1398 JUMP JUMPDEST DUP2 SWAP3 SWAP2 SLOAD SWAP1 PUSH1 0x1 PUSH1 0xFF SHL DUP3 DUP3 PUSH1 0x3 SHL SHR XOR SWAP2 SWAP1 PUSH1 0x3 SHL PUSH1 0x0 NOT DUP2 SHL SWAP3 DUP4 SWAP2 SHL AND SWAP2 NOT AND OR SWAP1 JUMP JUMPDEST SWAP1 SSTORE PUSH1 0x0 DUP2 DUP13 SUB PUSH2 0x16FC JUMPI POP PUSH1 0x1 JUMPDEST PUSH2 0x169F PUSH2 0x1674 DUP4 PUSH1 0x2 DUP13 ADD PUSH2 0x1398 JUMP JUMPDEST PUSH2 0x1689 DUP14 DUP4 SWAP6 SWAP4 SLOAD SWAP4 AND DUP4 DUP4 PUSH1 0x3 SHL SHR PUSH2 0x140E JUMP JUMPDEST SWAP2 SWAP1 PUSH1 0x3 SHL PUSH1 0x0 NOT DUP2 SHL SWAP3 DUP4 SWAP2 SHL AND SWAP2 NOT AND OR SWAP1 JUMP JUMPDEST SWAP1 SSTORE DUP7 MLOAD ISZERO ISZERO DUP1 PUSH2 0x16ED JUMPI JUMPDEST PUSH1 0x0 SWAP1 ISZERO PUSH2 0x16E8 JUMPI POP PUSH1 0x1 JUMPDEST PUSH2 0x16DC PUSH2 0x16C7 DUP4 PUSH1 0x2 DUP13 ADD PUSH2 0x1398 JUMP JUMPDEST PUSH2 0x1689 DUP14 DUP4 SWAP6 SWAP4 SLOAD SWAP4 AND DUP4 DUP4 PUSH1 0x3 SHL SHR PUSH2 0x141B JUMP JUMPDEST SWAP1 SSTORE PUSH2 0x1389 JUMP JUMPDEST PUSH2 0x160C JUMP JUMPDEST PUSH2 0x16B7 JUMP JUMPDEST POP DUP1 DUP10 PUSH1 0x20 DUP10 ADD MLOAD AND EQ PUSH2 0x16AB JUMP JUMPDEST PUSH2 0x1664 JUMP JUMPDEST POP SWAP1 SWAP5 SWAP6 SWAP3 SWAP8 POP PUSH1 0x2 SWAP2 SWAP7 POP ADD SLOAD PUSH1 0x10 SHR AND SWAP1 DUP2 PUSH2 0x179B JUMPI JUMPDEST POP PUSH2 0x1754 JUMPI JUMPDEST PUSH1 0x1 PUSH1 0x1 PUSH1 0xA0 SHL SUB AND PUSH1 0x0 SWAP1 DUP2 MSTORE PUSH1 0x20 SWAP2 SWAP1 SWAP2 MSTORE PUSH1 0x40 SWAP1 KECCAK256 DUP1 SLOAD PUSH2 0xFFFF NOT AND PUSH1 0x8 SWAP3 SWAP1 SWAP3 SHL PUSH2 0xFF00 AND SWAP2 SWAP1 SWAP2 OR PUSH1 0x1 OR SWAP1 SSTORE JUMP JUMPDEST PUSH1 0x1 DUP3 ADD DUP1 SLOAD PUSH1 0x1 PUSH1 0x40 SHL DUP2 LT ISZERO PUSH2 0x3B8 JUMPI PUSH2 0x1775 SWAP2 PUSH1 0x1 DUP3 ADD DUP2 SSTORE PUSH2 0x1339 JUMP JUMPDEST DUP2 SLOAD PUSH1 0x1 PUSH1 0x1 PUSH1 0xA0 SHL SUB PUSH1 0x3 SWAP3 SWAP1 SWAP3 SHL DUP3 DUP2 SHL DUP1 NOT SWAP1 SWAP3 AND SWAP3 DUP6 AND SWAP1 SHL AND OR SWAP1 SSTORE PUSH2 0x1720 JUMP JUMPDEST SWAP1 POP MLOAD ISZERO CODESIZE PUSH2 0x171A JUMP JUMPDEST PUSH1 0x40 MLOAD PUSH4 0x55F00BBB PUSH1 0xE1 SHL DUP2 MSTORE PUSH1 0x4 SWAP1 REVERT JUMPDEST PUSH1 0x40 MLOAD PUSH4 0xBBB2B455 PUSH1 0xE0 SHL DUP2 MSTORE PUSH1 0x4 SWAP1 REVERT JUMPDEST SWAP1 PUSH1 0x20 DUP3 RETURNDATASIZE PUSH1 0x20 GT PUSH2 0x17FE JUMPI JUMPDEST DUP2 PUSH2 0x17E3 PUSH1 0x20 SWAP4 DUP4 PUSH2 0x11E8 JUMP JUMPDEST DUP2 ADD SUB SLT PUSH2 0x17FB JUMPI POP PUSH2 0x17F5 SWAP1 PUSH2 0x1360 JUMP JUMPDEST CODESIZE PUSH2 0x1590 JUMP JUMPDEST DUP1 REVERT JUMPDEST RETURNDATASIZE SWAP2 POP PUSH2 0x17D6 JUMP JUMPDEST PUSH1 0x0 SWAP1 DUP1 DUP3 MSTORE PUSH1 0x4 SWAP1 DUP2 PUSH1 0x20 MSTORE PUSH1 0x40 DUP4 KECCAK256 SLOAD DUP1 ISZERO ISZERO PUSH1 0x0 EQ PUSH2 0x18E9 JUMPI PUSH1 0x0 NOT SWAP1 DUP1 DUP3 ADD DUP2 DUP2 GT PUSH2 0x18D6 JUMPI PUSH1 0x3 SLOAD SWAP1 DUP4 DUP3 ADD SWAP2 DUP3 GT PUSH2 0x18C3 JUMPI DUP1 DUP3 SUB PUSH2 0x1890 JUMPI JUMPDEST POP POP POP PUSH1 0x3 SLOAD DUP1 ISZERO PUSH2 0x187D JUMPI DUP2 ADD SWAP1 PUSH2 0x185E DUP3 PUSH2 0x1302 JUMP JUMPDEST SWAP1 SWAP2 DUP3 SLOAD SWAP2 PUSH1 0x3 SHL SHL NOT AND SWAP1 SSTORE PUSH1 0x3 SSTORE DUP3 MSTORE PUSH1 0x20 MSTORE PUSH1 0x40 DUP2 KECCAK256 SSTORE PUSH1 0x1 SWAP1 JUMP JUMPDEST PUSH4 0x4E487B71 PUSH1 0xE0 SHL DUP6 MSTORE PUSH1 0x31 DUP5 MSTORE PUSH1 0x24 DUP6 REVERT JUMPDEST PUSH2 0x18AE PUSH2 0x189F PUSH2 0xF7D SWAP4 PUSH2 0x1302 JUMP JUMPDEST SWAP1 SLOAD SWAP1 PUSH1 0x3 SHL SHR SWAP3 DUP4 SWAP3 PUSH2 0x1302 JUMP JUMPDEST SWAP1 SSTORE DUP6 MSTORE DUP4 PUSH1 0x20 MSTORE PUSH1 0x40 DUP6 KECCAK256 SSTORE CODESIZE DUP1 DUP1 PUSH2 0x1846 JUMP JUMPDEST PUSH4 0x4E487B71 PUSH1 0xE0 SHL DUP8 MSTORE PUSH1 0x11 DUP7 MSTORE PUSH1 0x24 DUP8 REVERT JUMPDEST PUSH4 0x4E487B71 PUSH1 0xE0 SHL DUP7 MSTORE PUSH1 0x11 DUP6 MSTORE PUSH1 0x24 DUP7 REVERT JUMPDEST POP POP POP SWAP1 JUMP JUMPDEST SWAP1 PUSH1 0x40 SWAP2 DUP3 MLOAD SWAP2 PUSH2 0x18FF DUP4 PUSH2 0x11B0 JUMP JUMPDEST PUSH1 0x0 DUP1 DUP5 MSTORE PUSH1 0x20 SWAP4 DUP5 ADD DUP2 SWAP1 MSTORE SWAP2 DUP3 MSTORE PUSH1 0x2 DUP4 MSTORE DUP4 DUP3 KECCAK256 DUP3 DUP5 MSTORE DUP5 DUP4 KECCAK256 SWAP2 PUSH1 0x1 PUSH1 0x1 PUSH1 0xA0 SHL SUB AND SWAP1 DUP6 CALLER DUP4 EQ PUSH2 0x1979 JUMPI POP PUSH1 0x2 ADD SLOAD PUSH1 0x10 SHR PUSH1 0xFF AND ISZERO PUSH2 0x1968 JUMPI DUP3 MSTORE DUP3 MSTORE DUP3 SWAP1 KECCAK256 SWAP2 MLOAD SWAP2 PUSH1 0xFF SWAP1 PUSH2 0x1955 DUP5 PUSH2 0x11B0 JUMP JUMPDEST SLOAD DUP2 DUP2 AND ISZERO ISZERO DUP5 MSTORE PUSH1 0x8 SHR AND SWAP1 DUP3 ADD MSTORE SWAP1 JUMP JUMPDEST DUP5 MLOAD PUSH4 0x88310BAD PUSH1 0xE0 SHL DUP2 MSTORE PUSH1 0x4 SWAP1 REVERT JUMPDEST CALLER DUP6 MSTORE SWAP3 DUP6 MSTORE POP POP SWAP1 KECCAK256 SWAP2 MLOAD SWAP2 PUSH1 0xFF SWAP1 PUSH2 0x1955 DUP5 PUSH2 0x11B0 JUMP INVALID LOG2 PUSH5 0x6970667358 0x22 SLT KECCAK256 0xBE 0xC1 DELEGATECALL 0x5C PUSH24 0xFC945E5BBCF8AC2468477DE6663A6DC1A646D58CC88B05A4 JUMPI 0xAD 0x4D PUSH5 0x736F6C6343 STOP ADDMOD LT STOP CALLER PUSH1 0x80 DUP1 PUSH1 0x40 MSTORE CALLVALUE PUSH2 0x16 JUMPI PUSH2 0x11F SWAP1 DUP2 PUSH2 0x1C DUP3 CODECOPY RETURN JUMPDEST PUSH1 0x0 DUP1 REVERT INVALID PUSH1 0x80 PUSH1 0x40 MSTORE PUSH1 0x4 CALLDATASIZE LT ISZERO PUSH1 0x11 JUMPI PUSH1 0x0 DUP1 REVERT JUMPDEST PUSH1 0x0 DUP1 CALLDATALOAD PUSH1 0xE0 SHR DUP1 PUSH4 0x56D15DC8 EQ PUSH1 0x82 JUMPI DUP1 PUSH4 0x85E3F919 EQ PUSH1 0x8A JUMPI DUP1 PUSH4 0xE5362667 EQ PUSH1 0x82 JUMPI PUSH4 0xFF6FEF7D EQ PUSH1 0x45 JUMPI JUMPDEST PUSH1 0x0 DUP1 REVERT JUMPDEST CALLVALUE PUSH1 0x7B JUMPI PUSH1 0x40 CALLDATASIZE PUSH1 0x3 NOT ADD SLT PUSH1 0x7B JUMPI PUSH1 0x1 PUSH1 0x1 PUSH1 0xA0 SHL SUB PUSH1 0x4 CALLDATALOAD DUP2 DUP2 AND SUB PUSH1 0x7E JUMPI PUSH1 0x24 CALLDATALOAD SWAP1 DUP2 AND SUB PUSH1 0x7B JUMPI PUSH1 0x20 PUSH1 0x40 MLOAD PUSH1 0x1 DUP2 MSTORE RETURN JUMPDEST DUP1 REVERT JUMPDEST POP DUP1 REVERT JUMPDEST POP POP PUSH1 0x40 PUSH1 0xCF JUMP JUMPDEST POP CALLVALUE PUSH1 0x7B JUMPI PUSH1 0x96 CALLDATASIZE PUSH1 0x9E JUMP JUMPDEST POP POP POP PUSH1 0x40 MLOAD RETURN JUMPDEST PUSH1 0x60 SWAP1 PUSH1 0x3 NOT ADD SLT PUSH1 0x40 JUMPI PUSH1 0x1 PUSH1 0x1 PUSH1 0xA0 SHL SUB PUSH1 0x4 CALLDATALOAD DUP2 DUP2 AND DUP2 SUB PUSH1 0x40 JUMPI SWAP2 PUSH1 0x24 CALLDATALOAD SWAP2 PUSH1 0x44 CALLDATALOAD SWAP1 DUP2 AND DUP2 SUB PUSH1 0x40 JUMPI SWAP1 JUMP JUMPDEST POP CALLVALUE PUSH1 0x40 JUMPI PUSH1 0xDB CALLDATASIZE PUSH1 0x9E JUMP JUMPDEST POP POP POP PUSH1 0x20 PUSH1 0x40 MLOAD PUSH1 0x1 DUP2 MSTORE RETURN INVALID LOG2 PUSH5 0x6970667358 0x22 SLT KECCAK256 0xCF PUSH31 0x93E78AA4BC92124A192929C12C65BCF966963FA9955E19C9FEEA1A942FF064 PUSH20 0x6F6C634300081000330000000000000000000000 "},"methodIdentifiers":{"ballotIsActive(bytes32)":"5f98ac78","castVote(bytes32,uint256)":"75a12d72","closeProposal(bytes32)":"078f872c","createProposal((string,uint16,bool))":"2610c0f0","getACL()":"08737695","getActiveProposals(uint256,uint256)":"0c24af80","getPastProposals(uint256,uint256)":"f429273b","getVoteCounts(bytes32)":"782fb5d4","getVoteOf(bytes32,address)":"0879a534","getVotes(bytes32)":"4c051100","pastProposals(uint256)":"cb16128b","proposals(bytes32)":"32ed5b12","proxyVote(address,bytes32,uint256)":"d58f7399","proxyVoter()":"eb22efee","supportsInterface(bytes4)":"01ffc9a7"}}}}}