{"contracts/GaslessVoting.sol":{"GaslessVoting":{"abi":[{"inputs":[{"internalType":"address","name":"in_owner","type":"address"}],"stateMutability":"payable","type":"constructor"},{"inputs":[],"name":"DER_Split_Error","type":"error"},{"inputs":[],"name":"expmod_Error","type":"error"},{"inputs":[],"name":"k256Decompress_Invalid_Length_Error","type":"error"},{"inputs":[],"name":"k256DeriveY_Invalid_Prefix_Error","type":"error"},{"inputs":[],"name":"recoverV_Error","type":"error"},{"anonymous":false,"inputs":[{"indexed":false,"internalType":"address","name":"addr","type":"address"}],"name":"KeypairCreated","type":"event"},{"inputs":[],"name":"CREATEPROPOSAL_TYPE","outputs":[{"internalType":"string","name":"","type":"string"}],"stateMutability":"view","type":"function"},{"inputs":[],"name":"CREATEPROPOSAL_TYPEHASH","outputs":[{"internalType":"bytes32","name":"","type":"bytes32"}],"stateMutability":"view","type":"function"},{"inputs":[],"name":"DAO","outputs":[{"internalType":"contract AcceptsProxyVotes","name":"","type":"address"}],"stateMutability":"view","type":"function"},{"inputs":[],"name":"DOMAIN_SEPARATOR","outputs":[{"internalType":"bytes32","name":"","type":"bytes32"}],"stateMutability":"view","type":"function"},{"inputs":[],"name":"EIP712_DOMAIN_TYPEHASH","outputs":[{"internalType":"bytes32","name":"","type":"bytes32"}],"stateMutability":"view","type":"function"},{"inputs":[],"name":"VOTINGREQUEST_TYPE","outputs":[{"internalType":"string","name":"","type":"string"}],"stateMutability":"view","type":"function"},{"inputs":[],"name":"VOTINGREQUEST_TYPEHASH","outputs":[{"internalType":"bytes32","name":"","type":"bytes32"}],"stateMutability":"view","type":"function"},{"inputs":[],"name":"addKeypair","outputs":[],"stateMutability":"payable","type":"function"},{"inputs":[],"name":"getChainId","outputs":[{"internalType":"uint256","name":"","type":"uint256"}],"stateMutability":"view","type":"function"},{"inputs":[],"name":"listAddresses","outputs":[{"internalType":"address[]","name":"","type":"address[]"}],"stateMutability":"view","type":"function"},{"inputs":[{"internalType":"uint256","name":"gasPrice","type":"uint256"},{"internalType":"address","name":"creator","type":"address"},{"components":[{"internalType":"string","name":"ipfsHash","type":"string"},{"internalType":"uint16","name":"numChoices","type":"uint16"},{"internalType":"bool","name":"publishVotes","type":"bool"}],"internalType":"struct ProposalParams","name":"request","type":"tuple"},{"components":[{"internalType":"bytes32","name":"r","type":"bytes32"},{"internalType":"bytes32","name":"s","type":"bytes32"},{"internalType":"uint256","name":"v","type":"uint256"}],"internalType":"struct SignatureRSV","name":"rsv","type":"tuple"}],"name":"makeProposalTransaction","outputs":[{"internalType":"bytes","name":"","type":"bytes"}],"stateMutability":"view","type":"function"},{"inputs":[{"internalType":"uint256","name":"gasPrice","type":"uint256"},{"components":[{"internalType":"address","name":"voter","type":"address"},{"internalType":"bytes32","name":"proposalId","type":"bytes32"},{"internalType":"uint256","name":"choiceId","type":"uint256"}],"internalType":"struct VotingRequest","name":"request","type":"tuple"},{"components":[{"internalType":"bytes32","name":"r","type":"bytes32"},{"internalType":"bytes32","name":"s","type":"bytes32"},{"internalType":"uint256","name":"v","type":"uint256"}],"internalType":"struct SignatureRSV","name":"rsv","type":"tuple"}],"name":"makeVoteTransaction","outputs":[{"internalType":"bytes","name":"output","type":"bytes"}],"stateMutability":"view","type":"function"},{"inputs":[{"internalType":"bytes32","name":"ciphertextNonce","type":"bytes32"},{"internalType":"bytes","name":"data","type":"bytes"}],"name":"proxy","outputs":[],"stateMutability":"payable","type":"function"},{"inputs":[{"internalType":"contract AcceptsProxyVotes","name":"in_dao","type":"address"}],"name":"setDAO","outputs":[],"stateMutability":"nonpayable","type":"function"},{"inputs":[{"internalType":"bytes4","name":"interfaceID","type":"bytes4"}],"name":"supportsInterface","outputs":[{"internalType":"bool","name":"","type":"bool"}],"stateMutability":"pure","type":"function"}],"evm":{"bytecode":{"linkReferences":{},"object":"60e06040526020620031f08038038091601f19601f83011660e00160e0811060018060401b03821117620000ac575b60405260e03912620000a75760e0516001600160a01b0381168103620000a7576200005990620001ff565b60405161297690816200087a8239608051818181610ad90152610cda015260a0518181816106bd01528181610f540152612784015260c0518181816105fb015281816108d70152610eb00152f35b600080fd5b620000b6620000bc565b6200002e565b50634e487b7160e01b600052604160045260246000fd5b606081019081106001600160401b03821117620000ef57604052565b620000f9620000bc565b604052565b602081019081106001600160401b03821117620000ef57604052565b60e081019081106001600160401b03821117620000ef57604052565b601f909101601f19168101906001600160401b03821190821017620000ef57604052565b604051906200016982620000d3565b565b6020906001600160401b03811162000189575b601f01601f19160190565b62000193620000bc565b6200017e565b60405190602082016001600160401b03811183821017620001be575b60405260008252565b620001c8620000bc565b620001b5565b602081519101519060208110620001e3575090565b6000199060200360031b1b1690565b506040513d6000823e3d90fd5b6001600160a01b03908082166200032c5750335b6080908152604080517f8b73c3c69bb8fe3d512ecc4cf759cc79239f7b179b0ffacaa9a75d522b39400f602082019081527f3d031332b7b0ba57af08f6d3d4a2550664188a26ec72e0d1c02d2c32cd70f0ae928201929092527fc89efdaa54c0f20c7adf612882df0950f5a951637e0307cdcb4c672f298b8bc6606082015246928101929092523060a083015290620002ba8160c081015b03601f19810183528262000136565b51902060c052620002de620002d8620002d262000199565b620003b3565b620001ce565b60a052620002eb6200053b565b34158015620002f957505050565b600092839283928392839162000321575b34921690f1156200031757565b62000169620001f2565b6108fc91506200030a565b62000213565b60005b838110620003465750506000910152565b818101518382015260200162000335565b90602091620003728151809281855285808601910162000332565b601f01601f1916010190565b3d15620003ae573d9062000392826200016b565b91620003a2604051938462000136565b82523d6000602084013e565b606090565b60008091604051620003dd81620002ab602082019460208652604080840152606083019062000357565b51907301000000000000000000000000000000000000015afa620004006200037e565b90156200040a5790565b60405162461bcd60e51b815260206004820152601360248201527f72616e646f6d42797465733a206661696c6564000000000000000000000000006044820152606490fd5b50634e487b7160e01b600052601160045260246000fd5b90600182018092116200047557565b620001696200044f565b919082018092116200047557565b50634e487b7160e01b600052603260045260246000fd5b6002600054680100000000000000008110156200052b575b60018101806000558110156200051b575b600080526003602060002091020160018060a01b0383511660018060a01b03198254161781556020830151600182015501906040600180821b039101511660018060401b0319825416179055565b620005256200048d565b620004cd565b62000535620000bc565b620004bc565b60406200055881516200054e81620000fe565b60008152620003b3565b6000806200056683620001ce565b9284516200058b81620002ab6020820194600486528980840152606083019062000357565b51907301000000000000000000000000000000000000055afa620005ae6200037e565b90156200062a57906000620005dc620005d58460208062000627975183010191016200082f565b506200066e565b93620005e9825462000466565b6001600160a01b0386166000908152600160205260409020556200060c6200015a565b6001600160a01b0386168152926020840152820152620004a4565b90565b825162461bcd60e51b815260206004820152601b60248201527f67656e207369676e696e67206b6579706169723a206661696c656400000000006044820152606490fd5b60218151036200078f5760206021820151918051156200077f575b015160f81c600060028214158062000773575b62000761578060405160208101906020825260206040820152602060608201526401000003d01980600781808a80098a0908608083015263400000f4600160fe1b0360a083015260c0808301919091528152620006f9816200011a565b519060055afa916200070a6200037e565b92156200074f576200073662000730620007286200062795620001ce565b93846200047f565b60011690565b15620007b657906200074890620007a1565b90620007b6565b60405163102875ed60e01b8152600490fd5b60405163ab4be04160e01b8152600490fd5b5060038214156200069c565b620007896200048d565b62000689565b604051636446a2c560e11b8152600490fd5b6401000003d019908103919082116200047557565b6040519160208301918252604083015260408252620007d582620000d3565b905190206001600160a01b031690565b81601f82011215620000a7578051620007fe816200016b565b926200080e604051948562000136565b81845260208284010111620000a75762000627916020808501910162000332565b919091604081840312620000a75780516001600160401b039390848111620000a757816200085f918401620007e5565b936020830151908111620000a757620006279201620007e556fe60806040526004361015610013575b600080fd5b60003560e01c806301ffc9a71461013f5780631172c20d146101365780631c356fa61461012d5780632e9d82f2146101245780633408e4701461011b5780633644e51514610112578063931203971461010957806394f5c7161461010057806398fabd3a146100f7578063c09c1b23146100ee578063c7977be7146100e5578063d633a990146100dc578063e73a914c146100d3578063fa4ccde3146100ca5763fb227358146100c257600080fd5b61000e61109a565b5061000e610d20565b5061000e610cb2565b5061000e610ac1565b5061000e610a85565b5061000e610a12565b5061000e6109e8565b5061000e6109cc565b5061000e610993565b5061000e6108be565b5061000e6108a2565b5061000e6104ab565b5061000e61033b565b5061000e610311565b503461000e57602036600319011261000e5760043563ffffffff60e01b811680910361000e576020906301ffc9a760e01b8114908115610185575b506040519015158152f35b63174ec17960e11b1490503861017a565b50634e487b7160e01b600052604160045260246000fd5b606081019081106001600160401b038211176101c857604052565b6101d0610196565b604052565b60e081019081106001600160401b038211176101c857604052565b602081019081106001600160401b038211176101c857604052565b604081019081106001600160401b038211176101c857604052565b90601f801991011681019081106001600160401b038211176101c857604052565b60405190610254826101d5565b565b60405190610254826101ad565b6020906001600160401b038111610280575b601f01601f19160190565b610288610196565b610275565b6040519061029a826101f0565b60008252565b604051906102ad826101ad565b604082527f7333322070726f706f73616c49642c75696e743235362063686f6963654964296040837f566f74696e6752657175657374286164647265737320766f7465722c6279746560208201520152565b6103076102a0565b6020815191012090565b503461000e57600036600319011261000e57602061032d6102a0565b818151910120604051908152f35b503461000e5760008060031936011261040b5780546103598161161f565b916103676040519384610226565b8183526103738261161f565b6020928484019291601f1901368437815b8181106103d457505060405193838594850191818652518092526040850193925b8281106103b457505050500390f35b83516001600160a01b0316855286955093810193928101926001016103a5565b806103e6610401929795969497611154565b50546001600160a01b03166103fb82876116e7565b52611645565b9491939294610384565b80fd5b606090602319011261000e57602490565b606090608319011261000e57608490565b606090606319011261000e57606490565b9081606091031261000e5790565b60005b8381106104625750506000910152565b8181015183820152602001610452565b9060209161048b8151809281855285808601910161044f565b601f01601f1916010190565b9060206104a8928181520190610472565b90565b503461000e5760e036600319011261000e576104c63661040e565b6104cf3661041f565b6002546104ec906001600160a01b03165b6001600160a01b031690565b604091825193630873769560e01b855260209485928382600481885afa918215610895575b600092610866575b50838301359161058a6105668661052f8761171e565b8a5163e536266760e01b81526001600160a01b03808c16600483015260248201899052909116604482015291829081906064820190565b038160018060a01b038097165afa908115610859575b60009161082c575b506110b7565b6105926102ff565b918761059d8661171e565b81518881019586526001600160a01b039091166020860152604085018690528682013560608601819052989094929085608085010393601f1996858880970182526105e89082610226565b519020835161190160f01b8b82019081527f000000000000000000000000000000000000000000000000000000000000000060028201526022810192909252806042830103868101825261063c9082610226565b519020948961064a8a61171e565b85518881528587013560ff16602082015285356040820152948201356060860152600080529360805a916001600093fa159c61073d6108109c61081b9f9a61070a6107749a6106b9610765996107929f986107499961081f575b6000516001600160a01b03165b911614611747565b89517f000000000000000000000000000000000000000000000000000000000000000087820181815260208101939093529b6107019082604085015b03908101835282610226565b5190209d61171e565b975197889463d58f739960e01b9086015260248501604091949392606082019560018060a01b0316825260208201520152565b03878101855284610226565b6107598b519384928b8401611786565b03858101835282610226565b8561076e61028d565b9261247f565b865163c09c1b2360e01b868201529384916106f591602484016117a8565b6107a261079d6124f2565b6117bf565b80519091906001600160a01b0316906107c886858501519401516001600160401b031690565b936107e36107d4610247565b6001600160401b039096168652565b600435908501526203d090868501525b3060608501526000608085015260a08401524660c0840152611867565b905191829182610497565b0390f35b6108276110be565b6106a4565b61084c9150873d8911610852575b6108448183610226565b810190611732565b38610584565b503d61083a565b6108616110be565b61057c565b610887919250843d861161088e575b61087f8183610226565b810190611709565b9038610519565b503d610875565b61089d6110be565b610511565b503461000e57600036600319011261000e576020604051468152f35b503461000e57600036600319011261000e5760206040517f00000000000000000000000000000000000000000000000000000000000000008152f35b60405190608082018281106001600160401b03821117610986575b60405260538252722c626f6f6c207075626c697368566f7465732960681b6060837f43726561746550726f706f73616c28616464726573732063726561746f722c7360208201527f7472696e672069706673486173682c75696e743136206e756d43686f6963657360408201520152565b61098e610196565b610915565b503461000e57600036600319011261000e5761081b6109b06108fa565b604051918291602083526020830190610472565b6103076108fa565b503461000e57600036600319011261000e57602061032d6108fa565b503461000e57600036600319011261000e576002546040516001600160a01b039091168152602090f35b50604036600319011261000e576024356001600160401b03811161000e573660238201121561000e578060040135610a4981610263565b90610a576040519283610226565b808252366024828501011161000e576020816000926024610a8396018386013783010152600435612732565b005b503461000e57600036600319011261000e5760206040517f8b73c3c69bb8fe3d512ecc4cf759cc79239f7b179b0ffacaa9a75d522b39400f8152f35b5060008060031936011261040b576001600160a01b037f000000000000000000000000000000000000000000000000000000000000000081163303610c9d57604090610b198251610b11816101f0565b84815261151b565b908380610b258461129e565b938551610b5b81610b4d6020820194610b3e8660049052565b8a808401526060830190610472565b03601f198101835282610226565b51906005600160981b015afa610b6f6114be565b9015610c595790610bdf610b97610b91846020808a98975183010191016115dc565b506112c1565b92610ba285546110e2565b6001600160a01b038516600090815260016020526040902055610bc3610256565b6001600160a01b0385168152906020820152848682015261119c565b83516001600160a01b03831681527f486311bbaec8c22afaf10c0398245071a2790d613d99d80cb5d6eb7f3712a26b90602090a13415908115610c2157838551f35b8392839283928391610c4f575b34921690f115610c42575b81388080838551f35b610c4a6110be565b610c39565b6108fc9150610c2e565b835162461bcd60e51b815260206004820152601b60248201527f67656e207369676e696e67206b6579706169723a206661696c656400000000006044820152606490fd5b5080fd5b6001600160a01b0381160361000e57565b503461000e57602036600319011261000e57600435610cd081610ca1565b6001600160a01b037f00000000000000000000000000000000000000000000000000000000000000008116330361000e576002549181831661000e576001600160a01b0319909216911617600255005b503461000e5760c036600319011261000e57602435610d3e81610ca1565b6044356001600160401b03811161000e57610d5d903690600401610441565b90610d6736610430565b600254909190610d7f906001600160a01b03166104e0565b92604092835190630873769560e01b825260209182816004818a5afa90811561108d575b600091611070575b50855160016290108360e01b031981526001600160a01b038881166004830152868116602483015291610dfc919085908290604490829087165afa908115611063575b600091611046575b506125a1565b610e046109c4565b918386610e1187806125ed565b8a9691965180978582018093610e269261261f565b0396601f19978881018252610e3b9082610226565b519020610e49898501612639565b91610e558a8d01612643565b8c518681019283526001600160a01b039095166020830152604082019290925261ffff909216606083015215156080820152908060a08301038681018252610e9d9082610226565b519020885161190160f01b8382019081527f0000000000000000000000000000000000000000000000000000000000000000600282015260228101929092528060428301038681018252610ef19082610226565b5190208851818152838a013560ff16602082015283356040820152928201356060840152600080529160805a916001600093fa1561076561081b99610f5061081099610fc89661073d9561081f576000516001600160a01b03166106b1565b89517f0000000000000000000000000000000000000000000000000000000000000000888201818152602081019690965294610fb891610f9a8160408401038a8101835282610226565b519020988b519485916302610c0f60e41b8b84015260248301612663565b6107598a51938492898401611786565b610fd361079d6124f2565b8051909390611027906001600160a01b031693610ffd89848801519701516001600160401b031690565b9661101b8a5195869263c09c1b2360e01b87850152602484016117a8565b03908101845283610226565b6110326107d4610247565b60043590850152620f4240868501526107f3565b61105d9150853d8711610852576108448183610226565b38610df6565b61106b6110be565b610dee565b6110879150833d851161088e5761087f8183610226565b38610dab565b6110956110be565b610da3565b503461000e57600036600319011261000e5761081b6109b06102a0565b1561000e57565b506040513d6000823e3d90fd5b50634e487b7160e01b600052601160045260246000fd5b90600182018092116110f057565b6102546110cb565b90602382018092116110f057565b60040190816004116110f057565b90600482018092116110f057565b90600282018092116110f057565b919082018092116110f057565b50634e487b7160e01b600052603260045260246000fd5b60039060005481101561118f575b60008052027f290decd9548b62a8d60345a988386fc84ba6bc95484008f6362f93160ef3e5630190600090565b61119761113d565b611162565b610254907f290decd9548b62a8d60345a988386fc84ba6bc95484008f6362f93160ef3e5656001600160401b036040600360005468010000000000000000811015611291575b6001810180600055811015611284575b600080520293847f290decd9548b62a8d60345a988386fc84ba6bc95484008f6362f93160ef3e5630160018060a01b038251166bffffffffffffffffffffffff60a01b82541617905560208101517f290decd9548b62a8d60345a988386fc84ba6bc95484008f6362f93160ef3e5648601550151169101906001600160401b03166001600160401b0319825416179055565b61128c61113d565b6111f2565b611299610196565b6111e2565b6020815191015190602081106112b2575090565b6000199060200360031b1b1690565b60218151036113cb5760206021820151918051156113be575b015160f81c60006002821415806113b3575b6113a1578060405160208101906020825260206040820152602060608201526401000003d01980600781808a80098a0908608083015263400000f4600160fe1b0360a083015260c0808301919091528152611346816101d5565b519060055afa916113556114be565b921561138f5761137a61137461136d6104a89561129e565b9384611130565b60011690565b156114ee579061138990611471565b906114ee565b60405163102875ed60e01b8152600490fd5b60405163ab4be04160e01b8152600490fd5b5060038214156112ec565b6113c661113d565b6112da565b604051636446a2c560e11b8152600490fd5b6020908051156113eb570190565b6113f361113d565b0190565b6022908051600210156113eb570190565b6021908051600110156113eb570190565b6023908051600310156113eb570190565b6024908051600410156113eb570190565b90602091805182101561144d57010190565b61145561113d565b010190565b50634e487b7160e01b600052601260045260246000fd5b6401000003d019908103919082116110f057565b601a198101919082116110f057565b6000198101919082116110f057565b60200390602082116110f057565b919082039182116110f057565b3d156114e9573d906114cf82610263565b916114dd6040519384610226565b82523d6000602084013e565b606090565b604051916020830191825260408301526040825261150b826101ad565b905190206001600160a01b031690565b6000809160405161154281610b4d6020820194602086526040808401526060830190610472565b51906001600160981b015afa6115566114be565b901561155f5790565b60405162461bcd60e51b81526020600482015260136024820152721c985b991bdb509e5d195cce8819985a5b1959606a1b6044820152606490fd5b81601f8201121561000e5780516115b081610263565b926115be6040519485610226565b8184526020828401011161000e576104a8916020808501910161044f565b91909160408184031261000e578051926001600160401b039384811161000e578161160891840161159a565b93602083015190811161000e576104a8920161159a565b6020906001600160401b038111611638575b60051b0190565b611640610196565b611631565b6001906000198114611655570190565b6113f36110cb565b6040908051600110156113eb570190565b6060908051600210156113eb570190565b6080908051600310156113eb570190565b60a0908051600410156113eb570190565b60c0908051600510156113eb570190565b60e0908051600610156113eb570190565b610100908051600710156113eb570190565b610120908051600810156113eb570190565b60209181518110156116fc575b60051b010190565b61170461113d565b6116f4565b9081602091031261000e57516104a881610ca1565b356104a881610ca1565b8015150361000e57565b9081602091031261000e57516104a881611728565b1561174e57565b60405162461bcd60e51b815260206004820152601060248201526f496e76616c696420526571756573742160801b6044820152606490fd5b6001600160a01b0390911681526040602082018190526104a892910190610472565b6040906104a8939281528160208201520190610472565b906040516117cc816101ad565b82546001600160a01b03168152600183015460208201526002909201546001600160401b03166040830152565b806000190460021181151516611810575b60011b90565b6118186110cb565b61180a565b6001600160fd1b038111600116611835575b60031b90565b61183d6110cb565b61182f565b8060001904610100118115151661185a575b60081b90565b6118626110cb565b611854565b9291611871611bae565b5060c081018051946040956000808861193b61195e6118a98351611894816101ad565b8581526020978689830152858201528a611a47565b83516118d18882816118c4818301968781519384920161044f565b8101038084520182610226565b519020996118dd611bae565b50835190878201528681526118f18161020b565b8351908b888301528782526119058261020b565b6106f58551611913816101f0565b87815261194e875196879460808d87019a61192e8c60049052565b87015260a0860190610472565b601f199586868303016060870152610472565b9084848303016080850152610472565b51906006600160981b015afa906119736114be565b91156119c357506104a8959661199a6119bc936119926119b794611be0565b978891611de2565b8501926119b16119aa8551611485565b91516117f9565b90611130565b6110f8565b9052611a47565b60649088519062461bcd60e51b82526004820152600c60248201526b1cda59db8e8819985a5b195960a21b6044820152fd5b6040519061014082018281106001600160401b03821117611a3a575b604052600982528160005b6101208110611a29575050565b806060602080938501015201611a1c565b611a42610196565b611a11565b611b9560206104a893611b3b60a0611a5d6119f5565b95611a86611a81611a7583516001600160401b031690565b6001600160401b031690565b6121b8565b611a8f886113dd565b52611a99876113dd565b50611aa6858201516121b8565b611aaf8861165d565b52611ab98761165d565b50611ad4611a81611a7560408401516001600160401b031690565b611add8861166e565b52611ae78761166e565b506060810151611aff906001600160a01b0316612186565b611b088861167f565b52611b128761167f565b50611b2060808201516121b8565b611b2988611690565b52611b3387611690565b500151611ede565b611b44856116a1565b52611b4e846116a1565b50611b5c60408201516121b8565b611b65856116b2565b52611b6f846116b2565b50611b7a81516121b8565b611b83856116c3565b52611b8d846116c3565b5001516121b8565b611b9e826116d5565b52611ba8816116d5565b5061205a565b60405190611bbb826101ad565b60006040838281528260208201520152565b906113f36020928281519485920161044f565b90611be9611bae565b916008815110611d9b576001600160f81b0319600360fc1b81611c1c611c0e856113dd565b516001600160f81b03191690565b1603611d9b57600160f91b8082611c35611c0e866113f7565b1603611d9b57611c59611c53611c4d611c0e86611408565b60f81c90565b60ff1690565b91611c6c611c53611c4d611c0e87611419565b9260218411611d9b57611c7e84611106565b90611c9a611c53611c4d611c0e611c94866110e2565b8a61143b565b9360218511611d9b57611cc0611cb3611c0e858a61143b565b6001600160f81b03191690565b03611d9b5780611cd8611cd38688611130565b611114565b03611d9b57611ce8865191611122565b03611d9b57611cf690611122565b9060049060218514611dad575b60218414611d68575b50906020809286010151940101519160208110611d51575b5060208110611d39575b509083526020830152565b611d45611d4a916114a3565b61181d565b1c38611d2e565b611d45611d60919492946114a3565b1c9138611d24565b611d78611c0e848896949661143b565b16611d9b576020611d92611d8c82946110e2565b92611494565b93919250611d0c565b6040516386cd05c560e01b8152600490fd5b939084611dbc611c0e8861142a565b16611dd35750611dcd600591611494565b93611d03565b6040516386cd05c560e01b8152fd5b9160408101601b8152815191602081016020611e1c825160405196888860609194939260808201958252601b602083015260408201520152565b856000968792838052039060015afa15611ed1575b83516001600160a01b039687169616869003611e50575b505050505050565b611ea294611e868593601c602096525192516040519384938460609194939260808201958252601c602083015260408201520152565b838052039060015afa15611ec4575b516001600160a01b031690565b03611eb257388080808080611e48565b604051634532600d60e01b8152600490fd5b611ecc6110be565b611e95565b611ed96110be565b611e31565b906000918051926001938481149081612034575b5015611efd57509150565b8151936038851015611f61575092610b4d6104a892611f5b9495611f3e611f2e60ff611f27612272565b96166122ea565b60f81b6001600160f81b03191690565b901a611f49846113dd565b535b6040519485936020850190611bcd565b90611bcd565b9190808380805b612002575b5050611f80611f7b836110e2565b6122a6565b93611f98611f2e611f9360ff86166122ea565b6122d8565b821a611fa3866113dd565b535b82811115611fc357505050611f5b92935090610b4d6104a892611f4b565b80611feb611f2e611c53611c53611fe5611fe0611ffd978a6114b1565b61230e565b8c61225c565b831a611ff7828861143b565b53611645565b611fa5565b909261200e848961225c565b1561202c5761201f61202591611645565b93611842565b9080611f68565b925080611f6d565b90501561204d575b6080602083015160f81c1038611ef2565b61205561113d565b61203c565b6120639061232b565b8051600060388210156120d4575060206104a89161208e611f2e60ff612087612272565b93166122fc565b60001a61209a826113dd565b535b60405193816120b4869351809286808701910161044f565b82016120c88251809386808501910161044f565b01038084520182610226565b6001918280805b61215a575b50506120ee611f7b836110e2565b92612101611f2e611f9360ff86166122fc565b60001a61210d856113dd565b535b828111156121255750505060206104a89161209c565b80612148611f2e611c53611c53612142611fe0612155978a6114b1565b8761225c565b60001a611ff7828761143b565b61210f565b9092612166848461225c565b1561217e5761201f61217791611645565b90806120db565b9250806120e0565b6104a890604051906bffffffffffffffffffffffff199060601b166020820152601481526121b38161020b565b611ede565b906040516121d281610b4d60209586830160209181520190565b60009283905b808210612232575b506121ed611f7b826114a3565b91845b83518110156122245761221f90612213611c0e61220c86611645565b958561143b565b871a611ff7828761143b565b6121f0565b5050506104a8919250611ede565b90612243611cb3611c0e838661143b565b6122565761225090611645565b906121d8565b906121e0565b8115612266570490565b61226e61145a565b0490565b6040519061227f8261020b565b6001825260203681840137565b60405190612299826101f0565b6000808352366020840137565b906122b082610263565b6122bd6040519182610226565b82815280926122ce601f1991610263565b0190602036910137565b60ff60379116019060ff82116110f057565b60ff60809116019060ff82116110f057565b60ff60c09116019060ff82116110f057565b601f811161231e575b6101000a90565b6123266110cb565b612317565b8051156123c45790600091825b81518410156123665761235a6123609161235286856116e7565b515190611130565b93611645565b92612338565b612372919293506122a6565b906020808301936000945b83518610156123bc576123b06123b6916123a661239a89886116e7565b518681519101836123cd565b61235288876116e7565b95611645565b9461237d565b509350505090565b506104a861228c565b92905b60209384841061242f5781518152848101809111612422575b938101809111612415575b91601f198101908111612408575b916123d0565b6124106110cb565b612402565b61241d6110cb565b6123f4565b61242a6110cb565b6123e9565b9290919350600019906020036101000a0190811990511690825116179052565b926104a894926124719285526020850152608060408501526080840190610472565b916060818403910152610472565b909161249e60009493610b4d869560405194859360208501978861244f565b51906003600160981b015afa6124b26114be565b90156124bb5790565b60405162461bcd60e51b815260206004820152600f60248201526e195b98dc9e5c1d0e8819985a5b1959608a1b6044820152606490fd5b600080604051612501816101f0565b81815260405161252781610b4d6020820194600286526040808401526060830190610472565b51906001600160981b015afa61253b6114be565b901561155f57805160209091015161257b916001600160f01b031991828116916002811061258c575b50506000549150811561257f575b60f01c06611154565b5090565b61258761145a565b612572565b8391925060020360031b1b1616803880612564565b156125a857565b60405162461bcd60e51b815260206004820152601b60248201527f41434c20646973616c6c6f777320706f6c6c206372656174696f6e00000000006044820152606490fd5b903590601e198136030182121561000e57018035906001600160401b03821161000e5760200191813603831361000e57565b908092918237016000815290565b61ffff81160361000e57565b356104a88161262d565b356104a881611728565b35906102548261262d565b359061025482611728565b602081528135601e198336030181121561000e5782016020813591016001600160401b03821161000e57813603811361000e576126db604060a0958461048b94606060208901528160808901528888013760008786880101526126d56126cb6020830161264d565b61ffff1687840152565b01612658565b15156060840152565b91909160408184031261000e5780516126fc81610ca1565b9260208201516001600160401b03811161000e576104a8920161159a565b9060016001600160401b03809316019182116110f057565b91905a9060009333855260016020526040852054801561281b57916127d58661025496976127b76127a860029661277761280999600019810190811161280e57611154565b509661278161028d565b917f000000000000000000000000000000000000000000000000000000000000000061281f565b602080825183010191016126e4565b80519160209091019034906001600160a01b03165af16105846114be565b016127ef6127ea82546001600160401b031690565b61271a565b6001600160401b03166001600160401b0319825416179055565b612892565b6128166110cb565b611154565b8580fd5b909161283e60009493610b4d869560405194859360208501978861244f565b51906004600160981b015afa6128526114be565b901561285b5790565b60405162461bcd60e51b815260206004820152600f60248201526e191958dc9e5c1d0e8819985a5b1959608a1b6044820152606490fd5b47908161289d575050565b6128d3905a908103908111612933575b614e208101809111612926575b80600019043a1181151516612919575b48903a02611130565b8181111561291257505b801580156128e9575050565b600080809381938290612909575b3390f11561290157565b6102546110be565b506108fc6128f7565b90506128dd565b6129216110cb565b6128ca565b61292e6110cb565b6128ba565b61293b6110cb565b6128ad56fea2646970667358221220e3a1dd90780e245b9740598d592219671050dc476329687d5aedd09143f25b4f64736f6c63430008100033","opcodes":"PUSH1 0xE0 PUSH1 0x40 MSTORE PUSH1 0x20 PUSH3 0x31F0 DUP1 CODESIZE SUB DUP1 SWAP2 PUSH1 0x1F NOT PUSH1 0x1F DUP4 ADD AND PUSH1 0xE0 ADD PUSH1 0xE0 DUP2 LT PUSH1 0x1 DUP1 PUSH1 0x40 SHL SUB DUP3 GT OR PUSH3 0xAC JUMPI JUMPDEST PUSH1 0x40 MSTORE PUSH1 0xE0 CODECOPY SLT PUSH3 0xA7 JUMPI PUSH1 0xE0 MLOAD PUSH1 0x1 PUSH1 0x1 PUSH1 0xA0 SHL SUB DUP2 AND DUP2 SUB PUSH3 0xA7 JUMPI PUSH3 0x59 SWAP1 PUSH3 0x1FF JUMP JUMPDEST PUSH1 0x40 MLOAD PUSH2 0x2976 SWAP1 DUP2 PUSH3 0x87A DUP3 CODECOPY PUSH1 0x80 MLOAD DUP2 DUP2 DUP2 PUSH2 0xAD9 ADD MSTORE PUSH2 0xCDA ADD MSTORE PUSH1 0xA0 MLOAD DUP2 DUP2 DUP2 PUSH2 0x6BD ADD MSTORE DUP2 DUP2 PUSH2 0xF54 ADD MSTORE PUSH2 0x2784 ADD MSTORE PUSH1 0xC0 MLOAD DUP2 DUP2 DUP2 PUSH2 0x5FB ADD MSTORE DUP2 DUP2 PUSH2 0x8D7 ADD MSTORE PUSH2 0xEB0 ADD MSTORE RETURN JUMPDEST PUSH1 0x0 DUP1 REVERT JUMPDEST PUSH3 0xB6 PUSH3 0xBC JUMP JUMPDEST PUSH3 0x2E JUMP JUMPDEST POP PUSH4 0x4E487B71 PUSH1 0xE0 SHL PUSH1 0x0 MSTORE PUSH1 0x41 PUSH1 0x4 MSTORE PUSH1 0x24 PUSH1 0x0 REVERT JUMPDEST PUSH1 0x60 DUP2 ADD SWAP1 DUP2 LT PUSH1 0x1 PUSH1 0x1 PUSH1 0x40 SHL SUB DUP3 GT OR PUSH3 0xEF JUMPI PUSH1 0x40 MSTORE JUMP JUMPDEST PUSH3 0xF9 PUSH3 0xBC JUMP JUMPDEST PUSH1 0x40 MSTORE JUMP JUMPDEST PUSH1 0x20 DUP2 ADD SWAP1 DUP2 LT PUSH1 0x1 PUSH1 0x1 PUSH1 0x40 SHL SUB DUP3 GT OR PUSH3 0xEF JUMPI PUSH1 0x40 MSTORE JUMP JUMPDEST PUSH1 0xE0 DUP2 ADD SWAP1 DUP2 LT PUSH1 0x1 PUSH1 0x1 PUSH1 0x40 SHL SUB DUP3 GT OR PUSH3 0xEF JUMPI PUSH1 0x40 MSTORE JUMP JUMPDEST PUSH1 0x1F SWAP1 SWAP2 ADD PUSH1 0x1F NOT AND DUP2 ADD SWAP1 PUSH1 0x1 PUSH1 0x1 PUSH1 0x40 SHL SUB DUP3 GT SWAP1 DUP3 LT OR PUSH3 0xEF JUMPI PUSH1 0x40 MSTORE JUMP JUMPDEST PUSH1 0x40 MLOAD SWAP1 PUSH3 0x169 DUP3 PUSH3 0xD3 JUMP JUMPDEST JUMP JUMPDEST PUSH1 0x20 SWAP1 PUSH1 0x1 PUSH1 0x1 PUSH1 0x40 SHL SUB DUP2 GT PUSH3 0x189 JUMPI JUMPDEST PUSH1 0x1F ADD PUSH1 0x1F NOT AND ADD SWAP1 JUMP JUMPDEST PUSH3 0x193 PUSH3 0xBC JUMP JUMPDEST PUSH3 0x17E JUMP JUMPDEST PUSH1 0x40 MLOAD SWAP1 PUSH1 0x20 DUP3 ADD PUSH1 0x1 PUSH1 0x1 PUSH1 0x40 SHL SUB DUP2 GT DUP4 DUP3 LT OR PUSH3 0x1BE JUMPI JUMPDEST PUSH1 0x40 MSTORE PUSH1 0x0 DUP3 MSTORE JUMP JUMPDEST PUSH3 0x1C8 PUSH3 0xBC JUMP JUMPDEST PUSH3 0x1B5 JUMP JUMPDEST PUSH1 0x20 DUP2 MLOAD SWAP2 ADD MLOAD SWAP1 PUSH1 0x20 DUP2 LT PUSH3 0x1E3 JUMPI POP SWAP1 JUMP JUMPDEST PUSH1 0x0 NOT SWAP1 PUSH1 0x20 SUB PUSH1 0x3 SHL SHL AND SWAP1 JUMP JUMPDEST POP PUSH1 0x40 MLOAD RETURNDATASIZE PUSH1 0x0 DUP3 RETURNDATACOPY RETURNDATASIZE SWAP1 REVERT JUMPDEST PUSH1 0x1 PUSH1 0x1 PUSH1 0xA0 SHL SUB SWAP1 DUP1 DUP3 AND PUSH3 0x32C JUMPI POP CALLER JUMPDEST PUSH1 0x80 SWAP1 DUP2 MSTORE PUSH1 0x40 DUP1 MLOAD PUSH32 0x8B73C3C69BB8FE3D512ECC4CF759CC79239F7B179B0FFACAA9A75D522B39400F PUSH1 0x20 DUP3 ADD SWAP1 DUP2 MSTORE PUSH32 0x3D031332B7B0BA57AF08F6D3D4A2550664188A26EC72E0D1C02D2C32CD70F0AE SWAP3 DUP3 ADD SWAP3 SWAP1 SWAP3 MSTORE PUSH32 0xC89EFDAA54C0F20C7ADF612882DF0950F5A951637E0307CDCB4C672F298B8BC6 PUSH1 0x60 DUP3 ADD MSTORE CHAINID SWAP3 DUP2 ADD SWAP3 SWAP1 SWAP3 MSTORE ADDRESS PUSH1 0xA0 DUP4 ADD MSTORE SWAP1 PUSH3 0x2BA DUP2 PUSH1 0xC0 DUP2 ADD JUMPDEST SUB PUSH1 0x1F NOT DUP2 ADD DUP4 MSTORE DUP3 PUSH3 0x136 JUMP JUMPDEST MLOAD SWAP1 KECCAK256 PUSH1 0xC0 MSTORE PUSH3 0x2DE PUSH3 0x2D8 PUSH3 0x2D2 PUSH3 0x199 JUMP JUMPDEST PUSH3 0x3B3 JUMP JUMPDEST PUSH3 0x1CE JUMP JUMPDEST PUSH1 0xA0 MSTORE PUSH3 0x2EB PUSH3 0x53B JUMP JUMPDEST CALLVALUE ISZERO DUP1 ISZERO PUSH3 0x2F9 JUMPI POP POP POP JUMP JUMPDEST PUSH1 0x0 SWAP3 DUP4 SWAP3 DUP4 SWAP3 DUP4 SWAP3 DUP4 SWAP2 PUSH3 0x321 JUMPI JUMPDEST CALLVALUE SWAP3 AND SWAP1 CALL ISZERO PUSH3 0x317 JUMPI JUMP JUMPDEST PUSH3 0x169 PUSH3 0x1F2 JUMP JUMPDEST PUSH2 0x8FC SWAP2 POP PUSH3 0x30A JUMP JUMPDEST PUSH3 0x213 JUMP JUMPDEST PUSH1 0x0 JUMPDEST DUP4 DUP2 LT PUSH3 0x346 JUMPI POP POP PUSH1 0x0 SWAP2 ADD MSTORE JUMP JUMPDEST DUP2 DUP2 ADD MLOAD DUP4 DUP3 ADD MSTORE PUSH1 0x20 ADD PUSH3 0x335 JUMP JUMPDEST SWAP1 PUSH1 0x20 SWAP2 PUSH3 0x372 DUP2 MLOAD DUP1 SWAP3 DUP2 DUP6 MSTORE DUP6 DUP1 DUP7 ADD SWAP2 ADD PUSH3 0x332 JUMP JUMPDEST PUSH1 0x1F ADD PUSH1 0x1F NOT AND ADD ADD SWAP1 JUMP JUMPDEST RETURNDATASIZE ISZERO PUSH3 0x3AE JUMPI RETURNDATASIZE SWAP1 PUSH3 0x392 DUP3 PUSH3 0x16B JUMP JUMPDEST SWAP2 PUSH3 0x3A2 PUSH1 0x40 MLOAD SWAP4 DUP5 PUSH3 0x136 JUMP JUMPDEST DUP3 MSTORE RETURNDATASIZE PUSH1 0x0 PUSH1 0x20 DUP5 ADD RETURNDATACOPY JUMP JUMPDEST PUSH1 0x60 SWAP1 JUMP JUMPDEST PUSH1 0x0 DUP1 SWAP2 PUSH1 0x40 MLOAD PUSH3 0x3DD DUP2 PUSH3 0x2AB PUSH1 0x20 DUP3 ADD SWAP5 PUSH1 0x20 DUP7 MSTORE PUSH1 0x40 DUP1 DUP5 ADD MSTORE PUSH1 0x60 DUP4 ADD SWAP1 PUSH3 0x357 JUMP JUMPDEST MLOAD SWAP1 PUSH20 0x100000000000000000000000000000000000001 GAS STATICCALL PUSH3 0x400 PUSH3 0x37E JUMP JUMPDEST SWAP1 ISZERO PUSH3 0x40A JUMPI SWAP1 JUMP JUMPDEST PUSH1 0x40 MLOAD PUSH3 0x461BCD PUSH1 0xE5 SHL DUP2 MSTORE PUSH1 0x20 PUSH1 0x4 DUP3 ADD MSTORE PUSH1 0x13 PUSH1 0x24 DUP3 ADD MSTORE PUSH32 0x72616E646F6D42797465733A206661696C656400000000000000000000000000 PUSH1 0x44 DUP3 ADD MSTORE PUSH1 0x64 SWAP1 REVERT JUMPDEST POP PUSH4 0x4E487B71 PUSH1 0xE0 SHL PUSH1 0x0 MSTORE PUSH1 0x11 PUSH1 0x4 MSTORE PUSH1 0x24 PUSH1 0x0 REVERT JUMPDEST SWAP1 PUSH1 0x1 DUP3 ADD DUP1 SWAP3 GT PUSH3 0x475 JUMPI JUMP JUMPDEST PUSH3 0x169 PUSH3 0x44F JUMP JUMPDEST SWAP2 SWAP1 DUP3 ADD DUP1 SWAP3 GT PUSH3 0x475 JUMPI JUMP JUMPDEST POP PUSH4 0x4E487B71 PUSH1 0xE0 SHL PUSH1 0x0 MSTORE PUSH1 0x32 PUSH1 0x4 MSTORE PUSH1 0x24 PUSH1 0x0 REVERT JUMPDEST PUSH1 0x2 PUSH1 0x0 SLOAD PUSH9 0x10000000000000000 DUP2 LT ISZERO PUSH3 0x52B JUMPI JUMPDEST PUSH1 0x1 DUP2 ADD DUP1 PUSH1 0x0 SSTORE DUP2 LT ISZERO PUSH3 0x51B JUMPI JUMPDEST PUSH1 0x0 DUP1 MSTORE PUSH1 0x3 PUSH1 0x20 PUSH1 0x0 KECCAK256 SWAP2 MUL ADD PUSH1 0x1 DUP1 PUSH1 0xA0 SHL SUB DUP4 MLOAD AND PUSH1 0x1 DUP1 PUSH1 0xA0 SHL SUB NOT DUP3 SLOAD AND OR DUP2 SSTORE PUSH1 0x20 DUP4 ADD MLOAD PUSH1 0x1 DUP3 ADD SSTORE ADD SWAP1 PUSH1 0x40 PUSH1 0x1 DUP1 DUP3 SHL SUB SWAP2 ADD MLOAD AND PUSH1 0x1 DUP1 PUSH1 0x40 SHL SUB NOT DUP3 SLOAD AND OR SWAP1 SSTORE JUMP JUMPDEST PUSH3 0x525 PUSH3 0x48D JUMP JUMPDEST PUSH3 0x4CD JUMP JUMPDEST PUSH3 0x535 PUSH3 0xBC JUMP JUMPDEST PUSH3 0x4BC JUMP JUMPDEST PUSH1 0x40 PUSH3 0x558 DUP2 MLOAD PUSH3 0x54E DUP2 PUSH3 0xFE JUMP JUMPDEST PUSH1 0x0 DUP2 MSTORE PUSH3 0x3B3 JUMP JUMPDEST PUSH1 0x0 DUP1 PUSH3 0x566 DUP4 PUSH3 0x1CE JUMP JUMPDEST SWAP3 DUP5 MLOAD PUSH3 0x58B DUP2 PUSH3 0x2AB PUSH1 0x20 DUP3 ADD SWAP5 PUSH1 0x4 DUP7 MSTORE DUP10 DUP1 DUP5 ADD MSTORE PUSH1 0x60 DUP4 ADD SWAP1 PUSH3 0x357 JUMP JUMPDEST MLOAD SWAP1 PUSH20 0x100000000000000000000000000000000000005 GAS STATICCALL PUSH3 0x5AE PUSH3 0x37E JUMP JUMPDEST SWAP1 ISZERO PUSH3 0x62A JUMPI SWAP1 PUSH1 0x0 PUSH3 0x5DC PUSH3 0x5D5 DUP5 PUSH1 0x20 DUP1 PUSH3 0x627 SWAP8 MLOAD DUP4 ADD ADD SWAP2 ADD PUSH3 0x82F JUMP JUMPDEST POP PUSH3 0x66E JUMP JUMPDEST SWAP4 PUSH3 0x5E9 DUP3 SLOAD PUSH3 0x466 JUMP JUMPDEST PUSH1 0x1 PUSH1 0x1 PUSH1 0xA0 SHL SUB DUP7 AND PUSH1 0x0 SWAP1 DUP2 MSTORE PUSH1 0x1 PUSH1 0x20 MSTORE PUSH1 0x40 SWAP1 KECCAK256 SSTORE PUSH3 0x60C PUSH3 0x15A JUMP JUMPDEST PUSH1 0x1 PUSH1 0x1 PUSH1 0xA0 SHL SUB DUP7 AND DUP2 MSTORE SWAP3 PUSH1 0x20 DUP5 ADD MSTORE DUP3 ADD MSTORE PUSH3 0x4A4 JUMP JUMPDEST SWAP1 JUMP JUMPDEST DUP3 MLOAD PUSH3 0x461BCD PUSH1 0xE5 SHL DUP2 MSTORE PUSH1 0x20 PUSH1 0x4 DUP3 ADD MSTORE PUSH1 0x1B PUSH1 0x24 DUP3 ADD MSTORE PUSH32 0x67656E207369676E696E67206B6579706169723A206661696C65640000000000 PUSH1 0x44 DUP3 ADD MSTORE PUSH1 0x64 SWAP1 REVERT JUMPDEST PUSH1 0x21 DUP2 MLOAD SUB PUSH3 0x78F JUMPI PUSH1 0x20 PUSH1 0x21 DUP3 ADD MLOAD SWAP2 DUP1 MLOAD ISZERO PUSH3 0x77F JUMPI JUMPDEST ADD MLOAD PUSH1 0xF8 SHR PUSH1 0x0 PUSH1 0x2 DUP3 EQ ISZERO DUP1 PUSH3 0x773 JUMPI JUMPDEST PUSH3 0x761 JUMPI DUP1 PUSH1 0x40 MLOAD PUSH1 0x20 DUP2 ADD SWAP1 PUSH1 0x20 DUP3 MSTORE PUSH1 0x20 PUSH1 0x40 DUP3 ADD MSTORE PUSH1 0x20 PUSH1 0x60 DUP3 ADD MSTORE PUSH5 0x1000003D0 NOT DUP1 PUSH1 0x7 DUP2 DUP1 DUP11 DUP1 MULMOD DUP11 MULMOD ADDMOD PUSH1 0x80 DUP4 ADD MSTORE PUSH4 0x400000F4 PUSH1 0x1 PUSH1 0xFE SHL SUB PUSH1 0xA0 DUP4 ADD MSTORE PUSH1 0xC0 DUP1 DUP4 ADD SWAP2 SWAP1 SWAP2 MSTORE DUP2 MSTORE PUSH3 0x6F9 DUP2 PUSH3 0x11A JUMP JUMPDEST MLOAD SWAP1 PUSH1 0x5 GAS STATICCALL SWAP2 PUSH3 0x70A PUSH3 0x37E JUMP JUMPDEST SWAP3 ISZERO PUSH3 0x74F JUMPI PUSH3 0x736 PUSH3 0x730 PUSH3 0x728 PUSH3 0x627 SWAP6 PUSH3 0x1CE JUMP JUMPDEST SWAP4 DUP5 PUSH3 0x47F JUMP JUMPDEST PUSH1 0x1 AND SWAP1 JUMP JUMPDEST ISZERO PUSH3 0x7B6 JUMPI SWAP1 PUSH3 0x748 SWAP1 PUSH3 0x7A1 JUMP JUMPDEST SWAP1 PUSH3 0x7B6 JUMP JUMPDEST PUSH1 0x40 MLOAD PUSH4 0x102875ED PUSH1 0xE0 SHL DUP2 MSTORE PUSH1 0x4 SWAP1 REVERT JUMPDEST PUSH1 0x40 MLOAD PUSH4 0xAB4BE041 PUSH1 0xE0 SHL DUP2 MSTORE PUSH1 0x4 SWAP1 REVERT JUMPDEST POP PUSH1 0x3 DUP3 EQ ISZERO PUSH3 0x69C JUMP JUMPDEST PUSH3 0x789 PUSH3 0x48D JUMP JUMPDEST PUSH3 0x689 JUMP JUMPDEST PUSH1 0x40 MLOAD PUSH4 0x6446A2C5 PUSH1 0xE1 SHL DUP2 MSTORE PUSH1 0x4 SWAP1 REVERT JUMPDEST PUSH5 0x1000003D0 NOT SWAP1 DUP2 SUB SWAP2 SWAP1 DUP3 GT PUSH3 0x475 JUMPI JUMP JUMPDEST PUSH1 0x40 MLOAD SWAP2 PUSH1 0x20 DUP4 ADD SWAP2 DUP3 MSTORE PUSH1 0x40 DUP4 ADD MSTORE PUSH1 0x40 DUP3 MSTORE PUSH3 0x7D5 DUP3 PUSH3 0xD3 JUMP JUMPDEST SWAP1 MLOAD SWAP1 KECCAK256 PUSH1 0x1 PUSH1 0x1 PUSH1 0xA0 SHL SUB AND SWAP1 JUMP JUMPDEST DUP2 PUSH1 0x1F DUP3 ADD SLT ISZERO PUSH3 0xA7 JUMPI DUP1 MLOAD PUSH3 0x7FE DUP2 PUSH3 0x16B JUMP JUMPDEST SWAP3 PUSH3 0x80E PUSH1 0x40 MLOAD SWAP5 DUP6 PUSH3 0x136 JUMP JUMPDEST DUP2 DUP5 MSTORE PUSH1 0x20 DUP3 DUP5 ADD ADD GT PUSH3 0xA7 JUMPI PUSH3 0x627 SWAP2 PUSH1 0x20 DUP1 DUP6 ADD SWAP2 ADD PUSH3 0x332 JUMP JUMPDEST SWAP2 SWAP1 SWAP2 PUSH1 0x40 DUP2 DUP5 SUB SLT PUSH3 0xA7 JUMPI DUP1 MLOAD PUSH1 0x1 PUSH1 0x1 PUSH1 0x40 SHL SUB SWAP4 SWAP1 DUP5 DUP2 GT PUSH3 0xA7 JUMPI DUP2 PUSH3 0x85F SWAP2 DUP5 ADD PUSH3 0x7E5 JUMP JUMPDEST SWAP4 PUSH1 0x20 DUP4 ADD MLOAD SWAP1 DUP2 GT PUSH3 0xA7 JUMPI PUSH3 0x627 SWAP3 ADD PUSH3 0x7E5 JUMP INVALID PUSH1 0x80 PUSH1 0x40 MSTORE PUSH1 0x4 CALLDATASIZE LT ISZERO PUSH2 0x13 JUMPI JUMPDEST PUSH1 0x0 DUP1 REVERT JUMPDEST PUSH1 0x0 CALLDATALOAD PUSH1 0xE0 SHR DUP1 PUSH4 0x1FFC9A7 EQ PUSH2 0x13F JUMPI DUP1 PUSH4 0x1172C20D EQ PUSH2 0x136 JUMPI DUP1 PUSH4 0x1C356FA6 EQ PUSH2 0x12D JUMPI DUP1 PUSH4 0x2E9D82F2 EQ PUSH2 0x124 JUMPI DUP1 PUSH4 0x3408E470 EQ PUSH2 0x11B JUMPI DUP1 PUSH4 0x3644E515 EQ PUSH2 0x112 JUMPI DUP1 PUSH4 0x93120397 EQ PUSH2 0x109 JUMPI DUP1 PUSH4 0x94F5C716 EQ PUSH2 0x100 JUMPI DUP1 PUSH4 0x98FABD3A EQ PUSH2 0xF7 JUMPI DUP1 PUSH4 0xC09C1B23 EQ PUSH2 0xEE JUMPI DUP1 PUSH4 0xC7977BE7 EQ PUSH2 0xE5 JUMPI DUP1 PUSH4 0xD633A990 EQ PUSH2 0xDC JUMPI DUP1 PUSH4 0xE73A914C EQ PUSH2 0xD3 JUMPI DUP1 PUSH4 0xFA4CCDE3 EQ PUSH2 0xCA JUMPI PUSH4 0xFB227358 EQ PUSH2 0xC2 JUMPI PUSH1 0x0 DUP1 REVERT JUMPDEST PUSH2 0xE PUSH2 0x109A JUMP JUMPDEST POP PUSH2 0xE PUSH2 0xD20 JUMP JUMPDEST POP PUSH2 0xE PUSH2 0xCB2 JUMP JUMPDEST POP PUSH2 0xE PUSH2 0xAC1 JUMP JUMPDEST POP PUSH2 0xE PUSH2 0xA85 JUMP JUMPDEST POP PUSH2 0xE PUSH2 0xA12 JUMP JUMPDEST POP PUSH2 0xE PUSH2 0x9E8 JUMP JUMPDEST POP PUSH2 0xE PUSH2 0x9CC JUMP JUMPDEST POP PUSH2 0xE PUSH2 0x993 JUMP JUMPDEST POP PUSH2 0xE PUSH2 0x8BE JUMP JUMPDEST POP PUSH2 0xE PUSH2 0x8A2 JUMP JUMPDEST POP PUSH2 0xE PUSH2 0x4AB JUMP JUMPDEST POP PUSH2 0xE PUSH2 0x33B JUMP JUMPDEST POP PUSH2 0xE PUSH2 0x311 JUMP JUMPDEST POP CALLVALUE PUSH2 0xE JUMPI PUSH1 0x20 CALLDATASIZE PUSH1 0x3 NOT ADD SLT PUSH2 0xE JUMPI PUSH1 0x4 CALLDATALOAD PUSH4 0xFFFFFFFF PUSH1 0xE0 SHL DUP2 AND DUP1 SWAP2 SUB PUSH2 0xE JUMPI PUSH1 0x20 SWAP1 PUSH4 0x1FFC9A7 PUSH1 0xE0 SHL DUP2 EQ SWAP1 DUP2 ISZERO PUSH2 0x185 JUMPI JUMPDEST POP PUSH1 0x40 MLOAD SWAP1 ISZERO ISZERO DUP2 MSTORE RETURN JUMPDEST PUSH4 0x174EC179 PUSH1 0xE1 SHL EQ SWAP1 POP CODESIZE PUSH2 0x17A JUMP JUMPDEST POP PUSH4 0x4E487B71 PUSH1 0xE0 SHL PUSH1 0x0 MSTORE PUSH1 0x41 PUSH1 0x4 MSTORE PUSH1 0x24 PUSH1 0x0 REVERT JUMPDEST PUSH1 0x60 DUP2 ADD SWAP1 DUP2 LT PUSH1 0x1 PUSH1 0x1 PUSH1 0x40 SHL SUB DUP3 GT OR PUSH2 0x1C8 JUMPI PUSH1 0x40 MSTORE JUMP JUMPDEST PUSH2 0x1D0 PUSH2 0x196 JUMP JUMPDEST PUSH1 0x40 MSTORE JUMP JUMPDEST PUSH1 0xE0 DUP2 ADD SWAP1 DUP2 LT PUSH1 0x1 PUSH1 0x1 PUSH1 0x40 SHL SUB DUP3 GT OR PUSH2 0x1C8 JUMPI PUSH1 0x40 MSTORE JUMP JUMPDEST PUSH1 0x20 DUP2 ADD SWAP1 DUP2 LT PUSH1 0x1 PUSH1 0x1 PUSH1 0x40 SHL SUB DUP3 GT OR PUSH2 0x1C8 JUMPI PUSH1 0x40 MSTORE JUMP JUMPDEST PUSH1 0x40 DUP2 ADD SWAP1 DUP2 LT PUSH1 0x1 PUSH1 0x1 PUSH1 0x40 SHL SUB DUP3 GT OR PUSH2 0x1C8 JUMPI PUSH1 0x40 MSTORE JUMP JUMPDEST SWAP1 PUSH1 0x1F DUP1 NOT SWAP2 ADD AND DUP2 ADD SWAP1 DUP2 LT PUSH1 0x1 PUSH1 0x1 PUSH1 0x40 SHL SUB DUP3 GT OR PUSH2 0x1C8 JUMPI PUSH1 0x40 MSTORE JUMP JUMPDEST PUSH1 0x40 MLOAD SWAP1 PUSH2 0x254 DUP3 PUSH2 0x1D5 JUMP JUMPDEST JUMP JUMPDEST PUSH1 0x40 MLOAD SWAP1 PUSH2 0x254 DUP3 PUSH2 0x1AD JUMP JUMPDEST PUSH1 0x20 SWAP1 PUSH1 0x1 PUSH1 0x1 PUSH1 0x40 SHL SUB DUP2 GT PUSH2 0x280 JUMPI JUMPDEST PUSH1 0x1F ADD PUSH1 0x1F NOT AND ADD SWAP1 JUMP JUMPDEST PUSH2 0x288 PUSH2 0x196 JUMP JUMPDEST PUSH2 0x275 JUMP JUMPDEST PUSH1 0x40 MLOAD SWAP1 PUSH2 0x29A DUP3 PUSH2 0x1F0 JUMP JUMPDEST PUSH1 0x0 DUP3 MSTORE JUMP JUMPDEST PUSH1 0x40 MLOAD SWAP1 PUSH2 0x2AD DUP3 PUSH2 0x1AD JUMP JUMPDEST PUSH1 0x40 DUP3 MSTORE PUSH32 0x7333322070726F706F73616C49642C75696E743235362063686F696365496429 PUSH1 0x40 DUP4 PUSH32 0x566F74696E6752657175657374286164647265737320766F7465722C62797465 PUSH1 0x20 DUP3 ADD MSTORE ADD MSTORE JUMP JUMPDEST PUSH2 0x307 PUSH2 0x2A0 JUMP JUMPDEST PUSH1 0x20 DUP2 MLOAD SWAP2 ADD KECCAK256 SWAP1 JUMP JUMPDEST POP CALLVALUE PUSH2 0xE JUMPI PUSH1 0x0 CALLDATASIZE PUSH1 0x3 NOT ADD SLT PUSH2 0xE JUMPI PUSH1 0x20 PUSH2 0x32D PUSH2 0x2A0 JUMP JUMPDEST DUP2 DUP2 MLOAD SWAP2 ADD KECCAK256 PUSH1 0x40 MLOAD SWAP1 DUP2 MSTORE RETURN JUMPDEST POP CALLVALUE PUSH2 0xE JUMPI PUSH1 0x0 DUP1 PUSH1 0x3 NOT CALLDATASIZE ADD SLT PUSH2 0x40B JUMPI DUP1 SLOAD PUSH2 0x359 DUP2 PUSH2 0x161F JUMP JUMPDEST SWAP2 PUSH2 0x367 PUSH1 0x40 MLOAD SWAP4 DUP5 PUSH2 0x226 JUMP JUMPDEST DUP2 DUP4 MSTORE PUSH2 0x373 DUP3 PUSH2 0x161F JUMP JUMPDEST PUSH1 0x20 SWAP3 DUP5 DUP5 ADD SWAP3 SWAP2 PUSH1 0x1F NOT ADD CALLDATASIZE DUP5 CALLDATACOPY DUP2 JUMPDEST DUP2 DUP2 LT PUSH2 0x3D4 JUMPI POP POP PUSH1 0x40 MLOAD SWAP4 DUP4 DUP6 SWAP5 DUP6 ADD SWAP2 DUP2 DUP7 MSTORE MLOAD DUP1 SWAP3 MSTORE PUSH1 0x40 DUP6 ADD SWAP4 SWAP3 JUMPDEST DUP3 DUP2 LT PUSH2 0x3B4 JUMPI POP POP POP POP SUB SWAP1 RETURN JUMPDEST DUP4 MLOAD PUSH1 0x1 PUSH1 0x1 PUSH1 0xA0 SHL SUB AND DUP6 MSTORE DUP7 SWAP6 POP SWAP4 DUP2 ADD SWAP4 SWAP3 DUP2 ADD SWAP3 PUSH1 0x1 ADD PUSH2 0x3A5 JUMP JUMPDEST DUP1 PUSH2 0x3E6 PUSH2 0x401 SWAP3 SWAP8 SWAP6 SWAP7 SWAP5 SWAP8 PUSH2 0x1154 JUMP JUMPDEST POP SLOAD PUSH1 0x1 PUSH1 0x1 PUSH1 0xA0 SHL SUB AND PUSH2 0x3FB DUP3 DUP8 PUSH2 0x16E7 JUMP JUMPDEST MSTORE PUSH2 0x1645 JUMP JUMPDEST SWAP5 SWAP2 SWAP4 SWAP3 SWAP5 PUSH2 0x384 JUMP JUMPDEST DUP1 REVERT JUMPDEST PUSH1 0x60 SWAP1 PUSH1 0x23 NOT ADD SLT PUSH2 0xE JUMPI PUSH1 0x24 SWAP1 JUMP JUMPDEST PUSH1 0x60 SWAP1 PUSH1 0x83 NOT ADD SLT PUSH2 0xE JUMPI PUSH1 0x84 SWAP1 JUMP JUMPDEST PUSH1 0x60 SWAP1 PUSH1 0x63 NOT ADD SLT PUSH2 0xE JUMPI PUSH1 0x64 SWAP1 JUMP JUMPDEST SWAP1 DUP2 PUSH1 0x60 SWAP2 SUB SLT PUSH2 0xE JUMPI SWAP1 JUMP JUMPDEST PUSH1 0x0 JUMPDEST DUP4 DUP2 LT PUSH2 0x462 JUMPI POP POP PUSH1 0x0 SWAP2 ADD MSTORE JUMP JUMPDEST DUP2 DUP2 ADD MLOAD DUP4 DUP3 ADD MSTORE PUSH1 0x20 ADD PUSH2 0x452 JUMP JUMPDEST SWAP1 PUSH1 0x20 SWAP2 PUSH2 0x48B DUP2 MLOAD DUP1 SWAP3 DUP2 DUP6 MSTORE DUP6 DUP1 DUP7 ADD SWAP2 ADD PUSH2 0x44F JUMP JUMPDEST PUSH1 0x1F ADD PUSH1 0x1F NOT AND ADD ADD SWAP1 JUMP JUMPDEST SWAP1 PUSH1 0x20 PUSH2 0x4A8 SWAP3 DUP2 DUP2 MSTORE ADD SWAP1 PUSH2 0x472 JUMP JUMPDEST SWAP1 JUMP JUMPDEST POP CALLVALUE PUSH2 0xE JUMPI PUSH1 0xE0 CALLDATASIZE PUSH1 0x3 NOT ADD SLT PUSH2 0xE JUMPI PUSH2 0x4C6 CALLDATASIZE PUSH2 0x40E JUMP JUMPDEST PUSH2 0x4CF CALLDATASIZE PUSH2 0x41F JUMP JUMPDEST PUSH1 0x2 SLOAD PUSH2 0x4EC SWAP1 PUSH1 0x1 PUSH1 0x1 PUSH1 0xA0 SHL SUB AND JUMPDEST PUSH1 0x1 PUSH1 0x1 PUSH1 0xA0 SHL SUB AND SWAP1 JUMP JUMPDEST PUSH1 0x40 SWAP2 DUP3 MLOAD SWAP4 PUSH4 0x8737695 PUSH1 0xE0 SHL DUP6 MSTORE PUSH1 0x20 SWAP5 DUP6 SWAP3 DUP4 DUP3 PUSH1 0x4 DUP2 DUP9 GAS STATICCALL SWAP2 DUP3 ISZERO PUSH2 0x895 JUMPI JUMPDEST PUSH1 0x0 SWAP3 PUSH2 0x866 JUMPI JUMPDEST POP DUP4 DUP4 ADD CALLDATALOAD SWAP2 PUSH2 0x58A PUSH2 0x566 DUP7 PUSH2 0x52F DUP8 PUSH2 0x171E JUMP JUMPDEST DUP11 MLOAD PUSH4 0xE5362667 PUSH1 0xE0 SHL DUP2 MSTORE PUSH1 0x1 PUSH1 0x1 PUSH1 0xA0 SHL SUB DUP1 DUP13 AND PUSH1 0x4 DUP4 ADD MSTORE PUSH1 0x24 DUP3 ADD DUP10 SWAP1 MSTORE SWAP1 SWAP2 AND PUSH1 0x44 DUP3 ADD MSTORE SWAP2 DUP3 SWAP1 DUP2 SWAP1 PUSH1 0x64 DUP3 ADD SWAP1 JUMP JUMPDEST SUB DUP2 PUSH1 0x1 DUP1 PUSH1 0xA0 SHL SUB DUP1 SWAP8 AND GAS STATICCALL SWAP1 DUP2 ISZERO PUSH2 0x859 JUMPI JUMPDEST PUSH1 0x0 SWAP2 PUSH2 0x82C JUMPI JUMPDEST POP PUSH2 0x10B7 JUMP JUMPDEST PUSH2 0x592 PUSH2 0x2FF JUMP JUMPDEST SWAP2 DUP8 PUSH2 0x59D DUP7 PUSH2 0x171E JUMP JUMPDEST DUP2 MLOAD DUP9 DUP2 ADD SWAP6 DUP7 MSTORE PUSH1 0x1 PUSH1 0x1 PUSH1 0xA0 SHL SUB SWAP1 SWAP2 AND PUSH1 0x20 DUP7 ADD MSTORE PUSH1 0x40 DUP6 ADD DUP7 SWAP1 MSTORE DUP7 DUP3 ADD CALLDATALOAD PUSH1 0x60 DUP7 ADD DUP2 SWAP1 MSTORE SWAP9 SWAP1 SWAP5 SWAP3 SWAP1 DUP6 PUSH1 0x80 DUP6 ADD SUB SWAP4 PUSH1 0x1F NOT SWAP7 DUP6 DUP9 DUP1 SWAP8 ADD DUP3 MSTORE PUSH2 0x5E8 SWAP1 DUP3 PUSH2 0x226 JUMP JUMPDEST MLOAD SWAP1 KECCAK256 DUP4 MLOAD PUSH2 0x1901 PUSH1 0xF0 SHL DUP12 DUP3 ADD SWAP1 DUP2 MSTORE PUSH32 0x0 PUSH1 0x2 DUP3 ADD MSTORE PUSH1 0x22 DUP2 ADD SWAP3 SWAP1 SWAP3 MSTORE DUP1 PUSH1 0x42 DUP4 ADD SUB DUP7 DUP2 ADD DUP3 MSTORE PUSH2 0x63C SWAP1 DUP3 PUSH2 0x226 JUMP JUMPDEST MLOAD SWAP1 KECCAK256 SWAP5 DUP10 PUSH2 0x64A DUP11 PUSH2 0x171E JUMP JUMPDEST DUP6 MLOAD DUP9 DUP2 MSTORE DUP6 DUP8 ADD CALLDATALOAD PUSH1 0xFF AND PUSH1 0x20 DUP3 ADD MSTORE DUP6 CALLDATALOAD PUSH1 0x40 DUP3 ADD MSTORE SWAP5 DUP3 ADD CALLDATALOAD PUSH1 0x60 DUP7 ADD MSTORE PUSH1 0x0 DUP1 MSTORE SWAP4 PUSH1 0x80 GAS SWAP2 PUSH1 0x1 PUSH1 0x0 SWAP4 STATICCALL ISZERO SWAP13 PUSH2 0x73D PUSH2 0x810 SWAP13 PUSH2 0x81B SWAP16 SWAP11 PUSH2 0x70A PUSH2 0x774 SWAP11 PUSH2 0x6B9 PUSH2 0x765 SWAP10 PUSH2 0x792 SWAP16 SWAP9 PUSH2 0x749 SWAP10 PUSH2 0x81F JUMPI JUMPDEST PUSH1 0x0 MLOAD PUSH1 0x1 PUSH1 0x1 PUSH1 0xA0 SHL SUB AND JUMPDEST SWAP2 AND EQ PUSH2 0x1747 JUMP JUMPDEST DUP10 MLOAD PUSH32 0x0 DUP8 DUP3 ADD DUP2 DUP2 MSTORE PUSH1 0x20 DUP2 ADD SWAP4 SWAP1 SWAP4 MSTORE SWAP12 PUSH2 0x701 SWAP1 DUP3 PUSH1 0x40 DUP6 ADD JUMPDEST SUB SWAP1 DUP2 ADD DUP4 MSTORE DUP3 PUSH2 0x226 JUMP JUMPDEST MLOAD SWAP1 KECCAK256 SWAP14 PUSH2 0x171E JUMP JUMPDEST SWAP8 MLOAD SWAP8 DUP9 SWAP5 PUSH4 0xD58F7399 PUSH1 0xE0 SHL SWAP1 DUP7 ADD MSTORE PUSH1 0x24 DUP6 ADD PUSH1 0x40 SWAP2 SWAP5 SWAP4 SWAP3 PUSH1 0x60 DUP3 ADD SWAP6 PUSH1 0x1 DUP1 PUSH1 0xA0 SHL SUB AND DUP3 MSTORE PUSH1 0x20 DUP3 ADD MSTORE ADD MSTORE JUMP JUMPDEST SUB DUP8 DUP2 ADD DUP6 MSTORE DUP5 PUSH2 0x226 JUMP JUMPDEST PUSH2 0x759 DUP12 MLOAD SWAP4 DUP5 SWAP3 DUP12 DUP5 ADD PUSH2 0x1786 JUMP JUMPDEST SUB DUP6 DUP2 ADD DUP4 MSTORE DUP3 PUSH2 0x226 JUMP JUMPDEST DUP6 PUSH2 0x76E PUSH2 0x28D JUMP JUMPDEST SWAP3 PUSH2 0x247F JUMP JUMPDEST DUP7 MLOAD PUSH4 0xC09C1B23 PUSH1 0xE0 SHL DUP7 DUP3 ADD MSTORE SWAP4 DUP5 SWAP2 PUSH2 0x6F5 SWAP2 PUSH1 0x24 DUP5 ADD PUSH2 0x17A8 JUMP JUMPDEST PUSH2 0x7A2 PUSH2 0x79D PUSH2 0x24F2 JUMP JUMPDEST PUSH2 0x17BF JUMP JUMPDEST DUP1 MLOAD SWAP1 SWAP2 SWAP1 PUSH1 0x1 PUSH1 0x1 PUSH1 0xA0 SHL SUB AND SWAP1 PUSH2 0x7C8 DUP7 DUP6 DUP6 ADD MLOAD SWAP5 ADD MLOAD PUSH1 0x1 PUSH1 0x1 PUSH1 0x40 SHL SUB AND SWAP1 JUMP JUMPDEST SWAP4 PUSH2 0x7E3 PUSH2 0x7D4 PUSH2 0x247 JUMP JUMPDEST PUSH1 0x1 PUSH1 0x1 PUSH1 0x40 SHL SUB SWAP1 SWAP7 AND DUP7 MSTORE JUMP JUMPDEST PUSH1 0x4 CALLDATALOAD SWAP1 DUP6 ADD MSTORE PUSH3 0x3D090 DUP7 DUP6 ADD MSTORE JUMPDEST ADDRESS PUSH1 0x60 DUP6 ADD MSTORE PUSH1 0x0 PUSH1 0x80 DUP6 ADD MSTORE PUSH1 0xA0 DUP5 ADD MSTORE CHAINID PUSH1 0xC0 DUP5 ADD MSTORE PUSH2 0x1867 JUMP JUMPDEST SWAP1 MLOAD SWAP2 DUP3 SWAP2 DUP3 PUSH2 0x497 JUMP JUMPDEST SUB SWAP1 RETURN JUMPDEST PUSH2 0x827 PUSH2 0x10BE JUMP JUMPDEST PUSH2 0x6A4 JUMP JUMPDEST PUSH2 0x84C SWAP2 POP DUP8 RETURNDATASIZE DUP10 GT PUSH2 0x852 JUMPI JUMPDEST PUSH2 0x844 DUP2 DUP4 PUSH2 0x226 JUMP JUMPDEST DUP2 ADD SWAP1 PUSH2 0x1732 JUMP JUMPDEST CODESIZE PUSH2 0x584 JUMP JUMPDEST POP RETURNDATASIZE PUSH2 0x83A JUMP JUMPDEST PUSH2 0x861 PUSH2 0x10BE JUMP JUMPDEST PUSH2 0x57C JUMP JUMPDEST PUSH2 0x887 SWAP2 SWAP3 POP DUP5 RETURNDATASIZE DUP7 GT PUSH2 0x88E JUMPI JUMPDEST PUSH2 0x87F DUP2 DUP4 PUSH2 0x226 JUMP JUMPDEST DUP2 ADD SWAP1 PUSH2 0x1709 JUMP JUMPDEST SWAP1 CODESIZE PUSH2 0x519 JUMP JUMPDEST POP RETURNDATASIZE PUSH2 0x875 JUMP JUMPDEST PUSH2 0x89D PUSH2 0x10BE JUMP JUMPDEST PUSH2 0x511 JUMP JUMPDEST POP CALLVALUE PUSH2 0xE JUMPI PUSH1 0x0 CALLDATASIZE PUSH1 0x3 NOT ADD SLT PUSH2 0xE JUMPI PUSH1 0x20 PUSH1 0x40 MLOAD CHAINID DUP2 MSTORE RETURN JUMPDEST POP CALLVALUE PUSH2 0xE JUMPI PUSH1 0x0 CALLDATASIZE PUSH1 0x3 NOT ADD SLT PUSH2 0xE JUMPI PUSH1 0x20 PUSH1 0x40 MLOAD PUSH32 0x0 DUP2 MSTORE RETURN JUMPDEST PUSH1 0x40 MLOAD SWAP1 PUSH1 0x80 DUP3 ADD DUP3 DUP2 LT PUSH1 0x1 PUSH1 0x1 PUSH1 0x40 SHL SUB DUP3 GT OR PUSH2 0x986 JUMPI JUMPDEST PUSH1 0x40 MSTORE PUSH1 0x53 DUP3 MSTORE PUSH19 0x2C626F6F6C207075626C697368566F74657329 PUSH1 0x68 SHL PUSH1 0x60 DUP4 PUSH32 0x43726561746550726F706F73616C28616464726573732063726561746F722C73 PUSH1 0x20 DUP3 ADD MSTORE PUSH32 0x7472696E672069706673486173682C75696E743136206E756D43686F69636573 PUSH1 0x40 DUP3 ADD MSTORE ADD MSTORE JUMP JUMPDEST PUSH2 0x98E PUSH2 0x196 JUMP JUMPDEST PUSH2 0x915 JUMP JUMPDEST POP CALLVALUE PUSH2 0xE JUMPI PUSH1 0x0 CALLDATASIZE PUSH1 0x3 NOT ADD SLT PUSH2 0xE JUMPI PUSH2 0x81B PUSH2 0x9B0 PUSH2 0x8FA JUMP JUMPDEST PUSH1 0x40 MLOAD SWAP2 DUP3 SWAP2 PUSH1 0x20 DUP4 MSTORE PUSH1 0x20 DUP4 ADD SWAP1 PUSH2 0x472 JUMP JUMPDEST PUSH2 0x307 PUSH2 0x8FA JUMP JUMPDEST POP CALLVALUE PUSH2 0xE JUMPI PUSH1 0x0 CALLDATASIZE PUSH1 0x3 NOT ADD SLT PUSH2 0xE JUMPI PUSH1 0x20 PUSH2 0x32D PUSH2 0x8FA JUMP JUMPDEST POP CALLVALUE PUSH2 0xE JUMPI PUSH1 0x0 CALLDATASIZE PUSH1 0x3 NOT ADD SLT PUSH2 0xE JUMPI PUSH1 0x2 SLOAD PUSH1 0x40 MLOAD PUSH1 0x1 PUSH1 0x1 PUSH1 0xA0 SHL SUB SWAP1 SWAP2 AND DUP2 MSTORE PUSH1 0x20 SWAP1 RETURN JUMPDEST POP PUSH1 0x40 CALLDATASIZE PUSH1 0x3 NOT ADD SLT PUSH2 0xE JUMPI PUSH1 0x24 CALLDATALOAD PUSH1 0x1 PUSH1 0x1 PUSH1 0x40 SHL SUB DUP2 GT PUSH2 0xE JUMPI CALLDATASIZE PUSH1 0x23 DUP3 ADD SLT ISZERO PUSH2 0xE JUMPI DUP1 PUSH1 0x4 ADD CALLDATALOAD PUSH2 0xA49 DUP2 PUSH2 0x263 JUMP JUMPDEST SWAP1 PUSH2 0xA57 PUSH1 0x40 MLOAD SWAP3 DUP4 PUSH2 0x226 JUMP JUMPDEST DUP1 DUP3 MSTORE CALLDATASIZE PUSH1 0x24 DUP3 DUP6 ADD ADD GT PUSH2 0xE JUMPI PUSH1 0x20 DUP2 PUSH1 0x0 SWAP3 PUSH1 0x24 PUSH2 0xA83 SWAP7 ADD DUP4 DUP7 ADD CALLDATACOPY DUP4 ADD ADD MSTORE PUSH1 0x4 CALLDATALOAD PUSH2 0x2732 JUMP JUMPDEST STOP JUMPDEST POP CALLVALUE PUSH2 0xE JUMPI PUSH1 0x0 CALLDATASIZE PUSH1 0x3 NOT ADD SLT PUSH2 0xE JUMPI PUSH1 0x20 PUSH1 0x40 MLOAD PUSH32 0x8B73C3C69BB8FE3D512ECC4CF759CC79239F7B179B0FFACAA9A75D522B39400F DUP2 MSTORE RETURN JUMPDEST POP PUSH1 0x0 DUP1 PUSH1 0x3 NOT CALLDATASIZE ADD SLT PUSH2 0x40B JUMPI PUSH1 0x1 PUSH1 0x1 PUSH1 0xA0 SHL SUB PUSH32 0x0 DUP2 AND CALLER SUB PUSH2 0xC9D JUMPI PUSH1 0x40 SWAP1 PUSH2 0xB19 DUP3 MLOAD PUSH2 0xB11 DUP2 PUSH2 0x1F0 JUMP JUMPDEST DUP5 DUP2 MSTORE PUSH2 0x151B JUMP JUMPDEST SWAP1 DUP4 DUP1 PUSH2 0xB25 DUP5 PUSH2 0x129E JUMP JUMPDEST SWAP4 DUP6 MLOAD PUSH2 0xB5B DUP2 PUSH2 0xB4D PUSH1 0x20 DUP3 ADD SWAP5 PUSH2 0xB3E DUP7 PUSH1 0x4 SWAP1 MSTORE JUMP JUMPDEST DUP11 DUP1 DUP5 ADD MSTORE PUSH1 0x60 DUP4 ADD SWAP1 PUSH2 0x472 JUMP JUMPDEST SUB PUSH1 0x1F NOT DUP2 ADD DUP4 MSTORE DUP3 PUSH2 0x226 JUMP JUMPDEST MLOAD SWAP1 PUSH1 0x5 PUSH1 0x1 PUSH1 0x98 SHL ADD GAS STATICCALL PUSH2 0xB6F PUSH2 0x14BE JUMP JUMPDEST SWAP1 ISZERO PUSH2 0xC59 JUMPI SWAP1 PUSH2 0xBDF PUSH2 0xB97 PUSH2 0xB91 DUP5 PUSH1 0x20 DUP1 DUP11 SWAP9 SWAP8 MLOAD DUP4 ADD ADD SWAP2 ADD PUSH2 0x15DC JUMP JUMPDEST POP PUSH2 0x12C1 JUMP JUMPDEST SWAP3 PUSH2 0xBA2 DUP6 SLOAD PUSH2 0x10E2 JUMP JUMPDEST PUSH1 0x1 PUSH1 0x1 PUSH1 0xA0 SHL SUB DUP6 AND PUSH1 0x0 SWAP1 DUP2 MSTORE PUSH1 0x1 PUSH1 0x20 MSTORE PUSH1 0x40 SWAP1 KECCAK256 SSTORE PUSH2 0xBC3 PUSH2 0x256 JUMP JUMPDEST PUSH1 0x1 PUSH1 0x1 PUSH1 0xA0 SHL SUB DUP6 AND DUP2 MSTORE SWAP1 PUSH1 0x20 DUP3 ADD MSTORE DUP5 DUP7 DUP3 ADD MSTORE PUSH2 0x119C JUMP JUMPDEST DUP4 MLOAD PUSH1 0x1 PUSH1 0x1 PUSH1 0xA0 SHL SUB DUP4 AND DUP2 MSTORE PUSH32 0x486311BBAEC8C22AFAF10C0398245071A2790D613D99D80CB5D6EB7F3712A26B SWAP1 PUSH1 0x20 SWAP1 LOG1 CALLVALUE ISZERO SWAP1 DUP2 ISZERO PUSH2 0xC21 JUMPI DUP4 DUP6 MLOAD RETURN JUMPDEST DUP4 SWAP3 DUP4 SWAP3 DUP4 SWAP3 DUP4 SWAP2 PUSH2 0xC4F JUMPI JUMPDEST CALLVALUE SWAP3 AND SWAP1 CALL ISZERO PUSH2 0xC42 JUMPI JUMPDEST DUP2 CODESIZE DUP1 DUP1 DUP4 DUP6 MLOAD RETURN JUMPDEST PUSH2 0xC4A PUSH2 0x10BE JUMP JUMPDEST PUSH2 0xC39 JUMP JUMPDEST PUSH2 0x8FC SWAP2 POP PUSH2 0xC2E JUMP JUMPDEST DUP4 MLOAD PUSH3 0x461BCD PUSH1 0xE5 SHL DUP2 MSTORE PUSH1 0x20 PUSH1 0x4 DUP3 ADD MSTORE PUSH1 0x1B PUSH1 0x24 DUP3 ADD MSTORE PUSH32 0x67656E207369676E696E67206B6579706169723A206661696C65640000000000 PUSH1 0x44 DUP3 ADD MSTORE PUSH1 0x64 SWAP1 REVERT JUMPDEST POP DUP1 REVERT JUMPDEST PUSH1 0x1 PUSH1 0x1 PUSH1 0xA0 SHL SUB DUP2 AND SUB PUSH2 0xE JUMPI JUMP JUMPDEST POP CALLVALUE PUSH2 0xE JUMPI PUSH1 0x20 CALLDATASIZE PUSH1 0x3 NOT ADD SLT PUSH2 0xE JUMPI PUSH1 0x4 CALLDATALOAD PUSH2 0xCD0 DUP2 PUSH2 0xCA1 JUMP JUMPDEST PUSH1 0x1 PUSH1 0x1 PUSH1 0xA0 SHL SUB PUSH32 0x0 DUP2 AND CALLER SUB PUSH2 0xE JUMPI PUSH1 0x2 SLOAD SWAP2 DUP2 DUP4 AND PUSH2 0xE JUMPI PUSH1 0x1 PUSH1 0x1 PUSH1 0xA0 SHL SUB NOT SWAP1 SWAP3 AND SWAP2 AND OR PUSH1 0x2 SSTORE STOP JUMPDEST POP CALLVALUE PUSH2 0xE JUMPI PUSH1 0xC0 CALLDATASIZE PUSH1 0x3 NOT ADD SLT PUSH2 0xE JUMPI PUSH1 0x24 CALLDATALOAD PUSH2 0xD3E DUP2 PUSH2 0xCA1 JUMP JUMPDEST PUSH1 0x44 CALLDATALOAD PUSH1 0x1 PUSH1 0x1 PUSH1 0x40 SHL SUB DUP2 GT PUSH2 0xE JUMPI PUSH2 0xD5D SWAP1 CALLDATASIZE SWAP1 PUSH1 0x4 ADD PUSH2 0x441 JUMP JUMPDEST SWAP1 PUSH2 0xD67 CALLDATASIZE PUSH2 0x430 JUMP JUMPDEST PUSH1 0x2 SLOAD SWAP1 SWAP2 SWAP1 PUSH2 0xD7F SWAP1 PUSH1 0x1 PUSH1 0x1 PUSH1 0xA0 SHL SUB AND PUSH2 0x4E0 JUMP JUMPDEST SWAP3 PUSH1 0x40 SWAP3 DUP4 MLOAD SWAP1 PUSH4 0x8737695 PUSH1 0xE0 SHL DUP3 MSTORE PUSH1 0x20 SWAP2 DUP3 DUP2 PUSH1 0x4 DUP2 DUP11 GAS STATICCALL SWAP1 DUP2 ISZERO PUSH2 0x108D JUMPI JUMPDEST PUSH1 0x0 SWAP2 PUSH2 0x1070 JUMPI JUMPDEST POP DUP6 MLOAD PUSH1 0x1 PUSH3 0x901083 PUSH1 0xE0 SHL SUB NOT DUP2 MSTORE PUSH1 0x1 PUSH1 0x1 PUSH1 0xA0 SHL SUB DUP9 DUP2 AND PUSH1 0x4 DUP4 ADD MSTORE DUP7 DUP2 AND PUSH1 0x24 DUP4 ADD MSTORE SWAP2 PUSH2 0xDFC SWAP2 SWAP1 DUP6 SWAP1 DUP3 SWAP1 PUSH1 0x44 SWAP1 DUP3 SWAP1 DUP8 AND GAS STATICCALL SWAP1 DUP2 ISZERO PUSH2 0x1063 JUMPI JUMPDEST PUSH1 0x0 SWAP2 PUSH2 0x1046 JUMPI JUMPDEST POP PUSH2 0x25A1 JUMP JUMPDEST PUSH2 0xE04 PUSH2 0x9C4 JUMP JUMPDEST SWAP2 DUP4 DUP7 PUSH2 0xE11 DUP8 DUP1 PUSH2 0x25ED JUMP JUMPDEST DUP11 SWAP7 SWAP2 SWAP7 MLOAD DUP1 SWAP8 DUP6 DUP3 ADD DUP1 SWAP4 PUSH2 0xE26 SWAP3 PUSH2 0x261F JUMP JUMPDEST SUB SWAP7 PUSH1 0x1F NOT SWAP8 DUP9 DUP2 ADD DUP3 MSTORE PUSH2 0xE3B SWAP1 DUP3 PUSH2 0x226 JUMP JUMPDEST MLOAD SWAP1 KECCAK256 PUSH2 0xE49 DUP10 DUP6 ADD PUSH2 0x2639 JUMP JUMPDEST SWAP2 PUSH2 0xE55 DUP11 DUP14 ADD PUSH2 0x2643 JUMP JUMPDEST DUP13 MLOAD DUP7 DUP2 ADD SWAP3 DUP4 MSTORE PUSH1 0x1 PUSH1 0x1 PUSH1 0xA0 SHL SUB SWAP1 SWAP6 AND PUSH1 0x20 DUP4 ADD MSTORE PUSH1 0x40 DUP3 ADD SWAP3 SWAP1 SWAP3 MSTORE PUSH2 0xFFFF SWAP1 SWAP3 AND PUSH1 0x60 DUP4 ADD MSTORE ISZERO ISZERO PUSH1 0x80 DUP3 ADD MSTORE SWAP1 DUP1 PUSH1 0xA0 DUP4 ADD SUB DUP7 DUP2 ADD DUP3 MSTORE PUSH2 0xE9D SWAP1 DUP3 PUSH2 0x226 JUMP JUMPDEST MLOAD SWAP1 KECCAK256 DUP9 MLOAD PUSH2 0x1901 PUSH1 0xF0 SHL DUP4 DUP3 ADD SWAP1 DUP2 MSTORE PUSH32 0x0 PUSH1 0x2 DUP3 ADD MSTORE PUSH1 0x22 DUP2 ADD SWAP3 SWAP1 SWAP3 MSTORE DUP1 PUSH1 0x42 DUP4 ADD SUB DUP7 DUP2 ADD DUP3 MSTORE PUSH2 0xEF1 SWAP1 DUP3 PUSH2 0x226 JUMP JUMPDEST MLOAD SWAP1 KECCAK256 DUP9 MLOAD DUP2 DUP2 MSTORE DUP4 DUP11 ADD CALLDATALOAD PUSH1 0xFF AND PUSH1 0x20 DUP3 ADD MSTORE DUP4 CALLDATALOAD PUSH1 0x40 DUP3 ADD MSTORE SWAP3 DUP3 ADD CALLDATALOAD PUSH1 0x60 DUP5 ADD MSTORE PUSH1 0x0 DUP1 MSTORE SWAP2 PUSH1 0x80 GAS SWAP2 PUSH1 0x1 PUSH1 0x0 SWAP4 STATICCALL ISZERO PUSH2 0x765 PUSH2 0x81B SWAP10 PUSH2 0xF50 PUSH2 0x810 SWAP10 PUSH2 0xFC8 SWAP7 PUSH2 0x73D SWAP6 PUSH2 0x81F JUMPI PUSH1 0x0 MLOAD PUSH1 0x1 PUSH1 0x1 PUSH1 0xA0 SHL SUB AND PUSH2 0x6B1 JUMP JUMPDEST DUP10 MLOAD PUSH32 0x0 DUP9 DUP3 ADD DUP2 DUP2 MSTORE PUSH1 0x20 DUP2 ADD SWAP7 SWAP1 SWAP7 MSTORE SWAP5 PUSH2 0xFB8 SWAP2 PUSH2 0xF9A DUP2 PUSH1 0x40 DUP5 ADD SUB DUP11 DUP2 ADD DUP4 MSTORE DUP3 PUSH2 0x226 JUMP JUMPDEST MLOAD SWAP1 KECCAK256 SWAP9 DUP12 MLOAD SWAP5 DUP6 SWAP2 PUSH4 0x2610C0F PUSH1 0xE4 SHL DUP12 DUP5 ADD MSTORE PUSH1 0x24 DUP4 ADD PUSH2 0x2663 JUMP JUMPDEST PUSH2 0x759 DUP11 MLOAD SWAP4 DUP5 SWAP3 DUP10 DUP5 ADD PUSH2 0x1786 JUMP JUMPDEST PUSH2 0xFD3 PUSH2 0x79D PUSH2 0x24F2 JUMP JUMPDEST DUP1 MLOAD SWAP1 SWAP4 SWAP1 PUSH2 0x1027 SWAP1 PUSH1 0x1 PUSH1 0x1 PUSH1 0xA0 SHL SUB AND SWAP4 PUSH2 0xFFD DUP10 DUP5 DUP9 ADD MLOAD SWAP8 ADD MLOAD PUSH1 0x1 PUSH1 0x1 PUSH1 0x40 SHL SUB AND SWAP1 JUMP JUMPDEST SWAP7 PUSH2 0x101B DUP11 MLOAD SWAP6 DUP7 SWAP3 PUSH4 0xC09C1B23 PUSH1 0xE0 SHL DUP8 DUP6 ADD MSTORE PUSH1 0x24 DUP5 ADD PUSH2 0x17A8 JUMP JUMPDEST SUB SWAP1 DUP2 ADD DUP5 MSTORE DUP4 PUSH2 0x226 JUMP JUMPDEST PUSH2 0x1032 PUSH2 0x7D4 PUSH2 0x247 JUMP JUMPDEST PUSH1 0x4 CALLDATALOAD SWAP1 DUP6 ADD MSTORE PUSH3 0xF4240 DUP7 DUP6 ADD MSTORE PUSH2 0x7F3 JUMP JUMPDEST PUSH2 0x105D SWAP2 POP DUP6 RETURNDATASIZE DUP8 GT PUSH2 0x852 JUMPI PUSH2 0x844 DUP2 DUP4 PUSH2 0x226 JUMP JUMPDEST CODESIZE PUSH2 0xDF6 JUMP JUMPDEST PUSH2 0x106B PUSH2 0x10BE JUMP JUMPDEST PUSH2 0xDEE JUMP JUMPDEST PUSH2 0x1087 SWAP2 POP DUP4 RETURNDATASIZE DUP6 GT PUSH2 0x88E JUMPI PUSH2 0x87F DUP2 DUP4 PUSH2 0x226 JUMP JUMPDEST CODESIZE PUSH2 0xDAB JUMP JUMPDEST PUSH2 0x1095 PUSH2 0x10BE JUMP JUMPDEST PUSH2 0xDA3 JUMP JUMPDEST POP CALLVALUE PUSH2 0xE JUMPI PUSH1 0x0 CALLDATASIZE PUSH1 0x3 NOT ADD SLT PUSH2 0xE JUMPI PUSH2 0x81B PUSH2 0x9B0 PUSH2 0x2A0 JUMP JUMPDEST ISZERO PUSH2 0xE JUMPI JUMP JUMPDEST POP PUSH1 0x40 MLOAD RETURNDATASIZE PUSH1 0x0 DUP3 RETURNDATACOPY RETURNDATASIZE SWAP1 REVERT JUMPDEST POP PUSH4 0x4E487B71 PUSH1 0xE0 SHL PUSH1 0x0 MSTORE PUSH1 0x11 PUSH1 0x4 MSTORE PUSH1 0x24 PUSH1 0x0 REVERT JUMPDEST SWAP1 PUSH1 0x1 DUP3 ADD DUP1 SWAP3 GT PUSH2 0x10F0 JUMPI JUMP JUMPDEST PUSH2 0x254 PUSH2 0x10CB JUMP JUMPDEST SWAP1 PUSH1 0x23 DUP3 ADD DUP1 SWAP3 GT PUSH2 0x10F0 JUMPI JUMP JUMPDEST PUSH1 0x4 ADD SWAP1 DUP2 PUSH1 0x4 GT PUSH2 0x10F0 JUMPI JUMP JUMPDEST SWAP1 PUSH1 0x4 DUP3 ADD DUP1 SWAP3 GT PUSH2 0x10F0 JUMPI JUMP JUMPDEST SWAP1 PUSH1 0x2 DUP3 ADD DUP1 SWAP3 GT PUSH2 0x10F0 JUMPI JUMP JUMPDEST SWAP2 SWAP1 DUP3 ADD DUP1 SWAP3 GT PUSH2 0x10F0 JUMPI JUMP JUMPDEST POP PUSH4 0x4E487B71 PUSH1 0xE0 SHL PUSH1 0x0 MSTORE PUSH1 0x32 PUSH1 0x4 MSTORE PUSH1 0x24 PUSH1 0x0 REVERT JUMPDEST PUSH1 0x3 SWAP1 PUSH1 0x0 SLOAD DUP2 LT ISZERO PUSH2 0x118F JUMPI JUMPDEST PUSH1 0x0 DUP1 MSTORE MUL PUSH32 0x290DECD9548B62A8D60345A988386FC84BA6BC95484008F6362F93160EF3E563 ADD SWAP1 PUSH1 0x0 SWAP1 JUMP JUMPDEST PUSH2 0x1197 PUSH2 0x113D JUMP JUMPDEST PUSH2 0x1162 JUMP JUMPDEST PUSH2 0x254 SWAP1 PUSH32 0x290DECD9548B62A8D60345A988386FC84BA6BC95484008F6362F93160EF3E565 PUSH1 0x1 PUSH1 0x1 PUSH1 0x40 SHL SUB PUSH1 0x40 PUSH1 0x3 PUSH1 0x0 SLOAD PUSH9 0x10000000000000000 DUP2 LT ISZERO PUSH2 0x1291 JUMPI JUMPDEST PUSH1 0x1 DUP2 ADD DUP1 PUSH1 0x0 SSTORE DUP2 LT ISZERO PUSH2 0x1284 JUMPI JUMPDEST PUSH1 0x0 DUP1 MSTORE MUL SWAP4 DUP5 PUSH32 0x290DECD9548B62A8D60345A988386FC84BA6BC95484008F6362F93160EF3E563 ADD PUSH1 0x1 DUP1 PUSH1 0xA0 SHL SUB DUP3 MLOAD AND PUSH12 0xFFFFFFFFFFFFFFFFFFFFFFFF PUSH1 0xA0 SHL DUP3 SLOAD AND OR SWAP1 SSTORE PUSH1 0x20 DUP2 ADD MLOAD PUSH32 0x290DECD9548B62A8D60345A988386FC84BA6BC95484008F6362F93160EF3E564 DUP7 ADD SSTORE ADD MLOAD AND SWAP2 ADD SWAP1 PUSH1 0x1 PUSH1 0x1 PUSH1 0x40 SHL SUB AND PUSH1 0x1 PUSH1 0x1 PUSH1 0x40 SHL SUB NOT DUP3 SLOAD AND OR SWAP1 SSTORE JUMP JUMPDEST PUSH2 0x128C PUSH2 0x113D JUMP JUMPDEST PUSH2 0x11F2 JUMP JUMPDEST PUSH2 0x1299 PUSH2 0x196 JUMP JUMPDEST PUSH2 0x11E2 JUMP JUMPDEST PUSH1 0x20 DUP2 MLOAD SWAP2 ADD MLOAD SWAP1 PUSH1 0x20 DUP2 LT PUSH2 0x12B2 JUMPI POP SWAP1 JUMP JUMPDEST PUSH1 0x0 NOT SWAP1 PUSH1 0x20 SUB PUSH1 0x3 SHL SHL AND SWAP1 JUMP JUMPDEST PUSH1 0x21 DUP2 MLOAD SUB PUSH2 0x13CB JUMPI PUSH1 0x20 PUSH1 0x21 DUP3 ADD MLOAD SWAP2 DUP1 MLOAD ISZERO PUSH2 0x13BE JUMPI JUMPDEST ADD MLOAD PUSH1 0xF8 SHR PUSH1 0x0 PUSH1 0x2 DUP3 EQ ISZERO DUP1 PUSH2 0x13B3 JUMPI JUMPDEST PUSH2 0x13A1 JUMPI DUP1 PUSH1 0x40 MLOAD PUSH1 0x20 DUP2 ADD SWAP1 PUSH1 0x20 DUP3 MSTORE PUSH1 0x20 PUSH1 0x40 DUP3 ADD MSTORE PUSH1 0x20 PUSH1 0x60 DUP3 ADD MSTORE PUSH5 0x1000003D0 NOT DUP1 PUSH1 0x7 DUP2 DUP1 DUP11 DUP1 MULMOD DUP11 MULMOD ADDMOD PUSH1 0x80 DUP4 ADD MSTORE PUSH4 0x400000F4 PUSH1 0x1 PUSH1 0xFE SHL SUB PUSH1 0xA0 DUP4 ADD MSTORE PUSH1 0xC0 DUP1 DUP4 ADD SWAP2 SWAP1 SWAP2 MSTORE DUP2 MSTORE PUSH2 0x1346 DUP2 PUSH2 0x1D5 JUMP JUMPDEST MLOAD SWAP1 PUSH1 0x5 GAS STATICCALL SWAP2 PUSH2 0x1355 PUSH2 0x14BE JUMP JUMPDEST SWAP3 ISZERO PUSH2 0x138F JUMPI PUSH2 0x137A PUSH2 0x1374 PUSH2 0x136D PUSH2 0x4A8 SWAP6 PUSH2 0x129E JUMP JUMPDEST SWAP4 DUP5 PUSH2 0x1130 JUMP JUMPDEST PUSH1 0x1 AND SWAP1 JUMP JUMPDEST ISZERO PUSH2 0x14EE JUMPI SWAP1 PUSH2 0x1389 SWAP1 PUSH2 0x1471 JUMP JUMPDEST SWAP1 PUSH2 0x14EE JUMP JUMPDEST PUSH1 0x40 MLOAD PUSH4 0x102875ED PUSH1 0xE0 SHL DUP2 MSTORE PUSH1 0x4 SWAP1 REVERT JUMPDEST PUSH1 0x40 MLOAD PUSH4 0xAB4BE041 PUSH1 0xE0 SHL DUP2 MSTORE PUSH1 0x4 SWAP1 REVERT JUMPDEST POP PUSH1 0x3 DUP3 EQ ISZERO PUSH2 0x12EC JUMP JUMPDEST PUSH2 0x13C6 PUSH2 0x113D JUMP JUMPDEST PUSH2 0x12DA JUMP JUMPDEST PUSH1 0x40 MLOAD PUSH4 0x6446A2C5 PUSH1 0xE1 SHL DUP2 MSTORE PUSH1 0x4 SWAP1 REVERT JUMPDEST PUSH1 0x20 SWAP1 DUP1 MLOAD ISZERO PUSH2 0x13EB JUMPI ADD SWAP1 JUMP JUMPDEST PUSH2 0x13F3 PUSH2 0x113D JUMP JUMPDEST ADD SWAP1 JUMP JUMPDEST PUSH1 0x22 SWAP1 DUP1 MLOAD PUSH1 0x2 LT ISZERO PUSH2 0x13EB JUMPI ADD SWAP1 JUMP JUMPDEST PUSH1 0x21 SWAP1 DUP1 MLOAD PUSH1 0x1 LT ISZERO PUSH2 0x13EB JUMPI ADD SWAP1 JUMP JUMPDEST PUSH1 0x23 SWAP1 DUP1 MLOAD PUSH1 0x3 LT ISZERO PUSH2 0x13EB JUMPI ADD SWAP1 JUMP JUMPDEST PUSH1 0x24 SWAP1 DUP1 MLOAD PUSH1 0x4 LT ISZERO PUSH2 0x13EB JUMPI ADD SWAP1 JUMP JUMPDEST SWAP1 PUSH1 0x20 SWAP2 DUP1 MLOAD DUP3 LT ISZERO PUSH2 0x144D JUMPI ADD ADD SWAP1 JUMP JUMPDEST PUSH2 0x1455 PUSH2 0x113D JUMP JUMPDEST ADD ADD SWAP1 JUMP JUMPDEST POP PUSH4 0x4E487B71 PUSH1 0xE0 SHL PUSH1 0x0 MSTORE PUSH1 0x12 PUSH1 0x4 MSTORE PUSH1 0x24 PUSH1 0x0 REVERT JUMPDEST PUSH5 0x1000003D0 NOT SWAP1 DUP2 SUB SWAP2 SWAP1 DUP3 GT PUSH2 0x10F0 JUMPI JUMP JUMPDEST PUSH1 0x1A NOT DUP2 ADD SWAP2 SWAP1 DUP3 GT PUSH2 0x10F0 JUMPI JUMP JUMPDEST PUSH1 0x0 NOT DUP2 ADD SWAP2 SWAP1 DUP3 GT PUSH2 0x10F0 JUMPI JUMP JUMPDEST PUSH1 0x20 SUB SWAP1 PUSH1 0x20 DUP3 GT PUSH2 0x10F0 JUMPI JUMP JUMPDEST SWAP2 SWAP1 DUP3 SUB SWAP2 DUP3 GT PUSH2 0x10F0 JUMPI JUMP JUMPDEST RETURNDATASIZE ISZERO PUSH2 0x14E9 JUMPI RETURNDATASIZE SWAP1 PUSH2 0x14CF DUP3 PUSH2 0x263 JUMP JUMPDEST SWAP2 PUSH2 0x14DD PUSH1 0x40 MLOAD SWAP4 DUP5 PUSH2 0x226 JUMP JUMPDEST DUP3 MSTORE RETURNDATASIZE PUSH1 0x0 PUSH1 0x20 DUP5 ADD RETURNDATACOPY JUMP JUMPDEST PUSH1 0x60 SWAP1 JUMP JUMPDEST PUSH1 0x40 MLOAD SWAP2 PUSH1 0x20 DUP4 ADD SWAP2 DUP3 MSTORE PUSH1 0x40 DUP4 ADD MSTORE PUSH1 0x40 DUP3 MSTORE PUSH2 0x150B DUP3 PUSH2 0x1AD JUMP JUMPDEST SWAP1 MLOAD SWAP1 KECCAK256 PUSH1 0x1 PUSH1 0x1 PUSH1 0xA0 SHL SUB AND SWAP1 JUMP JUMPDEST PUSH1 0x0 DUP1 SWAP2 PUSH1 0x40 MLOAD PUSH2 0x1542 DUP2 PUSH2 0xB4D PUSH1 0x20 DUP3 ADD SWAP5 PUSH1 0x20 DUP7 MSTORE PUSH1 0x40 DUP1 DUP5 ADD MSTORE PUSH1 0x60 DUP4 ADD SWAP1 PUSH2 0x472 JUMP JUMPDEST MLOAD SWAP1 PUSH1 0x1 PUSH1 0x1 PUSH1 0x98 SHL ADD GAS STATICCALL PUSH2 0x1556 PUSH2 0x14BE JUMP JUMPDEST SWAP1 ISZERO PUSH2 0x155F JUMPI SWAP1 JUMP JUMPDEST PUSH1 0x40 MLOAD PUSH3 0x461BCD PUSH1 0xE5 SHL DUP2 MSTORE PUSH1 0x20 PUSH1 0x4 DUP3 ADD MSTORE PUSH1 0x13 PUSH1 0x24 DUP3 ADD MSTORE PUSH19 0x1C985B991BDB509E5D195CCE8819985A5B1959 PUSH1 0x6A SHL PUSH1 0x44 DUP3 ADD MSTORE PUSH1 0x64 SWAP1 REVERT JUMPDEST DUP2 PUSH1 0x1F DUP3 ADD SLT ISZERO PUSH2 0xE JUMPI DUP1 MLOAD PUSH2 0x15B0 DUP2 PUSH2 0x263 JUMP JUMPDEST SWAP3 PUSH2 0x15BE PUSH1 0x40 MLOAD SWAP5 DUP6 PUSH2 0x226 JUMP JUMPDEST DUP2 DUP5 MSTORE PUSH1 0x20 DUP3 DUP5 ADD ADD GT PUSH2 0xE JUMPI PUSH2 0x4A8 SWAP2 PUSH1 0x20 DUP1 DUP6 ADD SWAP2 ADD PUSH2 0x44F JUMP JUMPDEST SWAP2 SWAP1 SWAP2 PUSH1 0x40 DUP2 DUP5 SUB SLT PUSH2 0xE JUMPI DUP1 MLOAD SWAP3 PUSH1 0x1 PUSH1 0x1 PUSH1 0x40 SHL SUB SWAP4 DUP5 DUP2 GT PUSH2 0xE JUMPI DUP2 PUSH2 0x1608 SWAP2 DUP5 ADD PUSH2 0x159A JUMP JUMPDEST SWAP4 PUSH1 0x20 DUP4 ADD MLOAD SWAP1 DUP2 GT PUSH2 0xE JUMPI PUSH2 0x4A8 SWAP3 ADD PUSH2 0x159A JUMP JUMPDEST PUSH1 0x20 SWAP1 PUSH1 0x1 PUSH1 0x1 PUSH1 0x40 SHL SUB DUP2 GT PUSH2 0x1638 JUMPI JUMPDEST PUSH1 0x5 SHL ADD SWAP1 JUMP JUMPDEST PUSH2 0x1640 PUSH2 0x196 JUMP JUMPDEST PUSH2 0x1631 JUMP JUMPDEST PUSH1 0x1 SWAP1 PUSH1 0x0 NOT DUP2 EQ PUSH2 0x1655 JUMPI ADD SWAP1 JUMP JUMPDEST PUSH2 0x13F3 PUSH2 0x10CB JUMP JUMPDEST PUSH1 0x40 SWAP1 DUP1 MLOAD PUSH1 0x1 LT ISZERO PUSH2 0x13EB JUMPI ADD SWAP1 JUMP JUMPDEST PUSH1 0x60 SWAP1 DUP1 MLOAD PUSH1 0x2 LT ISZERO PUSH2 0x13EB JUMPI ADD SWAP1 JUMP JUMPDEST PUSH1 0x80 SWAP1 DUP1 MLOAD PUSH1 0x3 LT ISZERO PUSH2 0x13EB JUMPI ADD SWAP1 JUMP JUMPDEST PUSH1 0xA0 SWAP1 DUP1 MLOAD PUSH1 0x4 LT ISZERO PUSH2 0x13EB JUMPI ADD SWAP1 JUMP JUMPDEST PUSH1 0xC0 SWAP1 DUP1 MLOAD PUSH1 0x5 LT ISZERO PUSH2 0x13EB JUMPI ADD SWAP1 JUMP JUMPDEST PUSH1 0xE0 SWAP1 DUP1 MLOAD PUSH1 0x6 LT ISZERO PUSH2 0x13EB JUMPI ADD SWAP1 JUMP JUMPDEST PUSH2 0x100 SWAP1 DUP1 MLOAD PUSH1 0x7 LT ISZERO PUSH2 0x13EB JUMPI ADD SWAP1 JUMP JUMPDEST PUSH2 0x120 SWAP1 DUP1 MLOAD PUSH1 0x8 LT ISZERO PUSH2 0x13EB JUMPI ADD SWAP1 JUMP JUMPDEST PUSH1 0x20 SWAP2 DUP2 MLOAD DUP2 LT ISZERO PUSH2 0x16FC JUMPI JUMPDEST PUSH1 0x5 SHL ADD ADD SWAP1 JUMP JUMPDEST PUSH2 0x1704 PUSH2 0x113D JUMP JUMPDEST PUSH2 0x16F4 JUMP JUMPDEST SWAP1 DUP2 PUSH1 0x20 SWAP2 SUB SLT PUSH2 0xE JUMPI MLOAD PUSH2 0x4A8 DUP2 PUSH2 0xCA1 JUMP JUMPDEST CALLDATALOAD PUSH2 0x4A8 DUP2 PUSH2 0xCA1 JUMP JUMPDEST DUP1 ISZERO ISZERO SUB PUSH2 0xE JUMPI JUMP JUMPDEST SWAP1 DUP2 PUSH1 0x20 SWAP2 SUB SLT PUSH2 0xE JUMPI MLOAD PUSH2 0x4A8 DUP2 PUSH2 0x1728 JUMP JUMPDEST ISZERO PUSH2 0x174E JUMPI JUMP JUMPDEST PUSH1 0x40 MLOAD PUSH3 0x461BCD PUSH1 0xE5 SHL DUP2 MSTORE PUSH1 0x20 PUSH1 0x4 DUP3 ADD MSTORE PUSH1 0x10 PUSH1 0x24 DUP3 ADD MSTORE PUSH16 0x496E76616C6964205265717565737421 PUSH1 0x80 SHL PUSH1 0x44 DUP3 ADD MSTORE PUSH1 0x64 SWAP1 REVERT JUMPDEST PUSH1 0x1 PUSH1 0x1 PUSH1 0xA0 SHL SUB SWAP1 SWAP2 AND DUP2 MSTORE PUSH1 0x40 PUSH1 0x20 DUP3 ADD DUP2 SWAP1 MSTORE PUSH2 0x4A8 SWAP3 SWAP2 ADD SWAP1 PUSH2 0x472 JUMP JUMPDEST PUSH1 0x40 SWAP1 PUSH2 0x4A8 SWAP4 SWAP3 DUP2 MSTORE DUP2 PUSH1 0x20 DUP3 ADD MSTORE ADD SWAP1 PUSH2 0x472 JUMP JUMPDEST SWAP1 PUSH1 0x40 MLOAD PUSH2 0x17CC DUP2 PUSH2 0x1AD JUMP JUMPDEST DUP3 SLOAD PUSH1 0x1 PUSH1 0x1 PUSH1 0xA0 SHL SUB AND DUP2 MSTORE PUSH1 0x1 DUP4 ADD SLOAD PUSH1 0x20 DUP3 ADD MSTORE PUSH1 0x2 SWAP1 SWAP3 ADD SLOAD PUSH1 0x1 PUSH1 0x1 PUSH1 0x40 SHL SUB AND PUSH1 0x40 DUP4 ADD MSTORE JUMP JUMPDEST DUP1 PUSH1 0x0 NOT DIV PUSH1 0x2 GT DUP2 ISZERO ISZERO AND PUSH2 0x1810 JUMPI JUMPDEST PUSH1 0x1 SHL SWAP1 JUMP JUMPDEST PUSH2 0x1818 PUSH2 0x10CB JUMP JUMPDEST PUSH2 0x180A JUMP JUMPDEST PUSH1 0x1 PUSH1 0x1 PUSH1 0xFD SHL SUB DUP2 GT PUSH1 0x1 AND PUSH2 0x1835 JUMPI JUMPDEST PUSH1 0x3 SHL SWAP1 JUMP JUMPDEST PUSH2 0x183D PUSH2 0x10CB JUMP JUMPDEST PUSH2 0x182F JUMP JUMPDEST DUP1 PUSH1 0x0 NOT DIV PUSH2 0x100 GT DUP2 ISZERO ISZERO AND PUSH2 0x185A JUMPI JUMPDEST PUSH1 0x8 SHL SWAP1 JUMP JUMPDEST PUSH2 0x1862 PUSH2 0x10CB JUMP JUMPDEST PUSH2 0x1854 JUMP JUMPDEST SWAP3 SWAP2 PUSH2 0x1871 PUSH2 0x1BAE JUMP JUMPDEST POP PUSH1 0xC0 DUP2 ADD DUP1 MLOAD SWAP5 PUSH1 0x40 SWAP6 PUSH1 0x0 DUP1 DUP9 PUSH2 0x193B PUSH2 0x195E PUSH2 0x18A9 DUP4 MLOAD PUSH2 0x1894 DUP2 PUSH2 0x1AD JUMP JUMPDEST DUP6 DUP2 MSTORE PUSH1 0x20 SWAP8 DUP7 DUP10 DUP4 ADD MSTORE DUP6 DUP3 ADD MSTORE DUP11 PUSH2 0x1A47 JUMP JUMPDEST DUP4 MLOAD PUSH2 0x18D1 DUP9 DUP3 DUP2 PUSH2 0x18C4 DUP2 DUP4 ADD SWAP7 DUP8 DUP2 MLOAD SWAP4 DUP5 SWAP3 ADD PUSH2 0x44F JUMP JUMPDEST DUP2 ADD SUB DUP1 DUP5 MSTORE ADD DUP3 PUSH2 0x226 JUMP JUMPDEST MLOAD SWAP1 KECCAK256 SWAP10 PUSH2 0x18DD PUSH2 0x1BAE JUMP JUMPDEST POP DUP4 MLOAD SWAP1 DUP8 DUP3 ADD MSTORE DUP7 DUP2 MSTORE PUSH2 0x18F1 DUP2 PUSH2 0x20B JUMP JUMPDEST DUP4 MLOAD SWAP1 DUP12 DUP9 DUP4 ADD MSTORE DUP8 DUP3 MSTORE PUSH2 0x1905 DUP3 PUSH2 0x20B JUMP JUMPDEST PUSH2 0x6F5 DUP6 MLOAD PUSH2 0x1913 DUP2 PUSH2 0x1F0 JUMP JUMPDEST DUP8 DUP2 MSTORE PUSH2 0x194E DUP8 MLOAD SWAP7 DUP8 SWAP5 PUSH1 0x80 DUP14 DUP8 ADD SWAP11 PUSH2 0x192E DUP13 PUSH1 0x4 SWAP1 MSTORE JUMP JUMPDEST DUP8 ADD MSTORE PUSH1 0xA0 DUP7 ADD SWAP1 PUSH2 0x472 JUMP JUMPDEST PUSH1 0x1F NOT SWAP6 DUP7 DUP7 DUP4 SUB ADD PUSH1 0x60 DUP8 ADD MSTORE PUSH2 0x472 JUMP JUMPDEST SWAP1 DUP5 DUP5 DUP4 SUB ADD PUSH1 0x80 DUP6 ADD MSTORE PUSH2 0x472 JUMP JUMPDEST MLOAD SWAP1 PUSH1 0x6 PUSH1 0x1 PUSH1 0x98 SHL ADD GAS STATICCALL SWAP1 PUSH2 0x1973 PUSH2 0x14BE JUMP JUMPDEST SWAP2 ISZERO PUSH2 0x19C3 JUMPI POP PUSH2 0x4A8 SWAP6 SWAP7 PUSH2 0x199A PUSH2 0x19BC SWAP4 PUSH2 0x1992 PUSH2 0x19B7 SWAP5 PUSH2 0x1BE0 JUMP JUMPDEST SWAP8 DUP9 SWAP2 PUSH2 0x1DE2 JUMP JUMPDEST DUP6 ADD SWAP3 PUSH2 0x19B1 PUSH2 0x19AA DUP6 MLOAD PUSH2 0x1485 JUMP JUMPDEST SWAP2 MLOAD PUSH2 0x17F9 JUMP JUMPDEST SWAP1 PUSH2 0x1130 JUMP JUMPDEST PUSH2 0x10F8 JUMP JUMPDEST SWAP1 MSTORE PUSH2 0x1A47 JUMP JUMPDEST PUSH1 0x64 SWAP1 DUP9 MLOAD SWAP1 PUSH3 0x461BCD PUSH1 0xE5 SHL DUP3 MSTORE PUSH1 0x4 DUP3 ADD MSTORE PUSH1 0xC PUSH1 0x24 DUP3 ADD MSTORE PUSH12 0x1CDA59DB8E8819985A5B1959 PUSH1 0xA2 SHL PUSH1 0x44 DUP3 ADD MSTORE REVERT JUMPDEST PUSH1 0x40 MLOAD SWAP1 PUSH2 0x140 DUP3 ADD DUP3 DUP2 LT PUSH1 0x1 PUSH1 0x1 PUSH1 0x40 SHL SUB DUP3 GT OR PUSH2 0x1A3A JUMPI JUMPDEST PUSH1 0x40 MSTORE PUSH1 0x9 DUP3 MSTORE DUP2 PUSH1 0x0 JUMPDEST PUSH2 0x120 DUP2 LT PUSH2 0x1A29 JUMPI POP POP JUMP JUMPDEST DUP1 PUSH1 0x60 PUSH1 0x20 DUP1 SWAP4 DUP6 ADD ADD MSTORE ADD PUSH2 0x1A1C JUMP JUMPDEST PUSH2 0x1A42 PUSH2 0x196 JUMP JUMPDEST PUSH2 0x1A11 JUMP JUMPDEST PUSH2 0x1B95 PUSH1 0x20 PUSH2 0x4A8 SWAP4 PUSH2 0x1B3B PUSH1 0xA0 PUSH2 0x1A5D PUSH2 0x19F5 JUMP JUMPDEST SWAP6 PUSH2 0x1A86 PUSH2 0x1A81 PUSH2 0x1A75 DUP4 MLOAD PUSH1 0x1 PUSH1 0x1 PUSH1 0x40 SHL SUB AND SWAP1 JUMP JUMPDEST PUSH1 0x1 PUSH1 0x1 PUSH1 0x40 SHL SUB AND SWAP1 JUMP JUMPDEST PUSH2 0x21B8 JUMP JUMPDEST PUSH2 0x1A8F DUP9 PUSH2 0x13DD JUMP JUMPDEST MSTORE PUSH2 0x1A99 DUP8 PUSH2 0x13DD JUMP JUMPDEST POP PUSH2 0x1AA6 DUP6 DUP3 ADD MLOAD PUSH2 0x21B8 JUMP JUMPDEST PUSH2 0x1AAF DUP9 PUSH2 0x165D JUMP JUMPDEST MSTORE PUSH2 0x1AB9 DUP8 PUSH2 0x165D JUMP JUMPDEST POP PUSH2 0x1AD4 PUSH2 0x1A81 PUSH2 0x1A75 PUSH1 0x40 DUP5 ADD MLOAD PUSH1 0x1 PUSH1 0x1 PUSH1 0x40 SHL SUB AND SWAP1 JUMP JUMPDEST PUSH2 0x1ADD DUP9 PUSH2 0x166E JUMP JUMPDEST MSTORE PUSH2 0x1AE7 DUP8 PUSH2 0x166E JUMP JUMPDEST POP PUSH1 0x60 DUP2 ADD MLOAD PUSH2 0x1AFF SWAP1 PUSH1 0x1 PUSH1 0x1 PUSH1 0xA0 SHL SUB AND PUSH2 0x2186 JUMP JUMPDEST PUSH2 0x1B08 DUP9 PUSH2 0x167F JUMP JUMPDEST MSTORE PUSH2 0x1B12 DUP8 PUSH2 0x167F JUMP JUMPDEST POP PUSH2 0x1B20 PUSH1 0x80 DUP3 ADD MLOAD PUSH2 0x21B8 JUMP JUMPDEST PUSH2 0x1B29 DUP9 PUSH2 0x1690 JUMP JUMPDEST MSTORE PUSH2 0x1B33 DUP8 PUSH2 0x1690 JUMP JUMPDEST POP ADD MLOAD PUSH2 0x1EDE JUMP JUMPDEST PUSH2 0x1B44 DUP6 PUSH2 0x16A1 JUMP JUMPDEST MSTORE PUSH2 0x1B4E DUP5 PUSH2 0x16A1 JUMP JUMPDEST POP PUSH2 0x1B5C PUSH1 0x40 DUP3 ADD MLOAD PUSH2 0x21B8 JUMP JUMPDEST PUSH2 0x1B65 DUP6 PUSH2 0x16B2 JUMP JUMPDEST MSTORE PUSH2 0x1B6F DUP5 PUSH2 0x16B2 JUMP JUMPDEST POP PUSH2 0x1B7A DUP2 MLOAD PUSH2 0x21B8 JUMP JUMPDEST PUSH2 0x1B83 DUP6 PUSH2 0x16C3 JUMP JUMPDEST MSTORE PUSH2 0x1B8D DUP5 PUSH2 0x16C3 JUMP JUMPDEST POP ADD MLOAD PUSH2 0x21B8 JUMP JUMPDEST PUSH2 0x1B9E DUP3 PUSH2 0x16D5 JUMP JUMPDEST MSTORE PUSH2 0x1BA8 DUP2 PUSH2 0x16D5 JUMP JUMPDEST POP PUSH2 0x205A JUMP JUMPDEST PUSH1 0x40 MLOAD SWAP1 PUSH2 0x1BBB DUP3 PUSH2 0x1AD JUMP JUMPDEST PUSH1 0x0 PUSH1 0x40 DUP4 DUP3 DUP2 MSTORE DUP3 PUSH1 0x20 DUP3 ADD MSTORE ADD MSTORE JUMP JUMPDEST SWAP1 PUSH2 0x13F3 PUSH1 0x20 SWAP3 DUP3 DUP2 MLOAD SWAP5 DUP6 SWAP3 ADD PUSH2 0x44F JUMP JUMPDEST SWAP1 PUSH2 0x1BE9 PUSH2 0x1BAE JUMP JUMPDEST SWAP2 PUSH1 0x8 DUP2 MLOAD LT PUSH2 0x1D9B JUMPI PUSH1 0x1 PUSH1 0x1 PUSH1 0xF8 SHL SUB NOT PUSH1 0x3 PUSH1 0xFC SHL DUP2 PUSH2 0x1C1C PUSH2 0x1C0E DUP6 PUSH2 0x13DD JUMP JUMPDEST MLOAD PUSH1 0x1 PUSH1 0x1 PUSH1 0xF8 SHL SUB NOT AND SWAP1 JUMP JUMPDEST AND SUB PUSH2 0x1D9B JUMPI PUSH1 0x1 PUSH1 0xF9 SHL DUP1 DUP3 PUSH2 0x1C35 PUSH2 0x1C0E DUP7 PUSH2 0x13F7 JUMP JUMPDEST AND SUB PUSH2 0x1D9B JUMPI PUSH2 0x1C59 PUSH2 0x1C53 PUSH2 0x1C4D PUSH2 0x1C0E DUP7 PUSH2 0x1408 JUMP JUMPDEST PUSH1 0xF8 SHR SWAP1 JUMP JUMPDEST PUSH1 0xFF AND SWAP1 JUMP JUMPDEST SWAP2 PUSH2 0x1C6C PUSH2 0x1C53 PUSH2 0x1C4D PUSH2 0x1C0E DUP8 PUSH2 0x1419 JUMP JUMPDEST SWAP3 PUSH1 0x21 DUP5 GT PUSH2 0x1D9B JUMPI PUSH2 0x1C7E DUP5 PUSH2 0x1106 JUMP JUMPDEST SWAP1 PUSH2 0x1C9A PUSH2 0x1C53 PUSH2 0x1C4D PUSH2 0x1C0E PUSH2 0x1C94 DUP7 PUSH2 0x10E2 JUMP JUMPDEST DUP11 PUSH2 0x143B JUMP JUMPDEST SWAP4 PUSH1 0x21 DUP6 GT PUSH2 0x1D9B JUMPI PUSH2 0x1CC0 PUSH2 0x1CB3 PUSH2 0x1C0E DUP6 DUP11 PUSH2 0x143B JUMP JUMPDEST PUSH1 0x1 PUSH1 0x1 PUSH1 0xF8 SHL SUB NOT AND SWAP1 JUMP JUMPDEST SUB PUSH2 0x1D9B JUMPI DUP1 PUSH2 0x1CD8 PUSH2 0x1CD3 DUP7 DUP9 PUSH2 0x1130 JUMP JUMPDEST PUSH2 0x1114 JUMP JUMPDEST SUB PUSH2 0x1D9B JUMPI PUSH2 0x1CE8 DUP7 MLOAD SWAP2 PUSH2 0x1122 JUMP JUMPDEST SUB PUSH2 0x1D9B JUMPI PUSH2 0x1CF6 SWAP1 PUSH2 0x1122 JUMP JUMPDEST SWAP1 PUSH1 0x4 SWAP1 PUSH1 0x21 DUP6 EQ PUSH2 0x1DAD JUMPI JUMPDEST PUSH1 0x21 DUP5 EQ PUSH2 0x1D68 JUMPI JUMPDEST POP SWAP1 PUSH1 0x20 DUP1 SWAP3 DUP7 ADD ADD MLOAD SWAP5 ADD ADD MLOAD SWAP2 PUSH1 0x20 DUP2 LT PUSH2 0x1D51 JUMPI JUMPDEST POP PUSH1 0x20 DUP2 LT PUSH2 0x1D39 JUMPI JUMPDEST POP SWAP1 DUP4 MSTORE PUSH1 0x20 DUP4 ADD MSTORE JUMP JUMPDEST PUSH2 0x1D45 PUSH2 0x1D4A SWAP2 PUSH2 0x14A3 JUMP JUMPDEST PUSH2 0x181D JUMP JUMPDEST SHR CODESIZE PUSH2 0x1D2E JUMP JUMPDEST PUSH2 0x1D45 PUSH2 0x1D60 SWAP2 SWAP5 SWAP3 SWAP5 PUSH2 0x14A3 JUMP JUMPDEST SHR SWAP2 CODESIZE PUSH2 0x1D24 JUMP JUMPDEST PUSH2 0x1D78 PUSH2 0x1C0E DUP5 DUP9 SWAP7 SWAP5 SWAP7 PUSH2 0x143B JUMP JUMPDEST AND PUSH2 0x1D9B JUMPI PUSH1 0x20 PUSH2 0x1D92 PUSH2 0x1D8C DUP3 SWAP5 PUSH2 0x10E2 JUMP JUMPDEST SWAP3 PUSH2 0x1494 JUMP JUMPDEST SWAP4 SWAP2 SWAP3 POP PUSH2 0x1D0C JUMP JUMPDEST PUSH1 0x40 MLOAD PUSH4 0x86CD05C5 PUSH1 0xE0 SHL DUP2 MSTORE PUSH1 0x4 SWAP1 REVERT JUMPDEST SWAP4 SWAP1 DUP5 PUSH2 0x1DBC PUSH2 0x1C0E DUP9 PUSH2 0x142A JUMP JUMPDEST AND PUSH2 0x1DD3 JUMPI POP PUSH2 0x1DCD PUSH1 0x5 SWAP2 PUSH2 0x1494 JUMP JUMPDEST SWAP4 PUSH2 0x1D03 JUMP JUMPDEST PUSH1 0x40 MLOAD PUSH4 0x86CD05C5 PUSH1 0xE0 SHL DUP2 MSTORE REVERT JUMPDEST SWAP2 PUSH1 0x40 DUP2 ADD PUSH1 0x1B DUP2 MSTORE DUP2 MLOAD SWAP2 PUSH1 0x20 DUP2 ADD PUSH1 0x20 PUSH2 0x1E1C DUP3 MLOAD PUSH1 0x40 MLOAD SWAP7 DUP9 DUP9 PUSH1 0x60 SWAP2 SWAP5 SWAP4 SWAP3 PUSH1 0x80 DUP3 ADD SWAP6 DUP3 MSTORE PUSH1 0x1B PUSH1 0x20 DUP4 ADD MSTORE PUSH1 0x40 DUP3 ADD MSTORE ADD MSTORE JUMP JUMPDEST DUP6 PUSH1 0x0 SWAP7 DUP8 SWAP3 DUP4 DUP1 MSTORE SUB SWAP1 PUSH1 0x1 GAS STATICCALL ISZERO PUSH2 0x1ED1 JUMPI JUMPDEST DUP4 MLOAD PUSH1 0x1 PUSH1 0x1 PUSH1 0xA0 SHL SUB SWAP7 DUP8 AND SWAP7 AND DUP7 SWAP1 SUB PUSH2 0x1E50 JUMPI JUMPDEST POP POP POP POP POP POP JUMP JUMPDEST PUSH2 0x1EA2 SWAP5 PUSH2 0x1E86 DUP6 SWAP4 PUSH1 0x1C PUSH1 0x20 SWAP7 MSTORE MLOAD SWAP3 MLOAD PUSH1 0x40 MLOAD SWAP4 DUP5 SWAP4 DUP5 PUSH1 0x60 SWAP2 SWAP5 SWAP4 SWAP3 PUSH1 0x80 DUP3 ADD SWAP6 DUP3 MSTORE PUSH1 0x1C PUSH1 0x20 DUP4 ADD MSTORE PUSH1 0x40 DUP3 ADD MSTORE ADD MSTORE JUMP JUMPDEST DUP4 DUP1 MSTORE SUB SWAP1 PUSH1 0x1 GAS STATICCALL ISZERO PUSH2 0x1EC4 JUMPI JUMPDEST MLOAD PUSH1 0x1 PUSH1 0x1 PUSH1 0xA0 SHL SUB AND SWAP1 JUMP JUMPDEST SUB PUSH2 0x1EB2 JUMPI CODESIZE DUP1 DUP1 DUP1 DUP1 DUP1 PUSH2 0x1E48 JUMP JUMPDEST PUSH1 0x40 MLOAD PUSH4 0x4532600D PUSH1 0xE0 SHL DUP2 MSTORE PUSH1 0x4 SWAP1 REVERT JUMPDEST PUSH2 0x1ECC PUSH2 0x10BE JUMP JUMPDEST PUSH2 0x1E95 JUMP JUMPDEST PUSH2 0x1ED9 PUSH2 0x10BE JUMP JUMPDEST PUSH2 0x1E31 JUMP JUMPDEST SWAP1 PUSH1 0x0 SWAP2 DUP1 MLOAD SWAP3 PUSH1 0x1 SWAP4 DUP5 DUP2 EQ SWAP1 DUP2 PUSH2 0x2034 JUMPI JUMPDEST POP ISZERO PUSH2 0x1EFD JUMPI POP SWAP2 POP JUMP JUMPDEST DUP2 MLOAD SWAP4 PUSH1 0x38 DUP6 LT ISZERO PUSH2 0x1F61 JUMPI POP SWAP3 PUSH2 0xB4D PUSH2 0x4A8 SWAP3 PUSH2 0x1F5B SWAP5 SWAP6 PUSH2 0x1F3E PUSH2 0x1F2E PUSH1 0xFF PUSH2 0x1F27 PUSH2 0x2272 JUMP JUMPDEST SWAP7 AND PUSH2 0x22EA JUMP JUMPDEST PUSH1 0xF8 SHL PUSH1 0x1 PUSH1 0x1 PUSH1 0xF8 SHL SUB NOT AND SWAP1 JUMP JUMPDEST SWAP1 BYTE PUSH2 0x1F49 DUP5 PUSH2 0x13DD JUMP JUMPDEST MSTORE8 JUMPDEST PUSH1 0x40 MLOAD SWAP5 DUP6 SWAP4 PUSH1 0x20 DUP6 ADD SWAP1 PUSH2 0x1BCD JUMP JUMPDEST SWAP1 PUSH2 0x1BCD JUMP JUMPDEST SWAP2 SWAP1 DUP1 DUP4 DUP1 DUP1 JUMPDEST PUSH2 0x2002 JUMPI JUMPDEST POP POP PUSH2 0x1F80 PUSH2 0x1F7B DUP4 PUSH2 0x10E2 JUMP JUMPDEST PUSH2 0x22A6 JUMP JUMPDEST SWAP4 PUSH2 0x1F98 PUSH2 0x1F2E PUSH2 0x1F93 PUSH1 0xFF DUP7 AND PUSH2 0x22EA JUMP JUMPDEST PUSH2 0x22D8 JUMP JUMPDEST DUP3 BYTE PUSH2 0x1FA3 DUP7 PUSH2 0x13DD JUMP JUMPDEST MSTORE8 JUMPDEST DUP3 DUP2 GT ISZERO PUSH2 0x1FC3 JUMPI POP POP POP PUSH2 0x1F5B SWAP3 SWAP4 POP SWAP1 PUSH2 0xB4D PUSH2 0x4A8 SWAP3 PUSH2 0x1F4B JUMP JUMPDEST DUP1 PUSH2 0x1FEB PUSH2 0x1F2E PUSH2 0x1C53 PUSH2 0x1C53 PUSH2 0x1FE5 PUSH2 0x1FE0 PUSH2 0x1FFD SWAP8 DUP11 PUSH2 0x14B1 JUMP JUMPDEST PUSH2 0x230E JUMP JUMPDEST DUP13 PUSH2 0x225C JUMP JUMPDEST DUP4 BYTE PUSH2 0x1FF7 DUP3 DUP9 PUSH2 0x143B JUMP JUMPDEST MSTORE8 PUSH2 0x1645 JUMP JUMPDEST PUSH2 0x1FA5 JUMP JUMPDEST SWAP1 SWAP3 PUSH2 0x200E DUP5 DUP10 PUSH2 0x225C JUMP JUMPDEST ISZERO PUSH2 0x202C JUMPI PUSH2 0x201F PUSH2 0x2025 SWAP2 PUSH2 0x1645 JUMP JUMPDEST SWAP4 PUSH2 0x1842 JUMP JUMPDEST SWAP1 DUP1 PUSH2 0x1F68 JUMP JUMPDEST SWAP3 POP DUP1 PUSH2 0x1F6D JUMP JUMPDEST SWAP1 POP ISZERO PUSH2 0x204D JUMPI JUMPDEST PUSH1 0x80 PUSH1 0x20 DUP4 ADD MLOAD PUSH1 0xF8 SHR LT CODESIZE PUSH2 0x1EF2 JUMP JUMPDEST PUSH2 0x2055 PUSH2 0x113D JUMP JUMPDEST PUSH2 0x203C JUMP JUMPDEST PUSH2 0x2063 SWAP1 PUSH2 0x232B JUMP JUMPDEST DUP1 MLOAD PUSH1 0x0 PUSH1 0x38 DUP3 LT ISZERO PUSH2 0x20D4 JUMPI POP PUSH1 0x20 PUSH2 0x4A8 SWAP2 PUSH2 0x208E PUSH2 0x1F2E PUSH1 0xFF PUSH2 0x2087 PUSH2 0x2272 JUMP JUMPDEST SWAP4 AND PUSH2 0x22FC JUMP JUMPDEST PUSH1 0x0 BYTE PUSH2 0x209A DUP3 PUSH2 0x13DD JUMP JUMPDEST MSTORE8 JUMPDEST PUSH1 0x40 MLOAD SWAP4 DUP2 PUSH2 0x20B4 DUP7 SWAP4 MLOAD DUP1 SWAP3 DUP7 DUP1 DUP8 ADD SWAP2 ADD PUSH2 0x44F JUMP JUMPDEST DUP3 ADD PUSH2 0x20C8 DUP3 MLOAD DUP1 SWAP4 DUP7 DUP1 DUP6 ADD SWAP2 ADD PUSH2 0x44F JUMP JUMPDEST ADD SUB DUP1 DUP5 MSTORE ADD DUP3 PUSH2 0x226 JUMP JUMPDEST PUSH1 0x1 SWAP2 DUP3 DUP1 DUP1 JUMPDEST PUSH2 0x215A JUMPI JUMPDEST POP POP PUSH2 0x20EE PUSH2 0x1F7B DUP4 PUSH2 0x10E2 JUMP JUMPDEST SWAP3 PUSH2 0x2101 PUSH2 0x1F2E PUSH2 0x1F93 PUSH1 0xFF DUP7 AND PUSH2 0x22FC JUMP JUMPDEST PUSH1 0x0 BYTE PUSH2 0x210D DUP6 PUSH2 0x13DD JUMP JUMPDEST MSTORE8 JUMPDEST DUP3 DUP2 GT ISZERO PUSH2 0x2125 JUMPI POP POP POP PUSH1 0x20 PUSH2 0x4A8 SWAP2 PUSH2 0x209C JUMP JUMPDEST DUP1 PUSH2 0x2148 PUSH2 0x1F2E PUSH2 0x1C53 PUSH2 0x1C53 PUSH2 0x2142 PUSH2 0x1FE0 PUSH2 0x2155 SWAP8 DUP11 PUSH2 0x14B1 JUMP JUMPDEST DUP8 PUSH2 0x225C JUMP JUMPDEST PUSH1 0x0 BYTE PUSH2 0x1FF7 DUP3 DUP8 PUSH2 0x143B JUMP JUMPDEST PUSH2 0x210F JUMP JUMPDEST SWAP1 SWAP3 PUSH2 0x2166 DUP5 DUP5 PUSH2 0x225C JUMP JUMPDEST ISZERO PUSH2 0x217E JUMPI PUSH2 0x201F PUSH2 0x2177 SWAP2 PUSH2 0x1645 JUMP JUMPDEST SWAP1 DUP1 PUSH2 0x20DB JUMP JUMPDEST SWAP3 POP DUP1 PUSH2 0x20E0 JUMP JUMPDEST PUSH2 0x4A8 SWAP1 PUSH1 0x40 MLOAD SWAP1 PUSH12 0xFFFFFFFFFFFFFFFFFFFFFFFF NOT SWAP1 PUSH1 0x60 SHL AND PUSH1 0x20 DUP3 ADD MSTORE PUSH1 0x14 DUP2 MSTORE PUSH2 0x21B3 DUP2 PUSH2 0x20B JUMP JUMPDEST PUSH2 0x1EDE JUMP JUMPDEST SWAP1 PUSH1 0x40 MLOAD PUSH2 0x21D2 DUP2 PUSH2 0xB4D PUSH1 0x20 SWAP6 DUP7 DUP4 ADD PUSH1 0x20 SWAP2 DUP2 MSTORE ADD SWAP1 JUMP JUMPDEST PUSH1 0x0 SWAP3 DUP4 SWAP1 JUMPDEST DUP1 DUP3 LT PUSH2 0x2232 JUMPI JUMPDEST POP PUSH2 0x21ED PUSH2 0x1F7B DUP3 PUSH2 0x14A3 JUMP JUMPDEST SWAP2 DUP5 JUMPDEST DUP4 MLOAD DUP2 LT ISZERO PUSH2 0x2224 JUMPI PUSH2 0x221F SWAP1 PUSH2 0x2213 PUSH2 0x1C0E PUSH2 0x220C DUP7 PUSH2 0x1645 JUMP JUMPDEST SWAP6 DUP6 PUSH2 0x143B JUMP JUMPDEST DUP8 BYTE PUSH2 0x1FF7 DUP3 DUP8 PUSH2 0x143B JUMP JUMPDEST PUSH2 0x21F0 JUMP JUMPDEST POP POP POP PUSH2 0x4A8 SWAP2 SWAP3 POP PUSH2 0x1EDE JUMP JUMPDEST SWAP1 PUSH2 0x2243 PUSH2 0x1CB3 PUSH2 0x1C0E DUP4 DUP7 PUSH2 0x143B JUMP JUMPDEST PUSH2 0x2256 JUMPI PUSH2 0x2250 SWAP1 PUSH2 0x1645 JUMP JUMPDEST SWAP1 PUSH2 0x21D8 JUMP JUMPDEST SWAP1 PUSH2 0x21E0 JUMP JUMPDEST DUP2 ISZERO PUSH2 0x2266 JUMPI DIV SWAP1 JUMP JUMPDEST PUSH2 0x226E PUSH2 0x145A JUMP JUMPDEST DIV SWAP1 JUMP JUMPDEST PUSH1 0x40 MLOAD SWAP1 PUSH2 0x227F DUP3 PUSH2 0x20B JUMP JUMPDEST PUSH1 0x1 DUP3 MSTORE PUSH1 0x20 CALLDATASIZE DUP2 DUP5 ADD CALLDATACOPY JUMP JUMPDEST PUSH1 0x40 MLOAD SWAP1 PUSH2 0x2299 DUP3 PUSH2 0x1F0 JUMP JUMPDEST PUSH1 0x0 DUP1 DUP4 MSTORE CALLDATASIZE PUSH1 0x20 DUP5 ADD CALLDATACOPY JUMP JUMPDEST SWAP1 PUSH2 0x22B0 DUP3 PUSH2 0x263 JUMP JUMPDEST PUSH2 0x22BD PUSH1 0x40 MLOAD SWAP2 DUP3 PUSH2 0x226 JUMP JUMPDEST DUP3 DUP2 MSTORE DUP1 SWAP3 PUSH2 0x22CE PUSH1 0x1F NOT SWAP2 PUSH2 0x263 JUMP JUMPDEST ADD SWAP1 PUSH1 0x20 CALLDATASIZE SWAP2 ADD CALLDATACOPY JUMP JUMPDEST PUSH1 0xFF PUSH1 0x37 SWAP2 AND ADD SWAP1 PUSH1 0xFF DUP3 GT PUSH2 0x10F0 JUMPI JUMP JUMPDEST PUSH1 0xFF PUSH1 0x80 SWAP2 AND ADD SWAP1 PUSH1 0xFF DUP3 GT PUSH2 0x10F0 JUMPI JUMP JUMPDEST PUSH1 0xFF PUSH1 0xC0 SWAP2 AND ADD SWAP1 PUSH1 0xFF DUP3 GT PUSH2 0x10F0 JUMPI JUMP JUMPDEST PUSH1 0x1F DUP2 GT PUSH2 0x231E JUMPI JUMPDEST PUSH2 0x100 EXP SWAP1 JUMP JUMPDEST PUSH2 0x2326 PUSH2 0x10CB JUMP JUMPDEST PUSH2 0x2317 JUMP JUMPDEST DUP1 MLOAD ISZERO PUSH2 0x23C4 JUMPI SWAP1 PUSH1 0x0 SWAP2 DUP3 JUMPDEST DUP2 MLOAD DUP5 LT ISZERO PUSH2 0x2366 JUMPI PUSH2 0x235A PUSH2 0x2360 SWAP2 PUSH2 0x2352 DUP7 DUP6 PUSH2 0x16E7 JUMP JUMPDEST MLOAD MLOAD SWAP1 PUSH2 0x1130 JUMP JUMPDEST SWAP4 PUSH2 0x1645 JUMP JUMPDEST SWAP3 PUSH2 0x2338 JUMP JUMPDEST PUSH2 0x2372 SWAP2 SWAP3 SWAP4 POP PUSH2 0x22A6 JUMP JUMPDEST SWAP1 PUSH1 0x20 DUP1 DUP4 ADD SWAP4 PUSH1 0x0 SWAP5 JUMPDEST DUP4 MLOAD DUP7 LT ISZERO PUSH2 0x23BC JUMPI PUSH2 0x23B0 PUSH2 0x23B6 SWAP2 PUSH2 0x23A6 PUSH2 0x239A DUP10 DUP9 PUSH2 0x16E7 JUMP JUMPDEST MLOAD DUP7 DUP2 MLOAD SWAP2 ADD DUP4 PUSH2 0x23CD JUMP JUMPDEST PUSH2 0x2352 DUP9 DUP8 PUSH2 0x16E7 JUMP JUMPDEST SWAP6 PUSH2 0x1645 JUMP JUMPDEST SWAP5 PUSH2 0x237D JUMP JUMPDEST POP SWAP4 POP POP POP SWAP1 JUMP JUMPDEST POP PUSH2 0x4A8 PUSH2 0x228C JUMP JUMPDEST SWAP3 SWAP1 JUMPDEST PUSH1 0x20 SWAP4 DUP5 DUP5 LT PUSH2 0x242F JUMPI DUP2 MLOAD DUP2 MSTORE DUP5 DUP2 ADD DUP1 SWAP2 GT PUSH2 0x2422 JUMPI JUMPDEST SWAP4 DUP2 ADD DUP1 SWAP2 GT PUSH2 0x2415 JUMPI JUMPDEST SWAP2 PUSH1 0x1F NOT DUP2 ADD SWAP1 DUP2 GT PUSH2 0x2408 JUMPI JUMPDEST SWAP2 PUSH2 0x23D0 JUMP JUMPDEST PUSH2 0x2410 PUSH2 0x10CB JUMP JUMPDEST PUSH2 0x2402 JUMP JUMPDEST PUSH2 0x241D PUSH2 0x10CB JUMP JUMPDEST PUSH2 0x23F4 JUMP JUMPDEST PUSH2 0x242A PUSH2 0x10CB JUMP JUMPDEST PUSH2 0x23E9 JUMP JUMPDEST SWAP3 SWAP1 SWAP2 SWAP4 POP PUSH1 0x0 NOT SWAP1 PUSH1 0x20 SUB PUSH2 0x100 EXP ADD SWAP1 DUP2 NOT SWAP1 MLOAD AND SWAP1 DUP3 MLOAD AND OR SWAP1 MSTORE JUMP JUMPDEST SWAP3 PUSH2 0x4A8 SWAP5 SWAP3 PUSH2 0x2471 SWAP3 DUP6 MSTORE PUSH1 0x20 DUP6 ADD MSTORE PUSH1 0x80 PUSH1 0x40 DUP6 ADD MSTORE PUSH1 0x80 DUP5 ADD SWAP1 PUSH2 0x472 JUMP JUMPDEST SWAP2 PUSH1 0x60 DUP2 DUP5 SUB SWAP2 ADD MSTORE PUSH2 0x472 JUMP JUMPDEST SWAP1 SWAP2 PUSH2 0x249E PUSH1 0x0 SWAP5 SWAP4 PUSH2 0xB4D DUP7 SWAP6 PUSH1 0x40 MLOAD SWAP5 DUP6 SWAP4 PUSH1 0x20 DUP6 ADD SWAP8 DUP9 PUSH2 0x244F JUMP JUMPDEST MLOAD SWAP1 PUSH1 0x3 PUSH1 0x1 PUSH1 0x98 SHL ADD GAS STATICCALL PUSH2 0x24B2 PUSH2 0x14BE JUMP JUMPDEST SWAP1 ISZERO PUSH2 0x24BB JUMPI SWAP1 JUMP JUMPDEST PUSH1 0x40 MLOAD PUSH3 0x461BCD PUSH1 0xE5 SHL DUP2 MSTORE PUSH1 0x20 PUSH1 0x4 DUP3 ADD MSTORE PUSH1 0xF PUSH1 0x24 DUP3 ADD MSTORE PUSH15 0x195B98DC9E5C1D0E8819985A5B1959 PUSH1 0x8A SHL PUSH1 0x44 DUP3 ADD MSTORE PUSH1 0x64 SWAP1 REVERT JUMPDEST PUSH1 0x0 DUP1 PUSH1 0x40 MLOAD PUSH2 0x2501 DUP2 PUSH2 0x1F0 JUMP JUMPDEST DUP2 DUP2 MSTORE PUSH1 0x40 MLOAD PUSH2 0x2527 DUP2 PUSH2 0xB4D PUSH1 0x20 DUP3 ADD SWAP5 PUSH1 0x2 DUP7 MSTORE PUSH1 0x40 DUP1 DUP5 ADD MSTORE PUSH1 0x60 DUP4 ADD SWAP1 PUSH2 0x472 JUMP JUMPDEST MLOAD SWAP1 PUSH1 0x1 PUSH1 0x1 PUSH1 0x98 SHL ADD GAS STATICCALL PUSH2 0x253B PUSH2 0x14BE JUMP JUMPDEST SWAP1 ISZERO PUSH2 0x155F JUMPI DUP1 MLOAD PUSH1 0x20 SWAP1 SWAP2 ADD MLOAD PUSH2 0x257B SWAP2 PUSH1 0x1 PUSH1 0x1 PUSH1 0xF0 SHL SUB NOT SWAP2 DUP3 DUP2 AND SWAP2 PUSH1 0x2 DUP2 LT PUSH2 0x258C JUMPI JUMPDEST POP POP PUSH1 0x0 SLOAD SWAP2 POP DUP2 ISZERO PUSH2 0x257F JUMPI JUMPDEST PUSH1 0xF0 SHR MOD PUSH2 0x1154 JUMP JUMPDEST POP SWAP1 JUMP JUMPDEST PUSH2 0x2587 PUSH2 0x145A JUMP JUMPDEST PUSH2 0x2572 JUMP JUMPDEST DUP4 SWAP2 SWAP3 POP PUSH1 0x2 SUB PUSH1 0x3 SHL SHL AND AND DUP1 CODESIZE DUP1 PUSH2 0x2564 JUMP JUMPDEST ISZERO PUSH2 0x25A8 JUMPI JUMP JUMPDEST PUSH1 0x40 MLOAD PUSH3 0x461BCD PUSH1 0xE5 SHL DUP2 MSTORE PUSH1 0x20 PUSH1 0x4 DUP3 ADD MSTORE PUSH1 0x1B PUSH1 0x24 DUP3 ADD MSTORE PUSH32 0x41434C20646973616C6C6F777320706F6C6C206372656174696F6E0000000000 PUSH1 0x44 DUP3 ADD MSTORE PUSH1 0x64 SWAP1 REVERT JUMPDEST SWAP1 CALLDATALOAD SWAP1 PUSH1 0x1E NOT DUP2 CALLDATASIZE SUB ADD DUP3 SLT ISZERO PUSH2 0xE JUMPI ADD DUP1 CALLDATALOAD SWAP1 PUSH1 0x1 PUSH1 0x1 PUSH1 0x40 SHL SUB DUP3 GT PUSH2 0xE JUMPI PUSH1 0x20 ADD SWAP2 DUP2 CALLDATASIZE SUB DUP4 SGT PUSH2 0xE JUMPI JUMP JUMPDEST SWAP1 DUP1 SWAP3 SWAP2 DUP3 CALLDATACOPY ADD PUSH1 0x0 DUP2 MSTORE SWAP1 JUMP JUMPDEST PUSH2 0xFFFF DUP2 AND SUB PUSH2 0xE JUMPI JUMP JUMPDEST CALLDATALOAD PUSH2 0x4A8 DUP2 PUSH2 0x262D JUMP JUMPDEST CALLDATALOAD PUSH2 0x4A8 DUP2 PUSH2 0x1728 JUMP JUMPDEST CALLDATALOAD SWAP1 PUSH2 0x254 DUP3 PUSH2 0x262D JUMP JUMPDEST CALLDATALOAD SWAP1 PUSH2 0x254 DUP3 PUSH2 0x1728 JUMP JUMPDEST PUSH1 0x20 DUP2 MSTORE DUP2 CALLDATALOAD PUSH1 0x1E NOT DUP4 CALLDATASIZE SUB ADD DUP2 SLT ISZERO PUSH2 0xE JUMPI DUP3 ADD PUSH1 0x20 DUP2 CALLDATALOAD SWAP2 ADD PUSH1 0x1 PUSH1 0x1 PUSH1 0x40 SHL SUB DUP3 GT PUSH2 0xE JUMPI DUP2 CALLDATASIZE SUB DUP2 SGT PUSH2 0xE JUMPI PUSH2 0x26DB PUSH1 0x40 PUSH1 0xA0 SWAP6 DUP5 PUSH2 0x48B SWAP5 PUSH1 0x60 PUSH1 0x20 DUP10 ADD MSTORE DUP2 PUSH1 0x80 DUP10 ADD MSTORE DUP9 DUP9 ADD CALLDATACOPY PUSH1 0x0 DUP8 DUP7 DUP9 ADD ADD MSTORE PUSH2 0x26D5 PUSH2 0x26CB PUSH1 0x20 DUP4 ADD PUSH2 0x264D JUMP JUMPDEST PUSH2 0xFFFF AND DUP8 DUP5 ADD MSTORE JUMP JUMPDEST ADD PUSH2 0x2658 JUMP JUMPDEST ISZERO ISZERO PUSH1 0x60 DUP5 ADD MSTORE JUMP JUMPDEST SWAP2 SWAP1 SWAP2 PUSH1 0x40 DUP2 DUP5 SUB SLT PUSH2 0xE JUMPI DUP1 MLOAD PUSH2 0x26FC DUP2 PUSH2 0xCA1 JUMP JUMPDEST SWAP3 PUSH1 0x20 DUP3 ADD MLOAD PUSH1 0x1 PUSH1 0x1 PUSH1 0x40 SHL SUB DUP2 GT PUSH2 0xE JUMPI PUSH2 0x4A8 SWAP3 ADD PUSH2 0x159A JUMP JUMPDEST SWAP1 PUSH1 0x1 PUSH1 0x1 PUSH1 0x1 PUSH1 0x40 SHL SUB DUP1 SWAP4 AND ADD SWAP2 DUP3 GT PUSH2 0x10F0 JUMPI JUMP JUMPDEST SWAP2 SWAP1 GAS SWAP1 PUSH1 0x0 SWAP4 CALLER DUP6 MSTORE PUSH1 0x1 PUSH1 0x20 MSTORE PUSH1 0x40 DUP6 KECCAK256 SLOAD DUP1 ISZERO PUSH2 0x281B JUMPI SWAP2 PUSH2 0x27D5 DUP7 PUSH2 0x254 SWAP7 SWAP8 PUSH2 0x27B7 PUSH2 0x27A8 PUSH1 0x2 SWAP7 PUSH2 0x2777 PUSH2 0x2809 SWAP10 PUSH1 0x0 NOT DUP2 ADD SWAP1 DUP2 GT PUSH2 0x280E JUMPI PUSH2 0x1154 JUMP JUMPDEST POP SWAP7 PUSH2 0x2781 PUSH2 0x28D JUMP JUMPDEST SWAP2 PUSH32 0x0 PUSH2 0x281F JUMP JUMPDEST PUSH1 0x20 DUP1 DUP3 MLOAD DUP4 ADD ADD SWAP2 ADD PUSH2 0x26E4 JUMP JUMPDEST DUP1 MLOAD SWAP2 PUSH1 0x20 SWAP1 SWAP2 ADD SWAP1 CALLVALUE SWAP1 PUSH1 0x1 PUSH1 0x1 PUSH1 0xA0 SHL SUB AND GAS CALL PUSH2 0x584 PUSH2 0x14BE JUMP JUMPDEST ADD PUSH2 0x27EF PUSH2 0x27EA DUP3 SLOAD PUSH1 0x1 PUSH1 0x1 PUSH1 0x40 SHL SUB AND SWAP1 JUMP JUMPDEST PUSH2 0x271A JUMP JUMPDEST PUSH1 0x1 PUSH1 0x1 PUSH1 0x40 SHL SUB AND PUSH1 0x1 PUSH1 0x1 PUSH1 0x40 SHL SUB NOT DUP3 SLOAD AND OR SWAP1 SSTORE JUMP JUMPDEST PUSH2 0x2892 JUMP JUMPDEST PUSH2 0x2816 PUSH2 0x10CB JUMP JUMPDEST PUSH2 0x1154 JUMP JUMPDEST DUP6 DUP1 REVERT JUMPDEST SWAP1 SWAP2 PUSH2 0x283E PUSH1 0x0 SWAP5 SWAP4 PUSH2 0xB4D DUP7 SWAP6 PUSH1 0x40 MLOAD SWAP5 DUP6 SWAP4 PUSH1 0x20 DUP6 ADD SWAP8 DUP9 PUSH2 0x244F JUMP JUMPDEST MLOAD SWAP1 PUSH1 0x4 PUSH1 0x1 PUSH1 0x98 SHL ADD GAS STATICCALL PUSH2 0x2852 PUSH2 0x14BE JUMP JUMPDEST SWAP1 ISZERO PUSH2 0x285B JUMPI SWAP1 JUMP JUMPDEST PUSH1 0x40 MLOAD PUSH3 0x461BCD PUSH1 0xE5 SHL DUP2 MSTORE PUSH1 0x20 PUSH1 0x4 DUP3 ADD MSTORE PUSH1 0xF PUSH1 0x24 DUP3 ADD MSTORE PUSH15 0x191958DC9E5C1D0E8819985A5B1959 PUSH1 0x8A SHL PUSH1 0x44 DUP3 ADD MSTORE PUSH1 0x64 SWAP1 REVERT JUMPDEST SELFBALANCE SWAP1 DUP2 PUSH2 0x289D JUMPI POP POP JUMP JUMPDEST PUSH2 0x28D3 SWAP1 GAS SWAP1 DUP2 SUB SWAP1 DUP2 GT PUSH2 0x2933 JUMPI JUMPDEST PUSH2 0x4E20 DUP2 ADD DUP1 SWAP2 GT PUSH2 0x2926 JUMPI JUMPDEST DUP1 PUSH1 0x0 NOT DIV GASPRICE GT DUP2 ISZERO ISZERO AND PUSH2 0x2919 JUMPI JUMPDEST BASEFEE SWAP1 GASPRICE MUL PUSH2 0x1130 JUMP JUMPDEST DUP2 DUP2 GT ISZERO PUSH2 0x2912 JUMPI POP JUMPDEST DUP1 ISZERO DUP1 ISZERO PUSH2 0x28E9 JUMPI POP POP JUMP JUMPDEST PUSH1 0x0 DUP1 DUP1 SWAP4 DUP2 SWAP4 DUP3 SWAP1 PUSH2 0x2909 JUMPI JUMPDEST CALLER SWAP1 CALL ISZERO PUSH2 0x2901 JUMPI JUMP JUMPDEST PUSH2 0x254 PUSH2 0x10BE JUMP JUMPDEST POP PUSH2 0x8FC PUSH2 0x28F7 JUMP JUMPDEST SWAP1 POP PUSH2 0x28DD JUMP JUMPDEST PUSH2 0x2921 PUSH2 0x10CB JUMP JUMPDEST PUSH2 0x28CA JUMP JUMPDEST PUSH2 0x292E PUSH2 0x10CB JUMP JUMPDEST PUSH2 0x28BA JUMP JUMPDEST PUSH2 0x293B PUSH2 0x10CB JUMP JUMPDEST PUSH2 0x28AD JUMP INVALID LOG2 PUSH5 0x6970667358 0x22 SLT KECCAK256 0xE3 LOG1 0xDD SWAP1 PUSH25 0xE245B9740598D592219671050DC476329687D5AEDD09143F2 JUMPDEST 0x4F PUSH5 0x736F6C6343 STOP ADDMOD LT STOP CALLER "},"methodIdentifiers":{"CREATEPROPOSAL_TYPE()":"93120397","CREATEPROPOSAL_TYPEHASH()":"94f5c716","DAO()":"98fabd3a","DOMAIN_SEPARATOR()":"3644e515","EIP712_DOMAIN_TYPEHASH()":"c7977be7","VOTINGREQUEST_TYPE()":"fb227358","VOTINGREQUEST_TYPEHASH()":"1172c20d","addKeypair()":"d633a990","getChainId()":"3408e470","listAddresses()":"1c356fa6","makeProposalTransaction(uint256,address,(string,uint16,bool),(bytes32,bytes32,uint256))":"fa4ccde3","makeVoteTransaction(uint256,(address,bytes32,uint256),(bytes32,bytes32,uint256))":"2e9d82f2","proxy(bytes32,bytes)":"c09c1b23","setDAO(address)":"e73a914c","supportsInterface(bytes4)":"01ffc9a7"}}}}}